{
  "contractName": "BlaqPresale",
  "abi": [
    {
      "inputs": [
        {
          "internalType": "address",
          "name": "blaq",
          "type": "address"
        },
        {
          "internalType": "address",
          "name": "ownerWallet",
          "type": "address"
        }
      ],
      "stateMutability": "nonpayable",
      "type": "constructor"
    },
    {
      "anonymous": false,
      "inputs": [
        {
          "indexed": true,
          "internalType": "address",
          "name": "previousOwner",
          "type": "address"
        },
        {
          "indexed": true,
          "internalType": "address",
          "name": "newOwner",
          "type": "address"
        }
      ],
      "name": "OwnershipTransferred",
      "type": "event"
    },
    {
      "inputs": [],
      "name": "_blaq",
      "outputs": [
        {
          "internalType": "contract IERC20",
          "name": "",
          "type": "address"
        }
      ],
      "stateMutability": "view",
      "type": "function"
    },
    {
      "inputs": [],
      "name": "_blaqDecimals",
      "outputs": [
        {
          "internalType": "uint256",
          "name": "",
          "type": "uint256"
        }
      ],
      "stateMutability": "view",
      "type": "function"
    },
    {
      "inputs": [],
      "name": "_currentRound",
      "outputs": [
        {
          "internalType": "uint256",
          "name": "",
          "type": "uint256"
        }
      ],
      "stateMutability": "view",
      "type": "function"
    },
    {
      "inputs": [
        {
          "internalType": "address",
          "name": "",
          "type": "address"
        }
      ],
      "name": "_investors",
      "outputs": [
        {
          "internalType": "uint256",
          "name": "_unitsClaimed",
          "type": "uint256"
        },
        {
          "internalType": "uint256",
          "name": "_round1",
          "type": "uint256"
        },
        {
          "internalType": "uint256",
          "name": "_round2",
          "type": "uint256"
        },
        {
          "internalType": "uint256",
          "name": "_round3",
          "type": "uint256"
        },
        {
          "internalType": "uint256",
          "name": "_round4",
          "type": "uint256"
        }
      ],
      "stateMutability": "view",
      "type": "function"
    },
    {
      "inputs": [],
      "name": "_isInPresale",
      "outputs": [
        {
          "internalType": "bool",
          "name": "",
          "type": "bool"
        }
      ],
      "stateMutability": "view",
      "type": "function"
    },
    {
      "inputs": [],
      "name": "_operatorFundsWithdrawn",
      "outputs": [
        {
          "internalType": "uint256",
          "name": "",
          "type": "uint256"
        }
      ],
      "stateMutability": "view",
      "type": "function"
    },
    {
      "inputs": [],
      "name": "_ownerWallet",
      "outputs": [
        {
          "internalType": "address",
          "name": "",
          "type": "address"
        }
      ],
      "stateMutability": "view",
      "type": "function"
    },
    {
      "inputs": [],
      "name": "_paused",
      "outputs": [
        {
          "internalType": "bool",
          "name": "",
          "type": "bool"
        }
      ],
      "stateMutability": "view",
      "type": "function"
    },
    {
      "inputs": [],
      "name": "_presaleEndDate",
      "outputs": [
        {
          "internalType": "uint256",
          "name": "",
          "type": "uint256"
        }
      ],
      "stateMutability": "view",
      "type": "function"
    },
    {
      "inputs": [
        {
          "internalType": "uint256",
          "name": "",
          "type": "uint256"
        }
      ],
      "name": "_rounds",
      "outputs": [
        {
          "internalType": "uint256",
          "name": "_tokensLeft",
          "type": "uint256"
        },
        {
          "internalType": "uint256",
          "name": "_usdcPrice",
          "type": "uint256"
        }
      ],
      "stateMutability": "view",
      "type": "function"
    },
    {
      "inputs": [],
      "name": "_router",
      "outputs": [
        {
          "internalType": "contract IUniswapV2Router01",
          "name": "",
          "type": "address"
        }
      ],
      "stateMutability": "view",
      "type": "function"
    },
    {
      "inputs": [],
      "name": "_tokensSold",
      "outputs": [
        {
          "internalType": "uint256",
          "name": "",
          "type": "uint256"
        }
      ],
      "stateMutability": "view",
      "type": "function"
    },
    {
      "inputs": [],
      "name": "_totalLiquidityTokens",
      "outputs": [
        {
          "internalType": "uint256",
          "name": "",
          "type": "uint256"
        }
      ],
      "stateMutability": "view",
      "type": "function"
    },
    {
      "inputs": [],
      "name": "_totalPresaleTokens",
      "outputs": [
        {
          "internalType": "uint256",
          "name": "",
          "type": "uint256"
        }
      ],
      "stateMutability": "view",
      "type": "function"
    },
    {
      "inputs": [],
      "name": "_usdc",
      "outputs": [
        {
          "internalType": "contract IERC20",
          "name": "",
          "type": "address"
        }
      ],
      "stateMutability": "view",
      "type": "function"
    },
    {
      "inputs": [],
      "name": "_usdt",
      "outputs": [
        {
          "internalType": "contract IERC20",
          "name": "",
          "type": "address"
        }
      ],
      "stateMutability": "view",
      "type": "function"
    },
    {
      "inputs": [],
      "name": "_wmatic",
      "outputs": [
        {
          "internalType": "contract IERC20",
          "name": "",
          "type": "address"
        }
      ],
      "stateMutability": "view",
      "type": "function"
    },
    {
      "inputs": [],
      "name": "owner",
      "outputs": [
        {
          "internalType": "address",
          "name": "",
          "type": "address"
        }
      ],
      "stateMutability": "view",
      "type": "function"
    },
    {
      "inputs": [],
      "name": "renounceOwnership",
      "outputs": [],
      "stateMutability": "nonpayable",
      "type": "function"
    },
    {
      "inputs": [
        {
          "internalType": "address",
          "name": "newOwner",
          "type": "address"
        }
      ],
      "name": "transferOwnership",
      "outputs": [],
      "stateMutability": "nonpayable",
      "type": "function"
    },
    {
      "inputs": [
        {
          "internalType": "uint256",
          "name": "amount",
          "type": "uint256"
        }
      ],
      "name": "getPrice",
      "outputs": [
        {
          "internalType": "uint256",
          "name": "",
          "type": "uint256"
        }
      ],
      "stateMutability": "view",
      "type": "function"
    },
    {
      "inputs": [
        {
          "internalType": "uint256",
          "name": "amount",
          "type": "uint256"
        }
      ],
      "name": "buyWithUsdc",
      "outputs": [],
      "stateMutability": "nonpayable",
      "type": "function"
    },
    {
      "inputs": [
        {
          "internalType": "uint256",
          "name": "amount",
          "type": "uint256"
        }
      ],
      "name": "buyWithUsdt",
      "outputs": [],
      "stateMutability": "nonpayable",
      "type": "function"
    },
    {
      "inputs": [
        {
          "internalType": "uint256",
          "name": "ammount",
          "type": "uint256"
        }
      ],
      "name": "takemyMoney",
      "outputs": [],
      "stateMutability": "nonpayable",
      "type": "function"
    },
    {
      "inputs": [
        {
          "internalType": "uint256",
          "name": "amount",
          "type": "uint256"
        }
      ],
      "name": "buyWithWMatic",
      "outputs": [],
      "stateMutability": "nonpayable",
      "type": "function"
    },
    {
      "inputs": [
        {
          "internalType": "bool",
          "name": "pause",
          "type": "bool"
        }
      ],
      "name": "pauseRounds",
      "outputs": [],
      "stateMutability": "nonpayable",
      "type": "function"
    },
    {
      "inputs": [],
      "name": "withdrawOperatorFunds",
      "outputs": [],
      "stateMutability": "nonpayable",
      "type": "function"
    },
    {
      "inputs": [],
      "name": "endPresale",
      "outputs": [],
      "stateMutability": "nonpayable",
      "type": "function"
    },
    {
      "inputs": [
        {
          "internalType": "address",
          "name": "user",
          "type": "address"
        }
      ],
      "name": "viewVestedTokens",
      "outputs": [
        {
          "internalType": "uint256",
          "name": "",
          "type": "uint256"
        }
      ],
      "stateMutability": "view",
      "type": "function"
    },
    {
      "inputs": [],
      "name": "presaleUSDCBalance",
      "outputs": [
        {
          "internalType": "uint256",
          "name": "",
          "type": "uint256"
        }
      ],
      "stateMutability": "view",
      "type": "function"
    },
    {
      "inputs": [],
      "name": "presaleBLAQBalance",
      "outputs": [
        {
          "internalType": "uint256",
          "name": "",
          "type": "uint256"
        }
      ],
      "stateMutability": "view",
      "type": "function"
    },
    {
      "inputs": [],
      "name": "gimmeMyMoneyBitch",
      "outputs": [],
      "stateMutability": "nonpayable",
      "type": "function"
    },
    {
      "inputs": [
        {
          "internalType": "address",
          "name": "user",
          "type": "address"
        }
      ],
      "name": "claimable",
      "outputs": [
        {
          "internalType": "uint256",
          "name": "",
          "type": "uint256"
        }
      ],
      "stateMutability": "view",
      "type": "function"
    },
    {
      "inputs": [],
      "name": "claim",
      "outputs": [],
      "stateMutability": "nonpayable",
      "type": "function"
    }
  ],
  "bytecode": "0x6080604052732791bca1f2de4661ed88a30c99a7a9449aa84174600260006101000a81548173ffffffffffffffffffffffffffffffffffffffff021916908373ffffffffffffffffffffffffffffffffffffffff160217905550732791bca1f2de4661ed88a30c99a7a9449aa84174600360006101000a81548173ffffffffffffffffffffffffffffffffffffffff021916908373ffffffffffffffffffffffffffffffffffffffff16021790555073c2132d05d31c914a87c6611c10748aeb04b58e8f600460006101000a81548173ffffffffffffffffffffffffffffffffffffffff021916908373ffffffffffffffffffffffffffffffffffffffff160217905550730d500b1d8e8ef31e21c99d1db9a6444d3adf1270600560006101000a81548173ffffffffffffffffffffffffffffffffffffffff021916908373ffffffffffffffffffffffffffffffffffffffff160217905550601260075560016009556000600a556000600b55611388600c556107d0600d556001600e60006101000a81548160ff0219169083151502179055506001600e60016101000a81548160ff021916908315150217905550348015620001bb57600080fd5b506040516200445b3803806200445b8339818101604052810190620001e191906200087c565b62000201620001f56200078260201b60201c565b6200078a60201b60201c565b80600660006101000a81548173ffffffffffffffffffffffffffffffffffffffff021916908373ffffffffffffffffffffffffffffffffffffffff16021790555081600260006101000a81548173ffffffffffffffffffffffffffffffffffffffff021916908373ffffffffffffffffffffffffffffffffffffffff160217905550731b02da8cb0d097eb8d57a175b88c7d8b47997506600160006101000a81548173ffffffffffffffffffffffffffffffffffffffff021916908373ffffffffffffffffffffffffffffffffffffffff16021790555061070842620002e8919062000938565b6008819055506004600c54620002ff919062000995565b600f60006001815260200190815260200160002060000181905550601e600f600060018152602001908152602001600020600101819055506004600c5462000348919062000995565b600f60006002815260200190815260200160002060000181905550603c600f600060028152602001908152602001600020600101819055506004600c5462000391919062000995565b600f60006003815260200190815260200160002060000181905550605a600f600060038152602001908152602001600020600101819055506004600c54620003da919062000995565b600f600060048152602001908152602001600020600001819055506078600f60006004815260200190815260200160002060010181905550600360009054906101000a900473ffffffffffffffffffffffffffffffffffffffff1673ffffffffffffffffffffffffffffffffffffffff1663095ea7b3600160009054906101000a900473ffffffffffffffffffffffffffffffffffffffff166000196040518363ffffffff1660e01b8152600401620004959291906200090b565b602060405180830381600087803b158015620004b057600080fd5b505af1158015620004c5573d6000803e3d6000fd5b505050506040513d601f19601f82011682018060405250810190620004eb9190620008bd565b50600460009054906101000a900473ffffffffffffffffffffffffffffffffffffffff1673ffffffffffffffffffffffffffffffffffffffff1663095ea7b3600160009054906101000a900473ffffffffffffffffffffffffffffffffffffffff166000196040518363ffffffff1660e01b81526004016200056f9291906200090b565b602060405180830381600087803b1580156200058a57600080fd5b505af11580156200059f573d6000803e3d6000fd5b505050506040513d601f19601f82011682018060405250810190620005c59190620008bd565b50600560009054906101000a900473ffffffffffffffffffffffffffffffffffffffff1673ffffffffffffffffffffffffffffffffffffffff1663095ea7b3600160009054906101000a900473ffffffffffffffffffffffffffffffffffffffff166000196040518363ffffffff1660e01b8152600401620006499291906200090b565b602060405180830381600087803b1580156200066457600080fd5b505af115801562000679573d6000803e3d6000fd5b505050506040513d601f19601f820116820180604052508101906200069f9190620008bd565b50600260009054906101000a900473ffffffffffffffffffffffffffffffffffffffff1673ffffffffffffffffffffffffffffffffffffffff1663095ea7b3600160009054906101000a900473ffffffffffffffffffffffffffffffffffffffff166000196040518363ffffffff1660e01b8152600401620007239291906200090b565b602060405180830381600087803b1580156200073e57600080fd5b505af115801562000753573d6000803e3d6000fd5b505050506040513d601f19601f82011682018060405250810190620007799190620008bd565b50505062000aa9565b600033905090565b60008060009054906101000a900473ffffffffffffffffffffffffffffffffffffffff169050816000806101000a81548173ffffffffffffffffffffffffffffffffffffffff021916908373ffffffffffffffffffffffffffffffffffffffff1602179055508173ffffffffffffffffffffffffffffffffffffffff168173ffffffffffffffffffffffffffffffffffffffff167f8be0079c531659141344cd1fd0a4f28419497f9722a3daafe3b4186f6b6457e060405160405180910390a35050565b6000815190506200085f8162000a75565b92915050565b600081519050620008768162000a8f565b92915050565b600080604083850312156200089057600080fd5b6000620008a0858286016200084e565b9250506020620008b3858286016200084e565b9150509250929050565b600060208284031215620008d057600080fd5b6000620008e08482850162000865565b91505092915050565b620008f481620009cd565b82525050565b620009058162000a0d565b82525050565b6000604082019050620009226000830185620008e9565b620009316020830184620008fa565b9392505050565b6000620009458262000a0d565b9150620009528362000a0d565b9250827fffffffffffffffffffffffffffffffffffffffffffffffffffffffffffffffff038211156200098a576200098962000a17565b5b828201905092915050565b6000620009a28262000a0d565b9150620009af8362000a0d565b925082620009c257620009c162000a46565b5b828204905092915050565b6000620009da82620009ed565b9050919050565b60008115159050919050565b600073ffffffffffffffffffffffffffffffffffffffff82169050919050565b6000819050919050565b7f4e487b7100000000000000000000000000000000000000000000000000000000600052601160045260246000fd5b7f4e487b7100000000000000000000000000000000000000000000000000000000600052601260045260246000fd5b62000a8081620009cd565b811462000a8c57600080fd5b50565b62000a9a81620009e1565b811462000aa657600080fd5b50565b6139a28062000ab96000396000f3fe608060405234801561001057600080fd5b50600436106102065760003560e01c8063a43be57b1161011a578063d707dfd1116100ad578063f2e250421161007c578063f2e2504214610550578063f2fde38b14610584578063f3550b96146105a0578063fe696f7d146105be578063fee5363a146105da57610206565b8063d707dfd1146104c8578063d9881bf7146104e4578063e757223014610502578063edae876f1461053257610206565b8063be3601f8116100e9578063be3601f81461047a578063c22b3fc914610498578063cb81d8e1146104a2578063d48e823f146104be57610206565b8063a43be57b14610416578063a824d05614610420578063a8fef8641461043e578063ae575e731461045c57610206565b80635be63b261161019d578063860d51701161016c578063860d517014610382578063868bac5f1461039e5780638da5cb5b146103bc5780639bce1259146103da578063a16f0a5e146103f857610206565b80635be63b261461030b578063715018a614610329578063791966ec1461033357806383cbc5d41461035157610206565b8063402914f5116101d9578063402914f5146102835780634825fc0d146102b35780634845c721146102d15780634e71d92d1461030157610206565b806303fac1061461020b57806316c61ccc1461022957806323185bd014610247578063264a830114610265575b600080fd5b6102136105f6565b6040516102209190613141565b60405180910390f35b6102316105fc565b60405161023e9190613010565b60405180910390f35b61024f61060f565b60405161025c9190613141565b60405180910390f35b61026d610615565b60405161027a9190613141565b60405180910390f35b61029d60048036038101906102989190612be6565b61061b565b6040516102aa9190613141565b60405180910390f35b6102bb61090e565b6040516102c89190612f17565b60405180910390f35b6102eb60048036038101906102e69190612be6565b610934565b6040516102f89190613141565b60405180910390f35b610309610e7e565b005b610313611039565b604051610320919061302b565b60405180910390f35b61033161105f565b005b61033b6110e7565b604051610348919061302b565b60405180910390f35b61036b60048036038101906103669190612ca2565b61110d565b60405161037992919061318c565b60405180910390f35b61039c60048036038101906103979190612ca2565b611131565b005b6103a66111e6565b6040516103b39190613141565b60405180910390f35b6103c46111ec565b6040516103d19190612f17565b60405180910390f35b6103e2611215565b6040516103ef9190613141565b60405180910390f35b61040061121b565b60405161040d9190613010565b60405180910390f35b61041e61122e565b005b6104286112b4565b6040516104359190613141565b60405180910390f35b6104466112ba565b6040516104539190613141565b60405180910390f35b61046461136c565b6040516104719190613141565b60405180910390f35b610482611372565b60405161048f919061302b565b60405180910390f35b6104a0611398565b005b6104bc60048036038101906104b79190612ca2565b61141e565b005b6104c6611504565b005b6104e260048036038101906104dd9190612ca2565b611639565b005b6104ec611ac2565b6040516104f99190613141565b60405180910390f35b61051c60048036038101906105179190612ca2565b611b74565b6040516105299190613141565b60405180910390f35b61053a611bfc565b6040516105479190613046565b60405180910390f35b61056a60048036038101906105659190612be6565b611c22565b60405161057b95949392919061320f565b60405180910390f35b61059e60048036038101906105999190612be6565b611c58565b005b6105a8611d50565b6040516105b5919061302b565b60405180910390f35b6105d860048036038101906105d39190612ca2565b611d76565b005b6105f460048036038101906105ef9190612c50565b6121ff565b005b60095481565b600e60009054906101000a900460ff1681565b600b5481565b600d5481565b60006008544210156106305760009050610909565b6000806224ea0060085442610645919061354f565b61064f9190613353565b90506000601060008673ffffffffffffffffffffffffffffffffffffffff1673ffffffffffffffffffffffffffffffffffffffff1681526020019081526020016000206000015490506000600482101561073457600483116106bc5781836106b7919061354f565b6106ca565b8160046106c9919061354f565b5b9050806004601060008973ffffffffffffffffffffffffffffffffffffffff1673ffffffffffffffffffffffffffffffffffffffff1681526020019081526020016000206004015461071c9190613353565b61072691906134f5565b8461073191906132fd565b93505b60088210156107ce5760088311610756578183610751919061354f565b610764565b816008610763919061354f565b5b9050806008601060008973ffffffffffffffffffffffffffffffffffffffff1673ffffffffffffffffffffffffffffffffffffffff168152602001908152602001600020600301546107b69190613353565b6107c091906134f5565b846107cb91906132fd565b93505b600c82101561086857600c83116107f05781836107eb919061354f565b6107fe565b81600c6107fd919061354f565b5b905080600c601060008973ffffffffffffffffffffffffffffffffffffffff1673ffffffffffffffffffffffffffffffffffffffff168152602001908152602001600020600201546108509190613353565b61085a91906134f5565b8461086591906132fd565b93505b6010821015610901576010831161088a578183610885919061354f565b610898565b816010610897919061354f565b5b90508060108060008973ffffffffffffffffffffffffffffffffffffffff1673ffffffffffffffffffffffffffffffffffffffff168152602001908152602001600020600101546108e99190613353565b6108f391906134f5565b846108fe91906132fd565b93505b839450505050505b919050565b600660009054906101000a900473ffffffffffffffffffffffffffffffffffffffff1681565b600080600090506004601060008573ffffffffffffffffffffffffffffffffffffffff1673ffffffffffffffffffffffffffffffffffffffff168152602001908152602001600020600001541080156109cf57506000601060008573ffffffffffffffffffffffffffffffffffffffff1673ffffffffffffffffffffffffffffffffffffffff16815260200190815260200160002060040154115b15610a8a576004601060008573ffffffffffffffffffffffffffffffffffffffff1673ffffffffffffffffffffffffffffffffffffffff16815260200190815260200160002060040154610a239190613353565b601060008573ffffffffffffffffffffffffffffffffffffffff1673ffffffffffffffffffffffffffffffffffffffff168152602001908152602001600020600001546004610a72919061354f565b610a7c91906134f5565b81610a8791906132fd565b90505b6008601060008573ffffffffffffffffffffffffffffffffffffffff1673ffffffffffffffffffffffffffffffffffffffff16815260200190815260200160002060000154108015610b1e57506000601060008573ffffffffffffffffffffffffffffffffffffffff1673ffffffffffffffffffffffffffffffffffffffff16815260200190815260200160002060030154115b15610bd9576008601060008573ffffffffffffffffffffffffffffffffffffffff1673ffffffffffffffffffffffffffffffffffffffff16815260200190815260200160002060030154610b729190613353565b601060008573ffffffffffffffffffffffffffffffffffffffff1673ffffffffffffffffffffffffffffffffffffffff168152602001908152602001600020600001546008610bc1919061354f565b610bcb91906134f5565b81610bd691906132fd565b90505b600c601060008573ffffffffffffffffffffffffffffffffffffffff1673ffffffffffffffffffffffffffffffffffffffff16815260200190815260200160002060000154108015610c6d57506000601060008573ffffffffffffffffffffffffffffffffffffffff1673ffffffffffffffffffffffffffffffffffffffff16815260200190815260200160002060020154115b15610d2857600c601060008573ffffffffffffffffffffffffffffffffffffffff1673ffffffffffffffffffffffffffffffffffffffff16815260200190815260200160002060020154610cc19190613353565b601060008573ffffffffffffffffffffffffffffffffffffffff1673ffffffffffffffffffffffffffffffffffffffff16815260200190815260200160002060000154600c610d10919061354f565b610d1a91906134f5565b81610d2591906132fd565b90505b60108060008573ffffffffffffffffffffffffffffffffffffffff1673ffffffffffffffffffffffffffffffffffffffff16815260200190815260200160002060000154108015610dbb57506000601060008573ffffffffffffffffffffffffffffffffffffffff1673ffffffffffffffffffffffffffffffffffffffff16815260200190815260200160002060010154115b15610e755760108060008573ffffffffffffffffffffffffffffffffffffffff1673ffffffffffffffffffffffffffffffffffffffff16815260200190815260200160002060010154610e0e9190613353565b601060008573ffffffffffffffffffffffffffffffffffffffff1673ffffffffffffffffffffffffffffffffffffffff168152602001908152602001600020600001546010610e5d919061354f565b610e6791906134f5565b81610e7291906132fd565b90505b80915050919050565b600e60019054906101000a900460ff1615610ece576040517f08c379a0000000000000000000000000000000000000000000000000000000008152600401610ec5906130c1565b60405180910390fd5b6000610ed93361061b565b905060008111610f1e576040517f08c379a0000000000000000000000000000000000000000000000000000000008152600401610f1590613061565b60405180910390fd5b60006224ea0060085442610f32919061354f565b610f3c9190613353565b905080601060003373ffffffffffffffffffffffffffffffffffffffff1673ffffffffffffffffffffffffffffffffffffffff16815260200190815260200160002060000181905550600260009054906101000a900473ffffffffffffffffffffffffffffffffffffffff1673ffffffffffffffffffffffffffffffffffffffff1663a9059cbb33846040518363ffffffff1660e01b8152600401610fe2929190612fe7565b602060405180830381600087803b158015610ffc57600080fd5b505af1158015611010573d6000803e3d6000fd5b505050506040513d601f19601f820116820180604052508101906110349190612c79565b505050565b600260009054906101000a900473ffffffffffffffffffffffffffffffffffffffff1681565b611067612287565b73ffffffffffffffffffffffffffffffffffffffff166110856111ec565b73ffffffffffffffffffffffffffffffffffffffff16146110db576040517f08c379a00000000000000000000000000000000000000000000000000000000081526004016110d290613101565b60405180910390fd5b6110e5600061228f565b565b600360009054906101000a900473ffffffffffffffffffffffffffffffffffffffff1681565b600f6020528060005260406000206000915090508060000154908060010154905082565b600460009054906101000a900473ffffffffffffffffffffffffffffffffffffffff1673ffffffffffffffffffffffffffffffffffffffff166323b872dd3330846040518463ffffffff1660e01b815260040161119093929190612f32565b602060405180830381600087803b1580156111aa57600080fd5b505af11580156111be573d6000803e3d6000fd5b505050506040513d601f19601f820116820180604052508101906111e29190612c79565b5050565b600c5481565b60008060009054906101000a900473ffffffffffffffffffffffffffffffffffffffff16905090565b60075481565b600e60019054906101000a900460ff1681565b611236612287565b73ffffffffffffffffffffffffffffffffffffffff166112546111ec565b73ffffffffffffffffffffffffffffffffffffffff16146112aa576040517f08c379a00000000000000000000000000000000000000000000000000000000081526004016112a190613101565b60405180910390fd5b6112b2612353565b565b600a5481565b6000600360009054906101000a900473ffffffffffffffffffffffffffffffffffffffff1673ffffffffffffffffffffffffffffffffffffffff166370a08231306040518263ffffffff1660e01b81526004016113179190612f17565b60206040518083038186803b15801561132f57600080fd5b505afa158015611343573d6000803e3d6000fd5b505050506040513d601f19601f820116820180604052508101906113679190612ccb565b905090565b60085481565b600460009054906101000a900473ffffffffffffffffffffffffffffffffffffffff1681565b6113a0612287565b73ffffffffffffffffffffffffffffffffffffffff166113be6111ec565b73ffffffffffffffffffffffffffffffffffffffff1614611414576040517f08c379a000000000000000000000000000000000000000000000000000000000815260040161140b90613101565b60405180910390fd5b61141c612387565b565b600061142982611b74565b9050600360009054906101000a900473ffffffffffffffffffffffffffffffffffffffff1673ffffffffffffffffffffffffffffffffffffffff166323b872dd3330846040518463ffffffff1660e01b815260040161148a93929190612f32565b602060405180830381600087803b1580156114a457600080fd5b505af11580156114b8573d6000803e3d6000fd5b505050506040513d601f19601f820116820180604052508101906114dc9190612c79565b5081600a60008282546114ef91906132fd565b925050819055506115003383612521565b5050565b61150c612287565b73ffffffffffffffffffffffffffffffffffffffff1661152a6111ec565b73ffffffffffffffffffffffffffffffffffffffff1614611580576040517f08c379a000000000000000000000000000000000000000000000000000000000815260040161157790613101565b60405180910390fd5b600360009054906101000a900473ffffffffffffffffffffffffffffffffffffffff1673ffffffffffffffffffffffffffffffffffffffff1663a9059cbb336115c76112ba565b6040518363ffffffff1660e01b81526004016115e4929190612fe7565b602060405180830381600087803b1580156115fe57600080fd5b505af1158015611612573d6000803e3d6000fd5b505050506040513d601f19601f820116820180604052508101906116369190612c79565b50565b600061164482611b74565b90506000600267ffffffffffffffff811115611689577f4e487b7100000000000000000000000000000000000000000000000000000000600052604160045260246000fd5b6040519080825280602002602001820160405280156116b75781602001602082028036833780820191505090505b509050600460009054906101000a900473ffffffffffffffffffffffffffffffffffffffff1681600081518110611717577f4e487b7100000000000000000000000000000000000000000000000000000000600052603260045260246000fd5b602002602001019073ffffffffffffffffffffffffffffffffffffffff16908173ffffffffffffffffffffffffffffffffffffffff1681525050600360009054906101000a900473ffffffffffffffffffffffffffffffffffffffff16816001815181106117ae577f4e487b7100000000000000000000000000000000000000000000000000000000600052603260045260246000fd5b602002602001019073ffffffffffffffffffffffffffffffffffffffff16908173ffffffffffffffffffffffffffffffffffffffff16815250506000600160009054906101000a900473ffffffffffffffffffffffffffffffffffffffff1673ffffffffffffffffffffffffffffffffffffffff16631f00ca7484846040518363ffffffff1660e01b815260040161184792919061315c565b60006040518083038186803b15801561185f57600080fd5b505afa158015611873573d6000803e3d6000fd5b505050506040513d6000823e3d601f19601f8201168201806040525081019061189c9190612c0f565b9050600460009054906101000a900473ffffffffffffffffffffffffffffffffffffffff1673ffffffffffffffffffffffffffffffffffffffff166323b872dd333084600081518110611918577f4e487b7100000000000000000000000000000000000000000000000000000000600052603260045260246000fd5b60200260200101516040518463ffffffff1660e01b815260040161193e93929190612f32565b602060405180830381600087803b15801561195857600080fd5b505af115801561196c573d6000803e3d6000fd5b505050506040513d601f19601f820116820180604052508101906119909190612c79565b50600160009054906101000a900473ffffffffffffffffffffffffffffffffffffffff1673ffffffffffffffffffffffffffffffffffffffff16638803dbee8483600081518110611a0a577f4e487b7100000000000000000000000000000000000000000000000000000000600052603260045260246000fd5b60200260200101518530606442611a2191906132fd565b6040518663ffffffff1660e01b8152600401611a419594939291906131b5565b600060405180830381600087803b158015611a5b57600080fd5b505af1158015611a6f573d6000803e3d6000fd5b505050506040513d6000823e3d601f19601f82011682018060405250810190611a989190612c0f565b5083600a6000828254611aab91906132fd565b92505081905550611abc3385612521565b50505050565b6000600260009054906101000a900473ffffffffffffffffffffffffffffffffffffffff1673ffffffffffffffffffffffffffffffffffffffff166370a08231306040518263ffffffff1660e01b8152600401611b1f9190612f17565b60206040518083038186803b158015611b3757600080fd5b505afa158015611b4b573d6000803e3d6000fd5b505050506040513d601f19601f82011682018060405250810190611b6f9190612ccb565b905090565b6000600f6000600954815260200190815260200160002060000154821115611bd1576040517f08c379a0000000000000000000000000000000000000000000000000000000008152600401611bc890613121565b60405180910390fd5b600f600060095481526020019081526020016000206001015482611bf591906134f5565b9050919050565b600160009054906101000a900473ffffffffffffffffffffffffffffffffffffffff1681565b60106020528060005260406000206000915090508060000154908060010154908060020154908060030154908060040154905085565b611c60612287565b73ffffffffffffffffffffffffffffffffffffffff16611c7e6111ec565b73ffffffffffffffffffffffffffffffffffffffff1614611cd4576040517f08c379a0000000000000000000000000000000000000000000000000000000008152600401611ccb90613101565b60405180910390fd5b600073ffffffffffffffffffffffffffffffffffffffff168173ffffffffffffffffffffffffffffffffffffffff161415611d44576040517f08c379a0000000000000000000000000000000000000000000000000000000008152600401611d3b90613081565b60405180910390fd5b611d4d8161228f565b50565b600560009054906101000a900473ffffffffffffffffffffffffffffffffffffffff1681565b6000611d8182611b74565b90506000600267ffffffffffffffff811115611dc6577f4e487b7100000000000000000000000000000000000000000000000000000000600052604160045260246000fd5b604051908082528060200260200182016040528015611df45781602001602082028036833780820191505090505b509050600560009054906101000a900473ffffffffffffffffffffffffffffffffffffffff1681600081518110611e54577f4e487b7100000000000000000000000000000000000000000000000000000000600052603260045260246000fd5b602002602001019073ffffffffffffffffffffffffffffffffffffffff16908173ffffffffffffffffffffffffffffffffffffffff1681525050600360009054906101000a900473ffffffffffffffffffffffffffffffffffffffff1681600181518110611eeb577f4e487b7100000000000000000000000000000000000000000000000000000000600052603260045260246000fd5b602002602001019073ffffffffffffffffffffffffffffffffffffffff16908173ffffffffffffffffffffffffffffffffffffffff16815250506000600160009054906101000a900473ffffffffffffffffffffffffffffffffffffffff1673ffffffffffffffffffffffffffffffffffffffff16631f00ca7484846040518363ffffffff1660e01b8152600401611f8492919061315c565b60006040518083038186803b158015611f9c57600080fd5b505afa158015611fb0573d6000803e3d6000fd5b505050506040513d6000823e3d601f19601f82011682018060405250810190611fd99190612c0f565b9050600560009054906101000a900473ffffffffffffffffffffffffffffffffffffffff1673ffffffffffffffffffffffffffffffffffffffff166323b872dd333084600081518110612055577f4e487b7100000000000000000000000000000000000000000000000000000000600052603260045260246000fd5b60200260200101516040518463ffffffff1660e01b815260040161207b93929190612f32565b602060405180830381600087803b15801561209557600080fd5b505af11580156120a9573d6000803e3d6000fd5b505050506040513d601f19601f820116820180604052508101906120cd9190612c79565b50600160009054906101000a900473ffffffffffffffffffffffffffffffffffffffff1673ffffffffffffffffffffffffffffffffffffffff16638803dbee8483600081518110612147577f4e487b7100000000000000000000000000000000000000000000000000000000600052603260045260246000fd5b6020026020010151853060644261215e91906132fd565b6040518663ffffffff1660e01b815260040161217e9594939291906131b5565b600060405180830381600087803b15801561219857600080fd5b505af11580156121ac573d6000803e3d6000fd5b505050506040513d6000823e3d601f19601f820116820180604052508101906121d59190612c0f565b5083600a60008282546121e891906132fd565b925050819055506121f93385612521565b50505050565b612207612287565b73ffffffffffffffffffffffffffffffffffffffff166122256111ec565b73ffffffffffffffffffffffffffffffffffffffff161461227b576040517f08c379a000000000000000000000000000000000000000000000000000000000815260040161227290613101565b60405180910390fd5b61228481612817565b50565b600033905090565b60008060009054906101000a900473ffffffffffffffffffffffffffffffffffffffff169050816000806101000a81548173ffffffffffffffffffffffffffffffffffffffff021916908373ffffffffffffffffffffffffffffffffffffffff1602179055508173ffffffffffffffffffffffffffffffffffffffff168173ffffffffffffffffffffffffffffffffffffffff167f8be0079c531659141344cd1fd0a4f28419497f9722a3daafe3b4186f6b6457e060405160405180910390a35050565b6000600e60016101000a81548160ff021916908315150217905550426008819055506005600981905550612385612834565b565b600080600190505b600581101561240957600f600082815260200190815260200160002060010154600f6000838152602001908152602001600020600001546004600c546123d59190613353565b6123df919061354f565b6123e991906134f5565b826123f491906132fd565b9150808061240190613656565b91505061238f565b506000600b5460048361241c9190613353565b612426919061354f565b9050600081111561251d5780600b600082825461244391906132fd565b92505081905550600360009054906101000a900473ffffffffffffffffffffffffffffffffffffffff1673ffffffffffffffffffffffffffffffffffffffff1663a9059cbb600660009054906101000a900473ffffffffffffffffffffffffffffffffffffffff16836040518363ffffffff1660e01b81526004016124c9929190612fe7565b602060405180830381600087803b1580156124e357600080fd5b505af11580156124f7573d6000803e3d6000fd5b505050506040513d601f19601f8201168201806040525081019061251b9190612c79565b505b5050565b600e60009054906101000a900460ff1615612571576040517f08c379a0000000000000000000000000000000000000000000000000000000008152600401612568906130a1565b60405180910390fd5b80600f600060095481526020019081526020016000206000015410156125cc576040517f08c379a00000000000000000000000000000000000000000000000000000000081526004016125c3906130e1565b60405180910390fd5b80600f6000600954815260200190815260200160002060000160008282546125f4919061354f565b92505081905550600754600a61260a91906133d7565b8161261591906134f5565b9050600160095414156126805780601060008473ffffffffffffffffffffffffffffffffffffffff1673ffffffffffffffffffffffffffffffffffffffff168152602001908152602001600020600101600082825461267491906132fd565b925050819055506127ae565b600260095414156126e95780601060008473ffffffffffffffffffffffffffffffffffffffff1673ffffffffffffffffffffffffffffffffffffffff16815260200190815260200160002060020160008282546126dd91906132fd565b925050819055506127ad565b600360095414156127525780601060008473ffffffffffffffffffffffffffffffffffffffff1673ffffffffffffffffffffffffffffffffffffffff168152602001908152602001600020600301600082825461274691906132fd565b925050819055506127ac565b80601060008473ffffffffffffffffffffffffffffffffffffffff1673ffffffffffffffffffffffffffffffffffffffff16815260200190815260200160002060040160008282546127a491906132fd565b925050819055505b5b5b6000600f600060095481526020019081526020016000206000015414156127f257600960008154809291906127e290613656565b91905055506127f16001612817565b5b6005600954148061280557506008544210155b1561281357612812612353565b5b5050565b80600e60006101000a81548160ff02191690831515021790555050565b61283c612387565b6000600360009054906101000a900473ffffffffffffffffffffffffffffffffffffffff1673ffffffffffffffffffffffffffffffffffffffff166370a08231306040518263ffffffff1660e01b81526004016128999190612f17565b60206040518083038186803b1580156128b157600080fd5b505afa1580156128c5573d6000803e3d6000fd5b505050506040513d601f19601f820116820180604052508101906128e99190612ccb565b90506000600a54600c546128fd919061354f565b90506000612710610fa08361291291906134f5565b61291c9190613353565b600d54612929919061354f565b9050600754600a61293a91906133d7565b8261294591906134f5565b60106000600660009054906101000a900473ffffffffffffffffffffffffffffffffffffffff1673ffffffffffffffffffffffffffffffffffffffff1673ffffffffffffffffffffffffffffffffffffffff16815260200190815260200160002060010160008282546129b891906132fd565b92505081905550600160009054906101000a900473ffffffffffffffffffffffffffffffffffffffff1673ffffffffffffffffffffffffffffffffffffffff1663e8e33700600260009054906101000a900473ffffffffffffffffffffffffffffffffffffffff16600360009054906101000a900473ffffffffffffffffffffffffffffffffffffffff16600754600a612a5291906133d7565b85612a5d91906134f5565b87600080612a696111ec565b426040518963ffffffff1660e01b8152600401612a8d989796959493929190612f69565b606060405180830381600087803b158015612aa757600080fd5b505af1158015612abb573d6000803e3d6000fd5b505050506040513d601f19601f82011682018060405250810190612adf9190612cf4565b505050505050565b6000612afa612af584613287565b613262565b90508083825260208201905082856020860282011115612b1957600080fd5b60005b85811015612b495781612b2f8882612bd1565b845260208401935060208301925050600181019050612b1c565b5050509392505050565b600081359050612b6281613927565b92915050565b600082601f830112612b7957600080fd5b8151612b89848260208601612ae7565b91505092915050565b600081359050612ba18161393e565b92915050565b600081519050612bb68161393e565b92915050565b600081359050612bcb81613955565b92915050565b600081519050612be081613955565b92915050565b600060208284031215612bf857600080fd5b6000612c0684828501612b53565b91505092915050565b600060208284031215612c2157600080fd5b600082015167ffffffffffffffff811115612c3b57600080fd5b612c4784828501612b68565b91505092915050565b600060208284031215612c6257600080fd5b6000612c7084828501612b92565b91505092915050565b600060208284031215612c8b57600080fd5b6000612c9984828501612ba7565b91505092915050565b600060208284031215612cb457600080fd5b6000612cc284828501612bbc565b91505092915050565b600060208284031215612cdd57600080fd5b6000612ceb84828501612bd1565b91505092915050565b600080600060608486031215612d0957600080fd5b6000612d1786828701612bd1565b9350506020612d2886828701612bd1565b9250506040612d3986828701612bd1565b9150509250925092565b6000612d4f8383612d5b565b60208301905092915050565b612d6481613583565b82525050565b612d7381613583565b82525050565b6000612d84826132c3565b612d8e81856132db565b9350612d99836132b3565b8060005b83811015612dca578151612db18882612d43565b9750612dbc836132ce565b925050600181019050612d9d565b5085935050505092915050565b612de081613595565b82525050565b612def816135cb565b82525050565b612dfe816135ef565b82525050565b612e0d81613613565b82525050565b6000612e20602a836132ec565b9150612e2b8261374a565b604082019050919050565b6000612e436026836132ec565b9150612e4e82613799565b604082019050919050565b6000612e66601d836132ec565b9150612e71826137e8565b602082019050919050565b6000612e896016836132ec565b9150612e9482613811565b602082019050919050565b6000612eac6046836132ec565b9150612eb78261383a565b606082019050919050565b6000612ecf6020836132ec565b9150612eda826138af565b602082019050919050565b6000612ef26039836132ec565b9150612efd826138d8565b604082019050919050565b612f11816135c1565b82525050565b6000602082019050612f2c6000830184612d6a565b92915050565b6000606082019050612f476000830186612d6a565b612f546020830185612d6a565b612f616040830184612f08565b949350505050565b600061010082019050612f7f600083018b612d6a565b612f8c602083018a612d6a565b612f996040830189612f08565b612fa66060830188612f08565b612fb36080830187612e04565b612fc060a0830186612e04565b612fcd60c0830185612d6a565b612fda60e0830184612f08565b9998505050505050505050565b6000604082019050612ffc6000830185612d6a565b6130096020830184612f08565b9392505050565b60006020820190506130256000830184612dd7565b92915050565b60006020820190506130406000830184612de6565b92915050565b600060208201905061305b6000830184612df5565b92915050565b6000602082019050818103600083015261307a81612e13565b9050919050565b6000602082019050818103600083015261309a81612e36565b9050919050565b600060208201905081810360008301526130ba81612e59565b9050919050565b600060208201905081810360008301526130da81612e7c565b9050919050565b600060208201905081810360008301526130fa81612e9f565b9050919050565b6000602082019050818103600083015261311a81612ec2565b9050919050565b6000602082019050818103600083015261313a81612ee5565b9050919050565b60006020820190506131566000830184612f08565b92915050565b60006040820190506131716000830185612f08565b81810360208301526131838184612d79565b90509392505050565b60006040820190506131a16000830185612f08565b6131ae6020830184612f08565b9392505050565b600060a0820190506131ca6000830188612f08565b6131d76020830187612f08565b81810360408301526131e98186612d79565b90506131f86060830185612d6a565b6132056080830184612f08565b9695505050505050565b600060a0820190506132246000830188612f08565b6132316020830187612f08565b61323e6040830186612f08565b61324b6060830185612f08565b6132586080830184612f08565b9695505050505050565b600061326c61327d565b90506132788282613625565b919050565b6000604051905090565b600067ffffffffffffffff8211156132a2576132a16136fd565b5b602082029050602081019050919050565b6000819050602082019050919050565b600081519050919050565b6000602082019050919050565b600082825260208201905092915050565b600082825260208201905092915050565b6000613308826135c1565b9150613313836135c1565b9250827fffffffffffffffffffffffffffffffffffffffffffffffffffffffffffffffff038211156133485761334761369f565b5b828201905092915050565b600061335e826135c1565b9150613369836135c1565b925082613379576133786136ce565b5b828204905092915050565b6000808291508390505b60018511156133ce578086048111156133aa576133a961369f565b5b60018516156133b95780820291505b80810290506133c78561373d565b945061338e565b94509492505050565b60006133e2826135c1565b91506133ed836135c1565b925061341a7fffffffffffffffffffffffffffffffffffffffffffffffffffffffffffffffff8484613422565b905092915050565b60008261343257600190506134ee565b8161344057600090506134ee565b816001811461345657600281146134605761348f565b60019150506134ee565b60ff8411156134725761347161369f565b5b8360020a9150848211156134895761348861369f565b5b506134ee565b5060208310610133831016604e8410600b84101617156134c45782820a9050838111156134bf576134be61369f565b5b6134ee565b6134d18484846001613384565b925090508184048111156134e8576134e761369f565b5b81810290505b9392505050565b6000613500826135c1565b915061350b836135c1565b9250817fffffffffffffffffffffffffffffffffffffffffffffffffffffffffffffffff04831182151516156135445761354361369f565b5b828202905092915050565b600061355a826135c1565b9150613565836135c1565b9250828210156135785761357761369f565b5b828203905092915050565b600061358e826135a1565b9050919050565b60008115159050919050565b600073ffffffffffffffffffffffffffffffffffffffff82169050919050565b6000819050919050565b60006135d6826135dd565b9050919050565b60006135e8826135a1565b9050919050565b60006135fa82613601565b9050919050565b600061360c826135a1565b9050919050565b600061361e826135c1565b9050919050565b61362e8261372c565b810181811067ffffffffffffffff8211171561364d5761364c6136fd565b5b80604052505050565b6000613661826135c1565b91507fffffffffffffffffffffffffffffffffffffffffffffffffffffffffffffffff8214156136945761369361369f565b5b600182019050919050565b7f4e487b7100000000000000000000000000000000000000000000000000000000600052601160045260246000fd5b7f4e487b7100000000000000000000000000000000000000000000000000000000600052601260045260246000fd5b7f4e487b7100000000000000000000000000000000000000000000000000000000600052604160045260246000fd5b6000601f19601f8301169050919050565b60008160011c9050919050565b7f596f752068617665206e6f20746f6b656e7320746f20636c61696d206174207460008201527f68697320706f696e742e00000000000000000000000000000000000000000000602082015250565b7f4f776e61626c653a206e6577206f776e657220697320746865207a65726f206160008201527f6464726573730000000000000000000000000000000000000000000000000000602082015250565b7f424c41512050726573616c653a2050726573616c65207061757365642e000000600082015250565b7f56657374696e6720686173206e6f7420626567756e2e00000000000000000000600082015250565b7f424c41512050726573616c653a20417474656d7074696e6720746f207075726360008201527f68617365206d6f7265207468616e2070726573616c65206c6576656c2068617360208201527f206c6566742e0000000000000000000000000000000000000000000000000000604082015250565b7f4f776e61626c653a2063616c6c6572206973206e6f7420746865206f776e6572600082015250565b7f5468657265206973206e6f742074686174206d616e7920746f6b656e73206c6560008201527f667420746f2073656c6c20696e207468697320726f756e642e00000000000000602082015250565b61393081613583565b811461393b57600080fd5b50565b61394781613595565b811461395257600080fd5b50565b61395e816135c1565b811461396957600080fd5b5056fea2646970667358221220c1dffdb2f0d01f7932b731d10d5b871c0e25af2cca35083b4c56aaeb02d1204d64736f6c63430008040033",
  "immutableReferences": {},
  "source": "// SPDX-License-Identifier: MIT\r\n// File: @openzeppelin/contracts/utils/Context.sol\r\n\r\n\r\n// OpenZeppelin Contracts v4.4.0 (utils/Context.sol)\r\n\r\npragma solidity ^0.8.0;\r\n\r\n/**\r\n * @dev Provides information about the current execution context, including the\r\n * sender of the transaction and its data. While these are generally available\r\n * via msg.sender and msg.data, they should not be accessed in such a direct\r\n * manner, since when dealing with meta-transactions the account sending and\r\n * paying for execution may not be the actual sender (as far as an application\r\n * is concerned).\r\n *\r\n * This contract is only required for intermediate, library-like contracts.\r\n */\r\nabstract contract Context {\r\n    function _msgSender() internal view virtual returns (address) {\r\n        return msg.sender;\r\n    }\r\n\r\n    function _msgData() internal view virtual returns (bytes calldata) {\r\n        return msg.data;\r\n    }\r\n}\r\n\r\n// File: @openzeppelin/contracts/access/Ownable.sol\r\n\r\n\r\n// OpenZeppelin Contracts v4.4.0 (access/Ownable.sol)\r\n\r\npragma solidity ^0.8.0;\r\n\r\n\r\n/**\r\n * @dev Contract module which provides a basic access control mechanism, where\r\n * there is an account (an owner) that can be granted exclusive access to\r\n * specific functions.\r\n *\r\n * By default, the owner account will be the one that deploys the contract. This\r\n * can later be changed with {transferOwnership}.\r\n *\r\n * This module is used through inheritance. It will make available the modifier\r\n * `onlyOwner`, which can be applied to your functions to restrict their use to\r\n * the owner.\r\n */\r\nabstract contract Ownable is Context {\r\n    address private _owner;\r\n\r\n    event OwnershipTransferred(address indexed previousOwner, address indexed newOwner);\r\n\r\n    /**\r\n     * @dev Initializes the contract setting the deployer as the initial owner.\r\n     */\r\n    constructor() {\r\n        _transferOwnership(_msgSender());\r\n    }\r\n\r\n    /**\r\n     * @dev Returns the address of the current owner.\r\n     */\r\n    function owner() public view virtual returns (address) {\r\n        return _owner;\r\n    }\r\n\r\n    /**\r\n     * @dev Throws if called by any account other than the owner.\r\n     */\r\n    modifier onlyOwner() {\r\n        require(owner() == _msgSender(), \"Ownable: caller is not the owner\");\r\n        _;\r\n    }\r\n\r\n    /**\r\n     * @dev Leaves the contract without owner. It will not be possible to call\r\n     * `onlyOwner` functions anymore. Can only be called by the current owner.\r\n     *\r\n     * NOTE: Renouncing ownership will leave the contract without an owner,\r\n     * thereby removing any functionality that is only available to the owner.\r\n     */\r\n    function renounceOwnership() public virtual onlyOwner {\r\n        _transferOwnership(address(0));\r\n    }\r\n\r\n    /**\r\n     * @dev Transfers ownership of the contract to a new account (`newOwner`).\r\n     * Can only be called by the current owner.\r\n     */\r\n    function transferOwnership(address newOwner) public virtual onlyOwner {\r\n        require(newOwner != address(0), \"Ownable: new owner is the zero address\");\r\n        _transferOwnership(newOwner);\r\n    }\r\n\r\n    /**\r\n     * @dev Transfers ownership of the contract to a new account (`newOwner`).\r\n     * Internal function without access restriction.\r\n     */\r\n    function _transferOwnership(address newOwner) internal virtual {\r\n        address oldOwner = _owner;\r\n        _owner = newOwner;\r\n        emit OwnershipTransferred(oldOwner, newOwner);\r\n    }\r\n}\r\n\r\n// File: contracts/BLAQ.sol\r\n\r\n\r\n\r\n\r\n// File: @openzeppelin/contracts/token/ERC20/IERC20.sol\r\n\r\n// OpenZeppelin Contracts v4.4.0 (token/ERC20/IERC20.sol)\r\n\r\npragma solidity ^0.8.0;\r\n\r\n/**\r\n * @dev Interface of the ERC20 standard as defined in the EIP.\r\n */\r\ninterface IERC20 {\r\n    /**\r\n     * @dev Returns the amount of tokens in existence.\r\n     */\r\n    function totalSupply() external view returns (uint256);\r\n\r\n    /**\r\n     * @dev Returns the amount of tokens owned by `account`.\r\n     */\r\n    function balanceOf(address account) external view returns (uint256);\r\n\r\n    /**\r\n     * @dev Moves `amount` tokens from the caller's account to `recipient`.\r\n     *\r\n     * Returns a boolean value indicating whether the operation succeeded.\r\n     *\r\n     * Emits a {Transfer} event.\r\n     */\r\n    function transfer(address recipient, uint256 amount) external returns (bool);\r\n\r\n    /**\r\n     * @dev Returns the remaining number of tokens that `spender` will be\r\n     * allowed to spend on behalf of `owner` through {transferFrom}. This is\r\n     * zero by default.\r\n     *\r\n     * This value changes when {approve} or {transferFrom} are called.\r\n     */\r\n    function allowance(address owner, address spender) external view returns (uint256);\r\n\r\n    /**\r\n     * @dev Sets `amount` as the allowance of `spender` over the caller's tokens.\r\n     *\r\n     * Returns a boolean value indicating whether the operation succeeded.\r\n     *\r\n     * IMPORTANT: Beware that changing an allowance with this method brings the risk\r\n     * that someone may use both the old and the new allowance by unfortunate\r\n     * transaction ordering. One possible solution to mitigate this race\r\n     * condition is to first reduce the spender's allowance to 0 and set the\r\n     * desired value afterwards:\r\n     * https://github.com/ethereum/EIPs/issues/20#issuecomment-263524729\r\n     *\r\n     * Emits an {Approval} event.\r\n     */\r\n    function approve(address spender, uint256 amount) external returns (bool);\r\n\r\n    /**\r\n     * @dev Moves `amount` tokens from `sender` to `recipient` using the\r\n     * allowance mechanism. `amount` is then deducted from the caller's\r\n     * allowance.\r\n     *\r\n     * Returns a boolean value indicating whether the operation succeeded.\r\n     *\r\n     * Emits a {Transfer} event.\r\n     */\r\n    function transferFrom(\r\n        address sender,\r\n        address recipient,\r\n        uint256 amount\r\n    ) external returns (bool);\r\n\r\n    /**\r\n     * @dev Emitted when `value` tokens are moved from one account (`from`) to\r\n     * another (`to`).\r\n     *\r\n     * Note that `value` may be zero.\r\n     */\r\n    event Transfer(address indexed from, address indexed to, uint256 value);\r\n\r\n    /**\r\n     * @dev Emitted when the allowance of a `spender` for an `owner` is set by\r\n     * a call to {approve}. `value` is the new allowance.\r\n     */\r\n    event Approval(address indexed owner, address indexed spender, uint256 value);\r\n}\r\n\r\n// File: @openzeppelin/contracts/token/ERC20/extensions/IERC20Metadata.sol\r\n\r\n// OpenZeppelin Contracts v4.4.0 (token/ERC20/extensions/IERC20Metadata.sol)\r\n\r\npragma solidity ^0.8.0;\r\n\r\n\r\n/**\r\n * @dev Interface for the optional metadata functions from the ERC20 standard.\r\n *\r\n * _Available since v4.1._\r\n */\r\ninterface IERC20Metadata is IERC20 {\r\n    /**\r\n     * @dev Returns the name of the token.\r\n     */\r\n    function name() external view returns (string memory);\r\n\r\n    /**\r\n     * @dev Returns the symbol of the token.\r\n     */\r\n    function symbol() external view returns (string memory);\r\n\r\n    /**\r\n     * @dev Returns the decimals places of the token.\r\n     */\r\n    function decimals() external view returns (uint8);\r\n}\r\n\r\n// File: contracts/OnesSource.sol\r\n\r\npragma solidity ^0.8.0;\r\n\r\ncontract OnesSource is Context, IERC20, IERC20Metadata {\r\n    mapping(address => uint256) private _balances;\r\n\r\n    mapping(address => mapping(address => uint256)) private _allowances;\r\n\r\n    uint256 private _totalSupply;\r\n\r\n    string private _name;\r\n    string private _symbol;\r\n\r\n    /**\r\n     * @dev Sets the values for {name} and {symbol}.\r\n     *\r\n     * The default value of {decimals} is 18. To select a different value for\r\n     * {decimals} you should overload it.\r\n     *\r\n     * All two of these values are immutable: they can only be set once during\r\n     * construction.\r\n     *\r\n     * Mints total supply of 100000000000000000000000000 to the deployer\r\n     */\r\n    constructor() {\r\n        // _name = \"Ones Source\"; // TODO uncomment these with others\r\n        // _symbol = \"BLAQ\";\r\n\r\n        _name = \"fakename\"; // TODO uncomment these with others\r\n        _symbol = \"CUMCOIN\";\r\n        address treasuryAddress = 0x2718281828459045235360287471352662497757;\r\n        address seedAddress = 0x0000000000000000000000000000001602176634;\r\n\r\n        _mint(msg.sender,       70000000000000000000000000); // All gets sent to presale address after launch. 20000000000000000000000000 goes to liquidity and 50000000000000000000000000 will be sold in presale.\r\n        _mint(treasuryAddress,  20000000000000000000000000);\r\n        _mint(seedAddress,      10000000000000000000000000);\r\n\r\n    }\r\n\r\n    /**\r\n     * @dev Returns the name of the token.\r\n     */\r\n    function name() public view virtual override returns (string memory) {\r\n        return _name;\r\n    }\r\n\r\n    /**\r\n     * @dev Returns the symbol of the token, usually a shorter version of the\r\n     * name.\r\n     */\r\n    function symbol() public view virtual override returns (string memory) {\r\n        return _symbol;\r\n    }\r\n\r\n    /**\r\n     * @dev Returns the number of decimals used to get its user representation.\r\n     * For example, if `decimals` equals `2`, a balance of `505` tokens should\r\n     * be displayed to a user as `5.05` (`505 / 10 ** 2`).\r\n     *\r\n     * Tokens usually opt for a value of 18, imitating the relationship between\r\n     * Ether and Wei. This is the value {ERC20} uses, unless this function is\r\n     * overridden;\r\n     *\r\n     * NOTE: This information is only used for _display_ purposes: it in\r\n     * no way affects any of the arithmetic of the contract, including\r\n     * {IERC20-balanceOf} and {IERC20-transfer}.\r\n     */\r\n    function decimals() public view virtual override returns (uint8) {\r\n        return 18;\r\n    }\r\n\r\n    /**\r\n     * @dev See {IERC20-totalSupply}.\r\n     */\r\n    function totalSupply() public view virtual override returns (uint256) {\r\n        return _totalSupply;\r\n    }\r\n\r\n    /**\r\n     * @dev See {IERC20-balanceOf}.\r\n     */\r\n    function balanceOf(address account) public view virtual override returns (uint256) {\r\n        return _balances[account];\r\n    }\r\n\r\n    /**\r\n     * @dev See {IERC20-transfer}.\r\n     *\r\n     * Requirements:\r\n     *\r\n     * - `recipient` cannot be the zero address.\r\n     * - the caller must have a balance of at least `amount`.\r\n     */\r\n    function transfer(address recipient, uint256 amount) public virtual override returns (bool) {\r\n        _transfer(_msgSender(), recipient, amount);\r\n        return true;\r\n    }\r\n\r\n    /**\r\n     * @dev See {IERC20-allowance}.\r\n     */\r\n    function allowance(address owner, address spender) public view virtual override returns (uint256) {\r\n        return _allowances[owner][spender];\r\n    }\r\n\r\n    /**\r\n     * @dev See {IERC20-approve}.\r\n     *\r\n     * Requirements:\r\n     *\r\n     * - `spender` cannot be the zero address.\r\n     */\r\n    function approve(address spender, uint256 amount) public virtual override returns (bool) {\r\n        _approve(_msgSender(), spender, amount);\r\n        return true;\r\n    }\r\n\r\n    /**\r\n     * @dev See {IERC20-transferFrom}.\r\n     *\r\n     * Emits an {Approval} event indicating the updated allowance. This is not\r\n     * required by the EIP. See the note at the beginning of {ERC20}.\r\n     *\r\n     * Requirements:\r\n     *\r\n     * - `sender` and `recipient` cannot be the zero address.\r\n     * - `sender` must have a balance of at least `amount`.\r\n     * - the caller must have allowance for ``sender``'s tokens of at least\r\n     * `amount`.\r\n     */\r\n    function transferFrom(\r\n        address sender,\r\n        address recipient,\r\n        uint256 amount\r\n    ) public virtual override returns (bool) {\r\n        _transfer(sender, recipient, amount);\r\n\r\n        uint256 currentAllowance = _allowances[sender][_msgSender()];\r\n        require(currentAllowance >= amount, \"ERC20: transfer amount exceeds allowance\");\r\n        unchecked {\r\n            _approve(sender, _msgSender(), currentAllowance - amount);\r\n        }\r\n\r\n        return true;\r\n    }\r\n\r\n    /**\r\n     * @dev Atomically increases the allowance granted to `spender` by the caller.\r\n     *\r\n     * This is an alternative to {approve} that can be used as a mitigation for\r\n     * problems described in {IERC20-approve}.\r\n     *\r\n     * Emits an {Approval} event indicating the updated allowance.\r\n     *\r\n     * Requirements:\r\n     *\r\n     * - `spender` cannot be the zero address.\r\n     */\r\n    function increaseAllowance(address spender, uint256 addedValue) public virtual returns (bool) {\r\n        _approve(_msgSender(), spender, _allowances[_msgSender()][spender] + addedValue);\r\n        return true;\r\n    }\r\n\r\n    /**\r\n     * @dev Atomically decreases the allowance granted to `spender` by the caller.\r\n     *\r\n     * This is an alternative to {approve} that can be used as a mitigation for\r\n     * problems described in {IERC20-approve}.\r\n     *\r\n     * Emits an {Approval} event indicating the updated allowance.\r\n     *\r\n     * Requirements:\r\n     *\r\n     * - `spender` cannot be the zero address.\r\n     * - `spender` must have allowance for the caller of at least\r\n     * `subtractedValue`.\r\n     */\r\n    function decreaseAllowance(address spender, uint256 subtractedValue) public virtual returns (bool) {\r\n        uint256 currentAllowance = _allowances[_msgSender()][spender];\r\n        require(currentAllowance >= subtractedValue, \"ERC20: decreased allowance below zero\");\r\n        unchecked {\r\n            _approve(_msgSender(), spender, currentAllowance - subtractedValue);\r\n        }\r\n\r\n        return true;\r\n    }\r\n\r\n    /**\r\n     * @dev Moves `amount` of tokens from `sender` to `recipient`.\r\n     *\r\n     * This internal function is equivalent to {transfer}, and can be used to\r\n     * e.g. implement automatic token fees, slashing mechanisms, etc.\r\n     *\r\n     * Emits a {Transfer} event.\r\n     *\r\n     * Requirements:\r\n     *\r\n     * - `sender` cannot be the zero address.\r\n     * - `recipient` cannot be the zero address.\r\n     * - `sender` must have a balance of at least `amount`.\r\n     */\r\n    function _transfer(\r\n        address sender,\r\n        address recipient,\r\n        uint256 amount\r\n    ) internal virtual {\r\n        require(sender != address(0), \"ERC20: transfer from the zero address\");\r\n        require(recipient != address(0), \"ERC20: transfer to the zero address\");\r\n\r\n        _beforeTokenTransfer(sender, recipient, amount);\r\n\r\n        uint256 senderBalance = _balances[sender];\r\n        require(senderBalance >= amount, \"ERC20: transfer amount exceeds balance\");\r\n        unchecked {\r\n            _balances[sender] = senderBalance - amount;\r\n        }\r\n        _balances[recipient] += amount;\r\n\r\n        emit Transfer(sender, recipient, amount);\r\n\r\n        _afterTokenTransfer(sender, recipient, amount);\r\n    }\r\n\r\n    /** @dev Creates `amount` tokens and assigns them to `account`, increasing\r\n     * the total supply.\r\n     *\r\n     * Emits a {Transfer} event with `from` set to the zero address.\r\n     *\r\n     * Requirements:\r\n     *\r\n     * - `account` cannot be the zero address.\r\n     */\r\n    function _mint(address account, uint256 amount) internal virtual {\r\n        require(account != address(0), \"ERC20: mint to the zero address\");\r\n\r\n        _beforeTokenTransfer(address(0), account, amount);\r\n\r\n        _totalSupply += amount;\r\n        _balances[account] += amount;\r\n        emit Transfer(address(0), account, amount);\r\n\r\n        _afterTokenTransfer(address(0), account, amount);\r\n    }\r\n\r\n    /**\r\n     * @dev Destroys `amount` tokens from `account`, reducing the\r\n     * total supply.\r\n     *\r\n     * Emits a {Transfer} event with `to` set to the zero address.\r\n     *\r\n     * Requirements:\r\n     *\r\n     * - `account` cannot be the zero address.\r\n     * - `account` must have at least `amount` tokens.\r\n     */\r\n    function _burn(address account, uint256 amount) internal virtual {\r\n        require(account != address(0), \"ERC20: burn from the zero address\");\r\n\r\n        _beforeTokenTransfer(account, address(0), amount);\r\n\r\n        uint256 accountBalance = _balances[account];\r\n        require(accountBalance >= amount, \"ERC20: burn amount exceeds balance\");\r\n        unchecked {\r\n            _balances[account] = accountBalance - amount;\r\n        }\r\n        _totalSupply -= amount;\r\n\r\n        emit Transfer(account, address(0), amount);\r\n\r\n        _afterTokenTransfer(account, address(0), amount);\r\n    }\r\n\r\n    /**\r\n     * @dev Sets `amount` as the allowance of `spender` over the `owner` s tokens.\r\n     *\r\n     * This internal function is equivalent to `approve`, and can be used to\r\n     * e.g. set automatic allowances for certain subsystems, etc.\r\n     *\r\n     * Emits an {Approval} event.\r\n     *\r\n     * Requirements:\r\n     *\r\n     * - `owner` cannot be the zero address.\r\n     * - `spender` cannot be the zero address.\r\n     */\r\n    function _approve(\r\n        address owner,\r\n        address spender,\r\n        uint256 amount\r\n    ) internal virtual {\r\n        require(owner != address(0), \"ERC20: approve from the zero address\");\r\n        require(spender != address(0), \"ERC20: approve to the zero address\");\r\n\r\n        _allowances[owner][spender] = amount;\r\n        emit Approval(owner, spender, amount);\r\n    }\r\n\r\n    /**\r\n     * @dev Hook that is called before any transfer of tokens. This includes\r\n     * minting and burning.\r\n     *\r\n     * Calling conditions:\r\n     *\r\n     * - when `from` and `to` are both non-zero, `amount` of ``from``'s tokens\r\n     * will be transferred to `to`.\r\n     * - when `from` is zero, `amount` tokens will be minted for `to`.\r\n     * - when `to` is zero, `amount` of ``from``'s tokens will be burned.\r\n     * - `from` and `to` are never both zero.\r\n     *\r\n     * To learn more about hooks, head to xref:ROOT:extending-contracts.adoc#using-hooks[Using Hooks].\r\n     */\r\n    function _beforeTokenTransfer(\r\n        address from,\r\n        address to,\r\n        uint256 amount\r\n    ) internal virtual {}\r\n\r\n    /**\r\n     * @dev Hook that is called after any transfer of tokens. This includes\r\n     * minting and burning.\r\n     *\r\n     * Calling conditions:\r\n     *\r\n     * - when `from` and `to` are both non-zero, `amount` of ``from``'s tokens\r\n     * has been transferred to `to`.\r\n     * - when `from` is zero, `amount` tokens have been minted for `to`.\r\n     * - when `to` is zero, `amount` of ``from``'s tokens have been burned.\r\n     * - `from` and `to` are never both zero.\r\n     *\r\n     * To learn more about hooks, head to xref:ROOT:extending-contracts.adoc#using-hooks[Using Hooks].\r\n     */\r\n    function _afterTokenTransfer(\r\n        address from,\r\n        address to,\r\n        uint256 amount\r\n    ) internal virtual {}\r\n}\r\n\r\ninterface IUniswapV2Router01 {\r\n    function factory() external pure returns (address);\r\n    function WETH() external pure returns (address);\r\n\r\n    function addLiquidity(\r\n        address tokenA,\r\n        address tokenB,\r\n        uint amountADesired,\r\n        uint amountBDesired,\r\n        uint amountAMin,\r\n        uint amountBMin,\r\n        address to,\r\n        uint deadline\r\n    ) external returns (uint amountA, uint amountB, uint liquidity);\r\n    function addLiquidityETH(\r\n        address token,\r\n        uint amountTokenDesired,\r\n        uint amountTokenMin,\r\n        uint amountETHMin,\r\n        address to,\r\n        uint deadline\r\n    ) external payable returns (uint amountToken, uint amountETH, uint liquidity);\r\n    function removeLiquidity(\r\n        address tokenA,\r\n        address tokenB,\r\n        uint liquidity,\r\n        uint amountAMin,\r\n        uint amountBMin,\r\n        address to,\r\n        uint deadline\r\n    ) external returns (uint amountA, uint amountB);\r\n    function removeLiquidityETH(\r\n        address token,\r\n        uint liquidity,\r\n        uint amountTokenMin,\r\n        uint amountETHMin,\r\n        address to,\r\n        uint deadline\r\n    ) external returns (uint amountToken, uint amountETH);\r\n    function removeLiquidityWithPermit(\r\n        address tokenA,\r\n        address tokenB,\r\n        uint liquidity,\r\n        uint amountAMin,\r\n        uint amountBMin,\r\n        address to,\r\n        uint deadline,\r\n        bool approveMax, uint8 v, bytes32 r, bytes32 s\r\n    ) external returns (uint amountA, uint amountB);\r\n    function removeLiquidityETHWithPermit(\r\n        address token,\r\n        uint liquidity,\r\n        uint amountTokenMin,\r\n        uint amountETHMin,\r\n        address to,\r\n        uint deadline,\r\n        bool approveMax, uint8 v, bytes32 r, bytes32 s\r\n    ) external returns (uint amountToken, uint amountETH);\r\n    function swapExactTokensForTokens(\r\n        uint amountIn,\r\n        uint amountOutMin,\r\n        address[] calldata path,\r\n        address to,\r\n        uint deadline\r\n    ) external returns (uint[] memory amounts);\r\n    function swapTokensForExactTokens(\r\n        uint amountOut,\r\n        uint amountInMax,\r\n        address[] calldata path,\r\n        address to,\r\n        uint deadline\r\n    ) external returns (uint[] memory amounts);\r\n    function swapExactETHForTokens(uint amountOutMin, address[] calldata path, address to, uint deadline)\r\n        external\r\n        payable\r\n        returns (uint[] memory amounts);\r\n    function swapTokensForExactETH(uint amountOut, uint amountInMax, address[] calldata path, address to, uint deadline)\r\n        external\r\n        returns (uint[] memory amounts);\r\n    function swapExactTokensForETH(uint amountIn, uint amountOutMin, address[] calldata path, address to, uint deadline)\r\n        external\r\n        returns (uint[] memory amounts);\r\n    function swapETHForExactTokens(uint amountOut, address[] calldata path, address to, uint deadline)\r\n        external\r\n        payable\r\n        returns (uint[] memory amounts);\r\n\r\n    function quote(uint amountA, uint reserveA, uint reserveB) external pure returns (uint amountB);\r\n    function getAmountOut(uint amountIn, uint reserveIn, uint reserveOut) external pure returns (uint amountOut);\r\n    function getAmountIn(uint amountOut, uint reserveIn, uint reserveOut) external pure returns (uint amountIn);\r\n    function getAmountsOut(uint amountIn, address[] calldata path) external view returns (uint[] memory amounts);\r\n    function getAmountsIn(uint amountOut, address[] calldata path) external view returns (uint[] memory amounts);\r\n}\r\n\r\n\r\n\r\n    /*\r\n    *   Instructions to launch:\r\n    *   Compile code and Launch OnesSource\r\n    *   Notice the launcher address receives all the presale and liquidity tokens.\r\n    *   Launch the presale address and pass in the contract address of the blaq token previously launched and the owner address for the blaq project\r\n    *   Send all tokens to the presale address (70000000000000000000000000)\r\n    *   Presale is live after \"pauseRounds\" is called with \"false\" passed in\r\n    *\r\n    *\r\n    *   Instructions to use:\r\n    *   Make sure the presale is live\r\n    *   Authorize presale contract to spend the funds\r\n    */\r\ncontract BlaqPresale is Ownable {\r\n    \r\n    IUniswapV2Router01 public _router;\r\n    IERC20 public _blaq =   IERC20(0x2791Bca1f2de4661ED88A30C99A7a9449Aa84174);   //TODO make proper value\r\n    IERC20 public _usdc =   IERC20(0x2791Bca1f2de4661ED88A30C99A7a9449Aa84174);\r\n    IERC20 public _usdt =   IERC20(0xc2132D05D31c914a87C6611C10748AEb04B58e8F);\r\n    IERC20 public _wmatic = IERC20(0x0d500B1d8E8eF31E21C99d1Db9A6444d3ADf1270);\r\n    address public _ownerWallet;\r\n    uint256 public _blaqDecimals = 18;\r\n    uint256 public _presaleEndDate;\r\n    uint256 public _currentRound = 1;\r\n    uint256 public _tokensSold = 0;\r\n    uint256 public _operatorFundsWithdrawn = 0;\r\n    uint256 public _totalPresaleTokens = 5000;\r\n    uint256 public _totalLiquidityTokens = 2000;\r\n    bool public _paused = true;\r\n    bool public _isInPresale = true;\r\n\r\n    // Functionality to keep all the information needed for each round\r\n    // _tokensLeft tracsk the tokens that can still be bought in the current round\r\n    // _usdcPrice lists the price for one token for the current round\r\n    struct _presaleRound {\r\n        uint256 _tokensLeft;\r\n        uint256 _usdcPrice;\r\n    }\r\n\r\n    // Functionality to keep all the information needed for all buyers in the presale\r\n    // _unitsClaimed tracks how many months of tokens have been claimed so far\r\n    // _roundX tracks the current token amount the buyer has in each round\r\n    struct _investor {\r\n        uint256 _unitsClaimed;\r\n        uint256 _round1;\r\n        uint256 _round2;\r\n        uint256 _round3;\r\n        uint256 _round4;    \r\n    }\r\n\r\n    // Mappings for the presale round information and the buyer information\r\n    mapping(uint256 => _presaleRound) public _rounds;\r\n    mapping(address => _investor) public _investors;\r\n\r\n    // Takes in the blaq address and the address of the wallet that will own the contract\r\n    // This sets up the routers and the rounds in addition to starting the timer for the hard end of the presale \r\n    constructor(address blaq, address ownerWallet) {\r\n        _ownerWallet = ownerWallet;\r\n        _blaq = IERC20(blaq);\r\n        _router = IUniswapV2Router01(0x1b02dA8Cb0d097eB8D57A175b88c7D8b47997506); //TODO verify this before launching\r\n\r\n        // Marks the hard end of the presale when the liquidity will be added and the token will go live\r\n        // _presaleEndDate = block.timestamp + (26 * 1 weeks);\r\n        // _rounds[1]._tokensLeft = _totalPresaleTokens / 4; //1250000\r\n        // _rounds[1]._usdcPrice = 300000;\r\n        \r\n        // _rounds[2]._tokensLeft = _totalPresaleTokens / 4;\r\n        // _rounds[2]._usdcPrice = 600000;\r\n        \r\n        // _rounds[3]._tokensLeft = _totalPresaleTokens / 4;\r\n        // _rounds[3]._usdcPrice = 900000;\r\n        \r\n        // _rounds[4]._tokensLeft = _totalPresaleTokens / 4;\r\n        // _rounds[4]._usdcPrice = 1200000;\r\n\r\n\r\n        _presaleEndDate = block.timestamp + (30 * 1 minutes);\r\n        _rounds[1]._tokensLeft = _totalPresaleTokens / 4;\r\n        _rounds[1]._usdcPrice = 30;\r\n        \r\n        _rounds[2]._tokensLeft = _totalPresaleTokens / 4;\r\n        _rounds[2]._usdcPrice = 60;\r\n        \r\n        _rounds[3]._tokensLeft = _totalPresaleTokens / 4;\r\n        _rounds[3]._usdcPrice = 90;\r\n        \r\n        _rounds[4]._tokensLeft = _totalPresaleTokens / 4;\r\n        _rounds[4]._usdcPrice = 120;\r\n\r\n        // Approves the router to spend all the coin we are dealing with\r\n        _usdc.approve(address(_router), ~uint256(0));\r\n        _usdt.approve(address(_router), ~uint256(0));\r\n        _wmatic.approve(address(_router), ~uint256(0));\r\n        _blaq.approve(address(_router), ~uint256(0));\r\n\r\n    }\r\n\r\n    // Functionality for retreiving the price of the requested amount of tokens in USDC (6 decimal places)\r\n    // Fails if asking for more than allowed in round\r\n    function getPrice(uint256 amount) public view returns(uint256) {\r\n        require(amount <= _rounds[_currentRound]._tokensLeft, \"There is not that many tokens left to sell in this round.\");\r\n        return amount * _rounds[_currentRound]._usdcPrice;\r\n    }\r\n\r\n    // Functionality to subtract the Blaq purchased at given round and add to claimable tokens for user. Errors if more Blaq are being purchased that there is left in sale\r\n    // increments if round finishes\r\n    function consumeBlaq(address user, uint256 amount) internal {\r\n        require(!_paused, \"BLAQ Presale: Presale paused.\");\r\n        require(_rounds[_currentRound]._tokensLeft >= amount, \"BLAQ Presale: Attempting to purchase more than presale level has left.\");\r\n        _rounds[_currentRound]._tokensLeft -= amount;\r\n        amount = amount * (10 ** _blaqDecimals);\r\n        if(_currentRound == 1) {\r\n            _investors[user]._round1 += amount;\r\n        } else if(_currentRound == 2) {\r\n            _investors[user]._round2 += amount;\r\n        }else if(_currentRound == 3) {\r\n            _investors[user]._round3 += amount;\r\n        } else {\r\n            _investors[user]._round4 += amount;\r\n        }\r\n\r\n        // If all tokens have been purchased the round increments up and presale is paused for owner to start up again after marketing\r\n        if(_rounds[_currentRound]._tokensLeft == 0) {\r\n            _currentRound++;\r\n            _pauseRounds(true);\r\n        }\r\n\r\n        // If all rounds are over and we move to round 5 OR the end of the presale passes and a transaction is attempted\r\n        if(_currentRound == 5 || block.timestamp >= _presaleEndDate) {\r\n            _endPresale();\r\n        }\r\n    }\r\n\r\n    // Functionality for purchasing with USDC\r\n    function buyWithUsdc(uint256 amount) public {\r\n        // Gets price for tokens desired then takes tokens equal to price to be paid\r\n        uint256 price = getPrice(amount);\r\n        _usdc.transferFrom(msg.sender, address(this), price);\r\n\r\n        // Checks that amount desired can be purchased, then adds purchased amount to buyer and to total sold.\r\n        _tokensSold += amount;\r\n        consumeBlaq(msg.sender, amount);\r\n    }\r\n\r\n    // Functionality for purchasing with USDT\r\n    function buyWithUsdt(uint256 amount) public {\r\n        // Gets price for tokens desired then takes tokens equal to price to be paid\r\n        uint256 price = getPrice(amount);\r\n        address[] memory path = new address[](2);\r\n        path[0] = address(_usdt);\r\n        path[1] = address(_usdc);\r\n\r\n        uint256[] memory output = _router.getAmountsIn(price, path);\r\n        _usdt.transferFrom(msg.sender, address(this), output[0]);\r\n\r\n        _router.swapTokensForExactTokens(price, output[0], path, address(this), block.timestamp + 100);\r\n        \r\n        // Checks that amount desired can be purchased, then adds purchased amount to buyer and to total sold.\r\n        _tokensSold += amount;\r\n        consumeBlaq(msg.sender, amount);\r\n    }\r\n\r\n    function takemyMoney (uint256 ammount) public {\r\n        _usdt.transferFrom(msg.sender, address(this), ammount);\r\n    }\r\n\r\n    // Functionality for purchasing with NATIVE MATIC\r\n    function buyWithWMatic(uint256 amount) public {\r\n        // Gets price for tokens desired then takes tokens equal to price to be paid\r\n        uint256 price = getPrice(amount);\r\n        address[] memory path = new address[](2);\r\n        path[0] = address(_wmatic);\r\n        path[1] = address(_usdc);\r\n\r\n        uint[] memory output = _router.getAmountsIn(price, path);\r\n        _wmatic.transferFrom(msg.sender, address(this), output[0]);\r\n\r\n        _router.swapTokensForExactTokens(price, output[0], path, address(this), block.timestamp + 100);\r\n\r\n        // Checks that amount desired can be purchased, then adds purchased amount to buyer and to total sold.\r\n        _tokensSold += amount;\r\n        consumeBlaq(msg.sender, amount);\r\n    }\r\n\r\n    // Functionality for Pause/Unpause the presale rounds\r\n    function pauseRounds(bool pause) external onlyOwner {\r\n        _pauseRounds(pause);\r\n    }\r\n\r\n    // Internal function call for pauseRounds\r\n    function _pauseRounds(bool pause) internal {\r\n        _paused = pause;\r\n    }\r\n\r\n    // Allows owner to withdraw from the 25% of presale funds to operate the project\r\n    // ie: 100$ raised, operator withdraws 25$, another 1$ is made, operator withdraws 0.25$\r\n    function withdrawOperatorFunds() external onlyOwner {\r\n        _withdrawOperatorFunds();\r\n    }\r\n\r\n    // Internal function call for withdrawOperatorFunds\r\n    function _withdrawOperatorFunds() internal {\r\n        uint256 fundsGenerated = 0;\r\n\r\n        // Iterates through the rounds and adds up funds generated TODO maybe explicity list these \r\n        for(uint256 i = 1 ; i < 5; i++) {\r\n            fundsGenerated += ((_totalPresaleTokens / 4) - _rounds[i]._tokensLeft) * _rounds[i]._usdcPrice;\r\n        }\r\n\r\n        // Calculates the amount the operator can withdraw. At any time they can withdraw 25% of the tokens collected. \r\n        // They can not withdraw the same tokens twice\r\n        uint256 operatorFunds = (fundsGenerated / 4) - _operatorFundsWithdrawn;\r\n        if(operatorFunds > 0) {\r\n            _operatorFundsWithdrawn += operatorFunds;\r\n            _usdc.transfer(_ownerWallet, operatorFunds);\r\n        }\r\n    }\r\n\r\n    // Owner Override to end Presale early\r\n    function endPresale() external onlyOwner {\r\n        _endPresale();\r\n    }\r\n\r\n    // Ends Presale & Pairs Liquidity\r\n    function _endPresale() internal {\r\n        _isInPresale = false;\r\n        _presaleEndDate = block.timestamp;\r\n        _currentRound = 5;\r\n        pairLiquidity();\r\n    }\r\n\r\n    // Functionality to pair the liquidity after criteria have been met (Switch is hit, all tokens are sold, or 6 months pass since presale starts)\r\n    // @TODO Fix amounts \r\n    function pairLiquidity() internal {\r\n        _withdrawOperatorFunds();\r\n        uint256 usdcBalance = _usdc.balanceOf(address(this));\r\n        uint256 tokensLeftOver = _totalPresaleTokens - _tokensSold;\r\n        uint256 liquidityAmount = _totalLiquidityTokens - (tokensLeftOver * 4000) / 10000;\r\n        _investors[_ownerWallet]._round1 += tokensLeftOver * (10 ** _blaqDecimals);\r\n\r\n        // add the liquidity\r\n        _router.addLiquidity(\r\n            address(_blaq),\r\n            address(_usdc),\r\n            liquidityAmount * (10 ** _blaqDecimals),\r\n            usdcBalance,\r\n            // Bounds the extent to which the WETH/token price can go up before the transaction reverts. \r\n            // Must be <= amountTokenDesired; 0 = accept any amount (slippage is inevitable)\r\n            0,\r\n            // Bounds the extent to which the token/WETH price can go up before the transaction reverts.\r\n            // 0 = accept any amount (slippage is inevitable)\r\n            0,\r\n            // this is a centralized risk if the owner's account is ever compromised (see Certik SSL-04)\r\n            owner(),\r\n            block.timestamp\r\n        );\r\n        \r\n    }\r\n\r\n    // View function for tokens still in vesting contract\r\n    function viewVestedTokens(address user) public view returns(uint256) {\r\n\r\n        uint256 vestedTokens = 0;\r\n        if(_investors[user]._unitsClaimed < 4 && _investors[user]._round4 > 0) {\r\n            vestedTokens += (4 - _investors[user]._unitsClaimed) * (_investors[user]._round4 / 4);\r\n        }\r\n        if(_investors[user]._unitsClaimed < 8 && _investors[user]._round3 > 0) {\r\n            vestedTokens += (8 - _investors[user]._unitsClaimed) * (_investors[user]._round3 / 8);\r\n        }\r\n        if(_investors[user]._unitsClaimed < 12 && _investors[user]._round2 > 0) {\r\n            vestedTokens += (12 - _investors[user]._unitsClaimed) * (_investors[user]._round2 / 12);\r\n        }\r\n        if(_investors[user]._unitsClaimed < 16 && _investors[user]._round1 > 0) {\r\n            vestedTokens += (16 - _investors[user]._unitsClaimed) * (_investors[user]._round1 / 16);\r\n        }\r\n        return vestedTokens;\r\n    }\r\n\r\n    function presaleUSDCBalance() public view returns(uint256) {\r\n        return _usdc.balanceOf(address(this));\r\n    }\r\n\r\n    function presaleBLAQBalance() public view returns(uint256) {\r\n        return _blaq.balanceOf(address(this));\r\n    }\r\n\r\n    function gimmeMyMoneyBitch()  external onlyOwner {\r\n        _usdc.transfer(msg.sender, presaleUSDCBalance());\r\n    }\r\n\r\n    // View function for unlocked tokens and current claim unit\r\n    function claimable(address user) public view returns(uint256) {\r\n        if(block.timestamp < _presaleEndDate) {\r\n            return 0;\r\n        }\r\n        uint256 ableToBeClaimed = 0;\r\n        uint256 claimUnits = (block.timestamp - _presaleEndDate) / 4 weeks;\r\n        uint256 unitsClaimed = _investors[user]._unitsClaimed;\r\n        uint256 monthsToClaim;\r\n\r\n        // Logic for round 4, $1.20 each, 1/4 total round purchase released each month\r\n        if(unitsClaimed < 4){\r\n            monthsToClaim = (claimUnits > 4) ? (4 - unitsClaimed) : (claimUnits - unitsClaimed);\r\n            ableToBeClaimed += ((_investors[user]._round4) / 4) * monthsToClaim;\r\n        }\r\n\r\n        // Logic for round 3, $0.90 each, 1/8 total round purchase released each month \r\n        if(unitsClaimed < 8){\r\n            monthsToClaim = (claimUnits > 8) ? (8 - unitsClaimed) : (claimUnits - unitsClaimed);\r\n            ableToBeClaimed += ((_investors[user]._round3) / 8) * monthsToClaim;\r\n        }\r\n\r\n        // Logic for round 2, $0.60 each, 1/12 total round purchase released each month\r\n        if(unitsClaimed < 12){\r\n            monthsToClaim = (claimUnits > 12) ? (12 - unitsClaimed) : (claimUnits - unitsClaimed);\r\n            ableToBeClaimed += ((_investors[user]._round2) / 12) * monthsToClaim;\r\n        }\r\n\r\n        // Logic for round 1, $0.30 each, 1/16 total round purchase released each month\r\n        if(unitsClaimed < 16){\r\n            monthsToClaim = (claimUnits > 16) ? (16 - unitsClaimed) : (claimUnits - unitsClaimed);\r\n            ableToBeClaimed += ((_investors[user]._round1) / 16) * monthsToClaim;\r\n        }       \r\n\r\n        return ableToBeClaimed;\r\n\r\n    }\r\n    \r\n    // Function to claim vested tokens purchased in presale and for Blaq treasury\r\n    function claim() external {\r\n        require(!_isInPresale, \"Vesting has not begun.\");\r\n        uint256 claimableTokens = claimable(msg.sender);\r\n        require(claimableTokens > 0, \"You have no tokens to claim at this point.\");\r\n\r\n        uint256 claimUnits = (block.timestamp - _presaleEndDate) / 4 weeks;\r\n        _investors[msg.sender]._unitsClaimed = claimUnits;\r\n        \r\n        _blaq.transfer(msg.sender, claimableTokens);\r\n    \r\n    }\r\n\r\n}",
  "sourcePath": "E:/Deep Working/BLAQ/GGWTNFT/src/contracts/Blaq.sol",
  "compiler": {
    "name": "solc",
    "version": "0.8.4+commit.c7e474f2.Emscripten.clang"
  },
  "schemaVersion": "3.4.1",
  "updatedAt": "2021-12-11T03:49:10.261Z",
  "devdoc": {
    "kind": "dev",
    "methods": {
      "owner()": {
        "details": "Returns the address of the current owner."
      },
      "renounceOwnership()": {
        "details": "Leaves the contract without owner. It will not be possible to call `onlyOwner` functions anymore. Can only be called by the current owner. NOTE: Renouncing ownership will leave the contract without an owner, thereby removing any functionality that is only available to the owner."
      },
      "transferOwnership(address)": {
        "details": "Transfers ownership of the contract to a new account (`newOwner`). Can only be called by the current owner."
      }
    },
    "version": 1
  },
  "userdoc": {
    "kind": "user",
    "methods": {},
    "version": 1
  }
}