{
  "contractName": "ProjectDraca",
  "abi": [
    {
      "inputs": [
        {
          "internalType": "string",
          "name": "_name",
          "type": "string"
        },
        {
          "internalType": "string",
          "name": "_symbol",
          "type": "string"
        },
        {
          "internalType": "string",
          "name": "_initNotRevealedUri",
          "type": "string"
        },
        {
          "internalType": "address",
          "name": "_feeCollector",
          "type": "address"
        }
      ],
      "stateMutability": "nonpayable",
      "type": "constructor"
    },
    {
      "anonymous": false,
      "inputs": [
        {
          "indexed": true,
          "internalType": "address",
          "name": "owner",
          "type": "address"
        },
        {
          "indexed": true,
          "internalType": "address",
          "name": "approved",
          "type": "address"
        },
        {
          "indexed": true,
          "internalType": "uint256",
          "name": "tokenId",
          "type": "uint256"
        }
      ],
      "name": "Approval",
      "type": "event"
    },
    {
      "anonymous": false,
      "inputs": [
        {
          "indexed": true,
          "internalType": "address",
          "name": "owner",
          "type": "address"
        },
        {
          "indexed": true,
          "internalType": "address",
          "name": "operator",
          "type": "address"
        },
        {
          "indexed": false,
          "internalType": "bool",
          "name": "approved",
          "type": "bool"
        }
      ],
      "name": "ApprovalForAll",
      "type": "event"
    },
    {
      "anonymous": false,
      "inputs": [
        {
          "indexed": true,
          "internalType": "address",
          "name": "previousOwner",
          "type": "address"
        },
        {
          "indexed": true,
          "internalType": "address",
          "name": "newOwner",
          "type": "address"
        }
      ],
      "name": "OwnershipTransferred",
      "type": "event"
    },
    {
      "anonymous": false,
      "inputs": [
        {
          "indexed": true,
          "internalType": "address",
          "name": "from",
          "type": "address"
        },
        {
          "indexed": true,
          "internalType": "address",
          "name": "to",
          "type": "address"
        },
        {
          "indexed": true,
          "internalType": "uint256",
          "name": "tokenId",
          "type": "uint256"
        }
      ],
      "name": "Transfer",
      "type": "event"
    },
    {
      "inputs": [
        {
          "internalType": "address",
          "name": "",
          "type": "address"
        }
      ],
      "name": "addressMintedBalance",
      "outputs": [
        {
          "internalType": "uint256",
          "name": "",
          "type": "uint256"
        }
      ],
      "stateMutability": "view",
      "type": "function"
    },
    {
      "inputs": [
        {
          "internalType": "address",
          "name": "to",
          "type": "address"
        },
        {
          "internalType": "uint256",
          "name": "tokenId",
          "type": "uint256"
        }
      ],
      "name": "approve",
      "outputs": [],
      "stateMutability": "nonpayable",
      "type": "function"
    },
    {
      "inputs": [
        {
          "internalType": "address",
          "name": "owner",
          "type": "address"
        }
      ],
      "name": "balanceOf",
      "outputs": [
        {
          "internalType": "uint256",
          "name": "",
          "type": "uint256"
        }
      ],
      "stateMutability": "view",
      "type": "function"
    },
    {
      "inputs": [],
      "name": "baseExtension",
      "outputs": [
        {
          "internalType": "string",
          "name": "",
          "type": "string"
        }
      ],
      "stateMutability": "view",
      "type": "function"
    },
    {
      "inputs": [],
      "name": "baseURI",
      "outputs": [
        {
          "internalType": "string",
          "name": "",
          "type": "string"
        }
      ],
      "stateMutability": "view",
      "type": "function"
    },
    {
      "inputs": [],
      "name": "cost",
      "outputs": [
        {
          "internalType": "uint256",
          "name": "",
          "type": "uint256"
        }
      ],
      "stateMutability": "view",
      "type": "function"
    },
    {
      "inputs": [],
      "name": "feeCollector",
      "outputs": [
        {
          "internalType": "address",
          "name": "",
          "type": "address"
        }
      ],
      "stateMutability": "view",
      "type": "function"
    },
    {
      "inputs": [
        {
          "internalType": "uint256",
          "name": "tokenId",
          "type": "uint256"
        }
      ],
      "name": "getApproved",
      "outputs": [
        {
          "internalType": "address",
          "name": "",
          "type": "address"
        }
      ],
      "stateMutability": "view",
      "type": "function"
    },
    {
      "inputs": [
        {
          "internalType": "uint256",
          "name": "",
          "type": "uint256"
        }
      ],
      "name": "idToValue",
      "outputs": [
        {
          "internalType": "uint256",
          "name": "",
          "type": "uint256"
        }
      ],
      "stateMutability": "view",
      "type": "function"
    },
    {
      "inputs": [
        {
          "internalType": "address",
          "name": "owner",
          "type": "address"
        },
        {
          "internalType": "address",
          "name": "operator",
          "type": "address"
        }
      ],
      "name": "isApprovedForAll",
      "outputs": [
        {
          "internalType": "bool",
          "name": "",
          "type": "bool"
        }
      ],
      "stateMutability": "view",
      "type": "function"
    },
    {
      "inputs": [],
      "name": "maxMintAmount",
      "outputs": [
        {
          "internalType": "uint256",
          "name": "",
          "type": "uint256"
        }
      ],
      "stateMutability": "view",
      "type": "function"
    },
    {
      "inputs": [],
      "name": "maxSupply",
      "outputs": [
        {
          "internalType": "uint256",
          "name": "",
          "type": "uint256"
        }
      ],
      "stateMutability": "view",
      "type": "function"
    },
    {
      "inputs": [],
      "name": "name",
      "outputs": [
        {
          "internalType": "string",
          "name": "",
          "type": "string"
        }
      ],
      "stateMutability": "view",
      "type": "function"
    },
    {
      "inputs": [],
      "name": "nftPerAddressLimit",
      "outputs": [
        {
          "internalType": "uint256",
          "name": "",
          "type": "uint256"
        }
      ],
      "stateMutability": "view",
      "type": "function"
    },
    {
      "inputs": [],
      "name": "notRevealedUri",
      "outputs": [
        {
          "internalType": "string",
          "name": "",
          "type": "string"
        }
      ],
      "stateMutability": "view",
      "type": "function"
    },
    {
      "inputs": [],
      "name": "onlyWhitelisted",
      "outputs": [
        {
          "internalType": "bool",
          "name": "",
          "type": "bool"
        }
      ],
      "stateMutability": "view",
      "type": "function"
    },
    {
      "inputs": [],
      "name": "owner",
      "outputs": [
        {
          "internalType": "address",
          "name": "",
          "type": "address"
        }
      ],
      "stateMutability": "view",
      "type": "function"
    },
    {
      "inputs": [
        {
          "internalType": "uint256",
          "name": "tokenId",
          "type": "uint256"
        }
      ],
      "name": "ownerOf",
      "outputs": [
        {
          "internalType": "address",
          "name": "",
          "type": "address"
        }
      ],
      "stateMutability": "view",
      "type": "function"
    },
    {
      "inputs": [],
      "name": "paused",
      "outputs": [
        {
          "internalType": "bool",
          "name": "",
          "type": "bool"
        }
      ],
      "stateMutability": "view",
      "type": "function"
    },
    {
      "inputs": [],
      "name": "renounceOwnership",
      "outputs": [],
      "stateMutability": "nonpayable",
      "type": "function"
    },
    {
      "inputs": [],
      "name": "revealed",
      "outputs": [
        {
          "internalType": "bool",
          "name": "",
          "type": "bool"
        }
      ],
      "stateMutability": "view",
      "type": "function"
    },
    {
      "inputs": [
        {
          "internalType": "address",
          "name": "from",
          "type": "address"
        },
        {
          "internalType": "address",
          "name": "to",
          "type": "address"
        },
        {
          "internalType": "uint256",
          "name": "tokenId",
          "type": "uint256"
        }
      ],
      "name": "safeTransferFrom",
      "outputs": [],
      "stateMutability": "nonpayable",
      "type": "function"
    },
    {
      "inputs": [
        {
          "internalType": "address",
          "name": "from",
          "type": "address"
        },
        {
          "internalType": "address",
          "name": "to",
          "type": "address"
        },
        {
          "internalType": "uint256",
          "name": "tokenId",
          "type": "uint256"
        },
        {
          "internalType": "bytes",
          "name": "_data",
          "type": "bytes"
        }
      ],
      "name": "safeTransferFrom",
      "outputs": [],
      "stateMutability": "nonpayable",
      "type": "function"
    },
    {
      "inputs": [
        {
          "internalType": "address",
          "name": "operator",
          "type": "address"
        },
        {
          "internalType": "bool",
          "name": "approved",
          "type": "bool"
        }
      ],
      "name": "setApprovalForAll",
      "outputs": [],
      "stateMutability": "nonpayable",
      "type": "function"
    },
    {
      "inputs": [
        {
          "internalType": "bytes4",
          "name": "interfaceId",
          "type": "bytes4"
        }
      ],
      "name": "supportsInterface",
      "outputs": [
        {
          "internalType": "bool",
          "name": "",
          "type": "bool"
        }
      ],
      "stateMutability": "view",
      "type": "function"
    },
    {
      "inputs": [],
      "name": "symbol",
      "outputs": [
        {
          "internalType": "string",
          "name": "",
          "type": "string"
        }
      ],
      "stateMutability": "view",
      "type": "function"
    },
    {
      "inputs": [
        {
          "internalType": "uint256",
          "name": "index",
          "type": "uint256"
        }
      ],
      "name": "tokenByIndex",
      "outputs": [
        {
          "internalType": "uint256",
          "name": "",
          "type": "uint256"
        }
      ],
      "stateMutability": "view",
      "type": "function"
    },
    {
      "inputs": [
        {
          "internalType": "address",
          "name": "owner",
          "type": "address"
        },
        {
          "internalType": "uint256",
          "name": "index",
          "type": "uint256"
        }
      ],
      "name": "tokenOfOwnerByIndex",
      "outputs": [
        {
          "internalType": "uint256",
          "name": "",
          "type": "uint256"
        }
      ],
      "stateMutability": "view",
      "type": "function"
    },
    {
      "inputs": [],
      "name": "totalSupply",
      "outputs": [
        {
          "internalType": "uint256",
          "name": "",
          "type": "uint256"
        }
      ],
      "stateMutability": "view",
      "type": "function"
    },
    {
      "inputs": [
        {
          "internalType": "address",
          "name": "from",
          "type": "address"
        },
        {
          "internalType": "address",
          "name": "to",
          "type": "address"
        },
        {
          "internalType": "uint256",
          "name": "tokenId",
          "type": "uint256"
        }
      ],
      "name": "transferFrom",
      "outputs": [],
      "stateMutability": "nonpayable",
      "type": "function"
    },
    {
      "inputs": [
        {
          "internalType": "address",
          "name": "newOwner",
          "type": "address"
        }
      ],
      "name": "transferOwnership",
      "outputs": [],
      "stateMutability": "nonpayable",
      "type": "function"
    },
    {
      "inputs": [
        {
          "internalType": "uint256",
          "name": "",
          "type": "uint256"
        }
      ],
      "name": "usedValues",
      "outputs": [
        {
          "internalType": "bool",
          "name": "",
          "type": "bool"
        }
      ],
      "stateMutability": "view",
      "type": "function"
    },
    {
      "inputs": [
        {
          "internalType": "uint256",
          "name": "",
          "type": "uint256"
        }
      ],
      "name": "whitelistedAddresses",
      "outputs": [
        {
          "internalType": "address",
          "name": "",
          "type": "address"
        }
      ],
      "stateMutability": "view",
      "type": "function"
    },
    {
      "inputs": [],
      "name": "random",
      "outputs": [
        {
          "internalType": "uint256",
          "name": "_pRandom",
          "type": "uint256"
        }
      ],
      "stateMutability": "nonpayable",
      "type": "function"
    },
    {
      "inputs": [
        {
          "internalType": "uint256",
          "name": "_mintAmount",
          "type": "uint256"
        }
      ],
      "name": "mint",
      "outputs": [],
      "stateMutability": "payable",
      "type": "function"
    },
    {
      "inputs": [
        {
          "internalType": "address",
          "name": "_user",
          "type": "address"
        }
      ],
      "name": "isWhitelisted",
      "outputs": [
        {
          "internalType": "bool",
          "name": "",
          "type": "bool"
        }
      ],
      "stateMutability": "view",
      "type": "function"
    },
    {
      "inputs": [
        {
          "internalType": "address",
          "name": "_owner",
          "type": "address"
        }
      ],
      "name": "walletOfOwner",
      "outputs": [
        {
          "internalType": "uint256[]",
          "name": "",
          "type": "uint256[]"
        }
      ],
      "stateMutability": "view",
      "type": "function"
    },
    {
      "inputs": [
        {
          "internalType": "uint256",
          "name": "tokenId",
          "type": "uint256"
        }
      ],
      "name": "tokenURI",
      "outputs": [
        {
          "internalType": "string",
          "name": "",
          "type": "string"
        }
      ],
      "stateMutability": "view",
      "type": "function"
    },
    {
      "inputs": [],
      "name": "reveal",
      "outputs": [],
      "stateMutability": "nonpayable",
      "type": "function"
    },
    {
      "inputs": [
        {
          "internalType": "uint256",
          "name": "_limit",
          "type": "uint256"
        }
      ],
      "name": "setNftPerAddressLimit",
      "outputs": [],
      "stateMutability": "nonpayable",
      "type": "function"
    },
    {
      "inputs": [
        {
          "internalType": "uint256",
          "name": "_newCost",
          "type": "uint256"
        }
      ],
      "name": "setCost",
      "outputs": [],
      "stateMutability": "nonpayable",
      "type": "function"
    },
    {
      "inputs": [
        {
          "internalType": "uint256",
          "name": "_newmaxMintAmount",
          "type": "uint256"
        }
      ],
      "name": "setmaxMintAmount",
      "outputs": [],
      "stateMutability": "nonpayable",
      "type": "function"
    },
    {
      "inputs": [
        {
          "internalType": "string",
          "name": "_newBaseURI",
          "type": "string"
        }
      ],
      "name": "setBaseURI",
      "outputs": [],
      "stateMutability": "nonpayable",
      "type": "function"
    },
    {
      "inputs": [
        {
          "internalType": "string",
          "name": "_newBaseExtension",
          "type": "string"
        }
      ],
      "name": "setBaseExtension",
      "outputs": [],
      "stateMutability": "nonpayable",
      "type": "function"
    },
    {
      "inputs": [
        {
          "internalType": "string",
          "name": "_notRevealedURI",
          "type": "string"
        }
      ],
      "name": "setNotRevealedURI",
      "outputs": [],
      "stateMutability": "nonpayable",
      "type": "function"
    },
    {
      "inputs": [
        {
          "internalType": "bool",
          "name": "_state",
          "type": "bool"
        }
      ],
      "name": "pause",
      "outputs": [],
      "stateMutability": "nonpayable",
      "type": "function"
    },
    {
      "inputs": [],
      "name": "mintLegends",
      "outputs": [],
      "stateMutability": "nonpayable",
      "type": "function"
    },
    {
      "inputs": [
        {
          "internalType": "bool",
          "name": "_state",
          "type": "bool"
        }
      ],
      "name": "setOnlyWhitelisted",
      "outputs": [],
      "stateMutability": "nonpayable",
      "type": "function"
    },
    {
      "inputs": [
        {
          "internalType": "address[]",
          "name": "_users",
          "type": "address[]"
        }
      ],
      "name": "whitelistUsers",
      "outputs": [],
      "stateMutability": "nonpayable",
      "type": "function"
    },
    {
      "inputs": [],
      "name": "withdraw",
      "outputs": [],
      "stateMutability": "payable",
      "type": "function"
    }
  ],
  "bytecode": "0x60806040526040518060400160405280600581526020017f2e6a736f6e000000000000000000000000000000000000000000000000000000815250600c90805190602001906200005192919062000342565b506000600e556103e4600f556103e86010556103e86011556000601260006101000a81548160ff0219169083151502179055506000601260016101000a81548160ff0219169083151502179055506000601260026101000a81548160ff021916908315150217905550348015620000c757600080fd5b5060405162005e2238038062005e228339818101604052810190620000ed91906200047b565b838381600090805190602001906200010792919062000342565b5080600190805190602001906200012092919062000342565b50505062000143620001376200019f60201b60201c565b620001a760201b60201c565b62000154826200026d60201b60201c565b80601260036101000a81548173ffffffffffffffffffffffffffffffffffffffff021916908373ffffffffffffffffffffffffffffffffffffffff1602179055505050505062000773565b600033905090565b6000600a60009054906101000a900473ffffffffffffffffffffffffffffffffffffffff16905081600a60006101000a81548173ffffffffffffffffffffffffffffffffffffffff021916908373ffffffffffffffffffffffffffffffffffffffff1602179055508173ffffffffffffffffffffffffffffffffffffffff168173ffffffffffffffffffffffffffffffffffffffff167f8be0079c531659141344cd1fd0a4f28419497f9722a3daafe3b4186f6b6457e060405160405180910390a35050565b6200027d6200019f60201b60201c565b73ffffffffffffffffffffffffffffffffffffffff16620002a36200031860201b60201c565b73ffffffffffffffffffffffffffffffffffffffff1614620002fc576040517f08c379a0000000000000000000000000000000000000000000000000000000008152600401620002f39062000559565b60405180910390fd5b80600d90805190602001906200031492919062000342565b5050565b6000600a60009054906101000a900473ffffffffffffffffffffffffffffffffffffffff16905090565b828054620003509062000655565b90600052602060002090601f016020900481019282620003745760008555620003c0565b82601f106200038f57805160ff1916838001178555620003c0565b82800160010185558215620003c0579182015b82811115620003bf578251825591602001919060010190620003a2565b5b509050620003cf9190620003d3565b5090565b5b80821115620003ee576000816000905550600101620003d4565b5090565b6000620004096200040384620005a4565b6200057b565b9050828152602081018484840111156200042257600080fd5b6200042f8482856200061f565b509392505050565b600081519050620004488162000759565b92915050565b600082601f8301126200046057600080fd5b815162000472848260208601620003f2565b91505092915050565b600080600080608085870312156200049257600080fd5b600085015167ffffffffffffffff811115620004ad57600080fd5b620004bb878288016200044e565b945050602085015167ffffffffffffffff811115620004d957600080fd5b620004e7878288016200044e565b935050604085015167ffffffffffffffff8111156200050557600080fd5b62000513878288016200044e565b9250506060620005268782880162000437565b91505092959194509250565b600062000541602083620005da565b91506200054e8262000730565b602082019050919050565b60006020820190508181036000830152620005748162000532565b9050919050565b6000620005876200059a565b90506200059582826200068b565b919050565b6000604051905090565b600067ffffffffffffffff821115620005c257620005c1620006f0565b5b620005cd826200071f565b9050602081019050919050565b600082825260208201905092915050565b6000620005f882620005ff565b9050919050565b600073ffffffffffffffffffffffffffffffffffffffff82169050919050565b60005b838110156200063f57808201518184015260208101905062000622565b838111156200064f576000848401525b50505050565b600060028204905060018216806200066e57607f821691505b60208210811415620006855762000684620006c1565b5b50919050565b62000696826200071f565b810181811067ffffffffffffffff82111715620006b857620006b7620006f0565b5b80604052505050565b7f4e487b7100000000000000000000000000000000000000000000000000000000600052602260045260246000fd5b7f4e487b7100000000000000000000000000000000000000000000000000000000600052604160045260246000fd5b6000601f19601f8301169050919050565b7f4f776e61626c653a2063616c6c6572206973206e6f7420746865206f776e6572600082015250565b6200076481620005eb565b81146200077057600080fd5b50565b61569f80620007836000396000f3fe6080604052600436106102c95760003560e01c80636c0360eb11610175578063b88d4fde116100dc578063d0eb26b011610095578063e985e9c51161006f578063e985e9c514610aee578063edec5f2714610b2b578063f2c4ce1e14610b54578063f2fde38b14610b7d576102c9565b8063d0eb26b014610a71578063d5abeb0114610a9a578063da3ef23f14610ac5576102c9565b8063b88d4fde1461094d578063ba4e5c4914610976578063ba7d2c76146109b3578063c415b95c146109de578063c668286214610a09578063c87b56dd14610a34576102c9565b806395d89b411161012e57806395d89b41146108845780639c70b512146108af578063a03cd6a3146108da578063a0712d68146108f1578063a22cb4651461090d578063a475b5dd14610936576102c9565b80636c0360eb146107745780636caa14691461079f57806370a08231146107dc578063715018a6146108195780637f00c7a6146108305780638da5cb5b14610859576102c9565b80633af32abf116102345780634f6ccce7116101ed57806355f804b3116101c757806355f804b3146106b85780635c975abb146106e15780635ec01e4d1461070c5780636352211e14610737576102c9565b80634f6ccce714610613578063508e6de014610650578063518302271461068d576102c9565b80633af32abf146105145780633c952764146105515780633ccfd60b1461057a57806342842e0e14610584578063438b6300146105ad57806344a0d68a146105ea576102c9565b806313faede61161028657806313faede6146103f057806318160ddd1461041b57806318cae26914610446578063239c70ae1461048357806323b872dd146104ae5780632f745c59146104d7576102c9565b806301ffc9a7146102ce57806302329a291461030b57806306fdde0314610334578063081812fc1461035f578063081c8c441461039c578063095ea7b3146103c7575b600080fd5b3480156102da57600080fd5b506102f560048036038101906102f09190613f92565b610ba6565b60405161030291906146f6565b60405180910390f35b34801561031757600080fd5b50610332600480360381019061032d9190613f69565b610c20565b005b34801561034057600080fd5b50610349610cb9565b6040516103569190614711565b60405180910390f35b34801561036b57600080fd5b5061038660048036038101906103819190614025565b610d4b565b604051610393919061466d565b60405180910390f35b3480156103a857600080fd5b506103b1610dd0565b6040516103be9190614711565b60405180910390f35b3480156103d357600080fd5b506103ee60048036038101906103e99190613ee8565b610e5e565b005b3480156103fc57600080fd5b50610405610f76565b6040516104129190614a73565b60405180910390f35b34801561042757600080fd5b50610430610f7c565b60405161043d9190614a73565b60405180910390f35b34801561045257600080fd5b5061046d60048036038101906104689190613d7d565b610f89565b60405161047a9190614a73565b60405180910390f35b34801561048f57600080fd5b50610498610fa1565b6040516104a59190614a73565b60405180910390f35b3480156104ba57600080fd5b506104d560048036038101906104d09190613de2565b610fa7565b005b3480156104e357600080fd5b506104fe60048036038101906104f99190613ee8565b611007565b60405161050b9190614a73565b60405180910390f35b34801561052057600080fd5b5061053b60048036038101906105369190613d7d565b6110ac565b60405161054891906146f6565b60405180910390f35b34801561055d57600080fd5b5061057860048036038101906105739190613f69565b611181565b005b61058261121a565b005b34801561059057600080fd5b506105ab60048036038101906105a69190613de2565b611331565b005b3480156105b957600080fd5b506105d460048036038101906105cf9190613d7d565b611351565b6040516105e191906146d4565b60405180910390f35b3480156105f657600080fd5b50610611600480360381019061060c9190614025565b61144b565b005b34801561061f57600080fd5b5061063a60048036038101906106359190614025565b6114d1565b6040516106479190614a73565b60405180910390f35b34801561065c57600080fd5b5061067760048036038101906106729190614025565b611568565b6040516106849190614a73565b60405180910390f35b34801561069957600080fd5b506106a2611580565b6040516106af91906146f6565b60405180910390f35b3480156106c457600080fd5b506106df60048036038101906106da9190613fe4565b611593565b005b3480156106ed57600080fd5b506106f6611629565b60405161070391906146f6565b60405180910390f35b34801561071857600080fd5b5061072161163c565b60405161072e9190614a73565b60405180910390f35b34801561074357600080fd5b5061075e60048036038101906107599190614025565b611729565b60405161076b919061466d565b60405180910390f35b34801561078057600080fd5b506107896117db565b6040516107969190614711565b60405180910390f35b3480156107ab57600080fd5b506107c660048036038101906107c19190614025565b611869565b6040516107d391906146f6565b60405180910390f35b3480156107e857600080fd5b5061080360048036038101906107fe9190613d7d565b611889565b6040516108109190614a73565b60405180910390f35b34801561082557600080fd5b5061082e611941565b005b34801561083c57600080fd5b5061085760048036038101906108529190614025565b6119c9565b005b34801561086557600080fd5b5061086e611a4f565b60405161087b919061466d565b60405180910390f35b34801561089057600080fd5b50610899611a79565b6040516108a69190614711565b60405180910390f35b3480156108bb57600080fd5b506108c4611b0b565b6040516108d191906146f6565b60405180910390f35b3480156108e657600080fd5b506108ef611b1e565b005b61090b60048036038101906109069190614025565b611c4c565b005b34801561091957600080fd5b50610934600480360381019061092f9190613eac565b61203b565b005b34801561094257600080fd5b5061094b6121bc565b005b34801561095957600080fd5b50610974600480360381019061096f9190613e31565b612255565b005b34801561098257600080fd5b5061099d60048036038101906109989190614025565b6122b7565b6040516109aa919061466d565b60405180910390f35b3480156109bf57600080fd5b506109c86122f6565b6040516109d59190614a73565b60405180910390f35b3480156109ea57600080fd5b506109f36122fc565b604051610a00919061466d565b60405180910390f35b348015610a1557600080fd5b50610a1e612322565b604051610a2b9190614711565b60405180910390f35b348015610a4057600080fd5b50610a5b6004803603810190610a569190614025565b6123b0565b604051610a689190614711565b60405180910390f35b348015610a7d57600080fd5b50610a986004803603810190610a939190614025565b61251c565b005b348015610aa657600080fd5b50610aaf6125a2565b604051610abc9190614a73565b60405180910390f35b348015610ad157600080fd5b50610aec6004803603810190610ae79190613fe4565b6125a8565b005b348015610afa57600080fd5b50610b156004803603810190610b109190613da6565b61263e565b604051610b2291906146f6565b60405180910390f35b348015610b3757600080fd5b50610b526004803603810190610b4d9190613f24565b6126d2565b005b348015610b6057600080fd5b50610b7b6004803603810190610b769190613fe4565b612772565b005b348015610b8957600080fd5b50610ba46004803603810190610b9f9190613d7d565b612808565b005b60007f780e9d63000000000000000000000000000000000000000000000000000000007bffffffffffffffffffffffffffffffffffffffffffffffffffffffff1916827bffffffffffffffffffffffffffffffffffffffffffffffffffffffff19161480610c195750610c1882612900565b5b9050919050565b610c286129e2565b73ffffffffffffffffffffffffffffffffffffffff16610c46611a4f565b73ffffffffffffffffffffffffffffffffffffffff1614610c9c576040517f08c379a0000000000000000000000000000000000000000000000000000000008152600401610c9390614933565b60405180910390fd5b80601260006101000a81548160ff02191690831515021790555050565b606060008054610cc890614da6565b80601f0160208091040260200160405190810160405280929190818152602001828054610cf490614da6565b8015610d415780601f10610d1657610100808354040283529160200191610d41565b820191906000526020600020905b815481529060010190602001808311610d2457829003601f168201915b5050505050905090565b6000610d56826129ea565b610d95576040517f08c379a0000000000000000000000000000000000000000000000000000000008152600401610d8c90614913565b60405180910390fd5b6004600083815260200190815260200160002060009054906101000a900473ffffffffffffffffffffffffffffffffffffffff169050919050565b600d8054610ddd90614da6565b80601f0160208091040260200160405190810160405280929190818152602001828054610e0990614da6565b8015610e565780601f10610e2b57610100808354040283529160200191610e56565b820191906000526020600020905b815481529060010190602001808311610e3957829003601f168201915b505050505081565b6000610e6982611729565b90508073ffffffffffffffffffffffffffffffffffffffff168373ffffffffffffffffffffffffffffffffffffffff161415610eda576040517f08c379a0000000000000000000000000000000000000000000000000000000008152600401610ed1906149d3565b60405180910390fd5b8073ffffffffffffffffffffffffffffffffffffffff16610ef96129e2565b73ffffffffffffffffffffffffffffffffffffffff161480610f285750610f2781610f226129e2565b61263e565b5b610f67576040517f08c379a0000000000000000000000000000000000000000000000000000000008152600401610f5e90614853565b60405180910390fd5b610f718383612a56565b505050565b600e5481565b6000600880549050905090565b60146020528060005260406000206000915090505481565b60105481565b610fb8610fb26129e2565b82612b0f565b610ff7576040517f08c379a0000000000000000000000000000000000000000000000000000000008152600401610fee90614a13565b60405180910390fd5b611002838383612bed565b505050565b600061101283611889565b8210611053576040517f08c379a000000000000000000000000000000000000000000000000000000000815260040161104a90614733565b60405180910390fd5b600660008473ffffffffffffffffffffffffffffffffffffffff1673ffffffffffffffffffffffffffffffffffffffff168152602001908152602001600020600083815260200190815260200160002054905092915050565b600080600090505b601380549050811015611176578273ffffffffffffffffffffffffffffffffffffffff1660138281548110611112577f4e487b7100000000000000000000000000000000000000000000000000000000600052603260045260246000fd5b9060005260206000200160009054906101000a900473ffffffffffffffffffffffffffffffffffffffff1673ffffffffffffffffffffffffffffffffffffffff16141561116357600191505061117c565b808061116e90614e09565b9150506110b4565b50600090505b919050565b6111896129e2565b73ffffffffffffffffffffffffffffffffffffffff166111a7611a4f565b73ffffffffffffffffffffffffffffffffffffffff16146111fd576040517f08c379a00000000000000000000000000000000000000000000000000000000081526004016111f490614933565b60405180910390fd5b80601260026101000a81548160ff02191690831515021790555050565b6112226129e2565b73ffffffffffffffffffffffffffffffffffffffff16611240611a4f565b73ffffffffffffffffffffffffffffffffffffffff1614611296576040517f08c379a000000000000000000000000000000000000000000000000000000000815260040161128d90614933565b60405180910390fd5b6000601260039054906101000a900473ffffffffffffffffffffffffffffffffffffffff1673ffffffffffffffffffffffffffffffffffffffff16476040516112de9061461b565b60006040518083038185875af1925050503d806000811461131b576040519150601f19603f3d011682016040523d82523d6000602084013e611320565b606091505b505090508061132e57600080fd5b50565b61134c83838360405180602001604052806000815250612255565b505050565b6060600061135e83611889565b905060008167ffffffffffffffff8111156113a2577f4e487b7100000000000000000000000000000000000000000000000000000000600052604160045260246000fd5b6040519080825280602002602001820160405280156113d05781602001602082028036833780820191505090505b50905060005b82811015611440576113e88582611007565b828281518110611421577f4e487b7100000000000000000000000000000000000000000000000000000000600052603260045260246000fd5b602002602001018181525050808061143890614e09565b9150506113d6565b508092505050919050565b6114536129e2565b73ffffffffffffffffffffffffffffffffffffffff16611471611a4f565b73ffffffffffffffffffffffffffffffffffffffff16146114c7576040517f08c379a00000000000000000000000000000000000000000000000000000000081526004016114be90614933565b60405180910390fd5b80600e8190555050565b60006114db610f7c565b821061151c576040517f08c379a000000000000000000000000000000000000000000000000000000000815260040161151390614a33565b60405180910390fd5b60088281548110611556577f4e487b7100000000000000000000000000000000000000000000000000000000600052603260045260246000fd5b90600052602060002001549050919050565b60156020528060005260406000206000915090505481565b601260019054906101000a900460ff1681565b61159b6129e2565b73ffffffffffffffffffffffffffffffffffffffff166115b9611a4f565b73ffffffffffffffffffffffffffffffffffffffff161461160f576040517f08c379a000000000000000000000000000000000000000000000000000000000815260040161160690614933565b60405180910390fd5b80600b9080519060200190611625929190613a96565b5050565b601260009054906101000a900460ff1681565b60008060016064444261164d610f7c565b60405160200161165f93929190614630565b6040516020818303038152906040528051906020012060001c6116829190614e5c565b61168c9190614bb1565b905060005b60658111611723576016600083815260200190815260200160002060009054906101000a900460ff166116f45760016016600084815260200190815260200160002060006101000a81548160ff0219169083151502179055508192505050611726565b81806116ff90614d7c565b925050600082141561171057606491505b808061171b90614e09565b915050611691565b50505b90565b6000806002600084815260200190815260200160002060009054906101000a900473ffffffffffffffffffffffffffffffffffffffff169050600073ffffffffffffffffffffffffffffffffffffffff168173ffffffffffffffffffffffffffffffffffffffff1614156117d2576040517f08c379a00000000000000000000000000000000000000000000000000000000081526004016117c990614893565b60405180910390fd5b80915050919050565b600b80546117e890614da6565b80601f016020809104026020016040519081016040528092919081815260200182805461181490614da6565b80156118615780601f1061183657610100808354040283529160200191611861565b820191906000526020600020905b81548152906001019060200180831161184457829003601f168201915b505050505081565b60166020528060005260406000206000915054906101000a900460ff1681565b60008073ffffffffffffffffffffffffffffffffffffffff168273ffffffffffffffffffffffffffffffffffffffff1614156118fa576040517f08c379a00000000000000000000000000000000000000000000000000000000081526004016118f190614873565b60405180910390fd5b600360008373ffffffffffffffffffffffffffffffffffffffff1673ffffffffffffffffffffffffffffffffffffffff168152602001908152602001600020549050919050565b6119496129e2565b73ffffffffffffffffffffffffffffffffffffffff16611967611a4f565b73ffffffffffffffffffffffffffffffffffffffff16146119bd576040517f08c379a00000000000000000000000000000000000000000000000000000000081526004016119b490614933565b60405180910390fd5b6119c76000612e49565b565b6119d16129e2565b73ffffffffffffffffffffffffffffffffffffffff166119ef611a4f565b73ffffffffffffffffffffffffffffffffffffffff1614611a45576040517f08c379a0000000000000000000000000000000000000000000000000000000008152600401611a3c90614933565b60405180910390fd5b8060108190555050565b6000600a60009054906101000a900473ffffffffffffffffffffffffffffffffffffffff16905090565b606060018054611a8890614da6565b80601f0160208091040260200160405190810160405280929190818152602001828054611ab490614da6565b8015611b015780601f10611ad657610100808354040283529160200191611b01565b820191906000526020600020905b815481529060010190602001808311611ae457829003601f168201915b5050505050905090565b601260029054906101000a900460ff1681565b611b266129e2565b73ffffffffffffffffffffffffffffffffffffffff16611b44611a4f565b73ffffffffffffffffffffffffffffffffffffffff1614611b9a576040517f08c379a0000000000000000000000000000000000000000000000000000000008152600401611b9190614933565b60405180910390fd5b6000611ba4610f7c565b905060005b60038111611c4857601460003373ffffffffffffffffffffffffffffffffffffffff1673ffffffffffffffffffffffffffffffffffffffff1681526020019081526020016000206000815480929190611c0190614e09565b9190505550611c1b338284611c169190614bb1565b612f0f565b6001600f6000828254611c2e9190614bb1565b925050819055508080611c4090614e09565b915050611ba9565b5050565b601260009054906101000a900460ff1615611c9c576040517f08c379a0000000000000000000000000000000000000000000000000000000008152600401611c9390614953565b60405180910390fd5b6000611ca6610f7c565b905060008211611ceb576040517f08c379a0000000000000000000000000000000000000000000000000000000008152600401611ce290614a53565b60405180910390fd5b601054821115611d30576040517f08c379a0000000000000000000000000000000000000000000000000000000008152600401611d27906148d3565b60405180910390fd5b60115482601460003373ffffffffffffffffffffffffffffffffffffffff1673ffffffffffffffffffffffffffffffffffffffff16815260200190815260200160002054611d7e9190614bb1565b1115611dbf576040517f08c379a0000000000000000000000000000000000000000000000000000000008152600401611db6906147b3565b60405180910390fd5b600f548282611dce9190614bb1565b1115611e0f576040517f08c379a0000000000000000000000000000000000000000000000000000000008152600401611e06906148b3565b60405180910390fd5b611e17611a4f565b73ffffffffffffffffffffffffffffffffffffffff163373ffffffffffffffffffffffffffffffffffffffff1614611f815760011515601260029054906101000a900460ff1615151415611f3057611e6e336110ac565b611ead576040517f08c379a0000000000000000000000000000000000000000000000000000000008152600401611ea490614833565b60405180910390fd5b6001601460003373ffffffffffffffffffffffffffffffffffffffff1673ffffffffffffffffffffffffffffffffffffffff1681526020019081526020016000205410611f2f576040517f08c379a0000000000000000000000000000000000000000000000000000000008152600401611f26906149b3565b60405180910390fd5b5b81600e54611f3e9190614c38565b341015611f80576040517f08c379a0000000000000000000000000000000000000000000000000000000008152600401611f77906149f3565b60405180910390fd5b5b6000600190505b82811161203657601460003373ffffffffffffffffffffffffffffffffffffffff1673ffffffffffffffffffffffffffffffffffffffff1681526020019081526020016000206000815480929190611fdf90614e09565b9190505550611fec61163c565b601560008385611ffc9190614bb1565b81526020019081526020016000208190555061202333828461201e9190614bb1565b612f0f565b808061202e90614e09565b915050611f88565b505050565b6120436129e2565b73ffffffffffffffffffffffffffffffffffffffff168273ffffffffffffffffffffffffffffffffffffffff1614156120b1576040517f08c379a00000000000000000000000000000000000000000000000000000000081526004016120a8906147f3565b60405180910390fd5b80600560006120be6129e2565b73ffffffffffffffffffffffffffffffffffffffff1673ffffffffffffffffffffffffffffffffffffffff16815260200190815260200160002060008473ffffffffffffffffffffffffffffffffffffffff1673ffffffffffffffffffffffffffffffffffffffff16815260200190815260200160002060006101000a81548160ff0219169083151502179055508173ffffffffffffffffffffffffffffffffffffffff1661216b6129e2565b73ffffffffffffffffffffffffffffffffffffffff167f17307eab39ab6107e8899845ad3d59bd9653f200f220920489ca2b5937696c31836040516121b091906146f6565b60405180910390a35050565b6121c46129e2565b73ffffffffffffffffffffffffffffffffffffffff166121e2611a4f565b73ffffffffffffffffffffffffffffffffffffffff1614612238576040517f08c379a000000000000000000000000000000000000000000000000000000000815260040161222f90614933565b60405180910390fd5b6001601260016101000a81548160ff021916908315150217905550565b6122666122606129e2565b83612b0f565b6122a5576040517f08c379a000000000000000000000000000000000000000000000000000000000815260040161229c90614a13565b60405180910390fd5b6122b184848484612f2d565b50505050565b601381815481106122c757600080fd5b906000526020600020016000915054906101000a900473ffffffffffffffffffffffffffffffffffffffff1681565b60115481565b601260039054906101000a900473ffffffffffffffffffffffffffffffffffffffff1681565b600c805461232f90614da6565b80601f016020809104026020016040519081016040528092919081815260200182805461235b90614da6565b80156123a85780601f1061237d576101008083540402835291602001916123a8565b820191906000526020600020905b81548152906001019060200180831161238b57829003601f168201915b505050505081565b60606123bb826129ea565b6123fa576040517f08c379a00000000000000000000000000000000000000000000000000000000081526004016123f190614993565b60405180910390fd5b60001515601260019054906101000a900460ff16151514156124a857600d805461242390614da6565b80601f016020809104026020016040519081016040528092919081815260200182805461244f90614da6565b801561249c5780601f106124715761010080835404028352916020019161249c565b820191906000526020600020905b81548152906001019060200180831161247f57829003601f168201915b50505050509050612517565b60006124b2612f89565b905060008151116124d25760405180602001604052806000815250612513565b806124ef601560008681526020019081526020016000205461301b565b600c604051602001612503939291906145ea565b6040516020818303038152906040525b9150505b919050565b6125246129e2565b73ffffffffffffffffffffffffffffffffffffffff16612542611a4f565b73ffffffffffffffffffffffffffffffffffffffff1614612598576040517f08c379a000000000000000000000000000000000000000000000000000000000815260040161258f90614933565b60405180910390fd5b8060118190555050565b600f5481565b6125b06129e2565b73ffffffffffffffffffffffffffffffffffffffff166125ce611a4f565b73ffffffffffffffffffffffffffffffffffffffff1614612624576040517f08c379a000000000000000000000000000000000000000000000000000000000815260040161261b90614933565b60405180910390fd5b80600c908051906020019061263a929190613a96565b5050565b6000600560008473ffffffffffffffffffffffffffffffffffffffff1673ffffffffffffffffffffffffffffffffffffffff16815260200190815260200160002060008373ffffffffffffffffffffffffffffffffffffffff1673ffffffffffffffffffffffffffffffffffffffff16815260200190815260200160002060009054906101000a900460ff16905092915050565b6126da6129e2565b73ffffffffffffffffffffffffffffffffffffffff166126f8611a4f565b73ffffffffffffffffffffffffffffffffffffffff161461274e576040517f08c379a000000000000000000000000000000000000000000000000000000000815260040161274590614933565b60405180910390fd5b6013600061275c9190613b1c565b81816013919061276d929190613b3d565b505050565b61277a6129e2565b73ffffffffffffffffffffffffffffffffffffffff16612798611a4f565b73ffffffffffffffffffffffffffffffffffffffff16146127ee576040517f08c379a00000000000000000000000000000000000000000000000000000000081526004016127e590614933565b60405180910390fd5b80600d9080519060200190612804929190613a96565b5050565b6128106129e2565b73ffffffffffffffffffffffffffffffffffffffff1661282e611a4f565b73ffffffffffffffffffffffffffffffffffffffff1614612884576040517f08c379a000000000000000000000000000000000000000000000000000000000815260040161287b90614933565b60405180910390fd5b600073ffffffffffffffffffffffffffffffffffffffff168173ffffffffffffffffffffffffffffffffffffffff1614156128f4576040517f08c379a00000000000000000000000000000000000000000000000000000000081526004016128eb90614773565b60405180910390fd5b6128fd81612e49565b50565b60007f80ac58cd000000000000000000000000000000000000000000000000000000007bffffffffffffffffffffffffffffffffffffffffffffffffffffffff1916827bffffffffffffffffffffffffffffffffffffffffffffffffffffffff191614806129cb57507f5b5e139f000000000000000000000000000000000000000000000000000000007bffffffffffffffffffffffffffffffffffffffffffffffffffffffff1916827bffffffffffffffffffffffffffffffffffffffffffffffffffffffff1916145b806129db57506129da826131c8565b5b9050919050565b600033905090565b60008073ffffffffffffffffffffffffffffffffffffffff166002600084815260200190815260200160002060009054906101000a900473ffffffffffffffffffffffffffffffffffffffff1673ffffffffffffffffffffffffffffffffffffffff1614159050919050565b816004600083815260200190815260200160002060006101000a81548173ffffffffffffffffffffffffffffffffffffffff021916908373ffffffffffffffffffffffffffffffffffffffff160217905550808273ffffffffffffffffffffffffffffffffffffffff16612ac983611729565b73ffffffffffffffffffffffffffffffffffffffff167f8c5be1e5ebec7d5bd14f71427d1e84f3dd0314c0f7b2291e5b200ac8c7c3b92560405160405180910390a45050565b6000612b1a826129ea565b612b59576040517f08c379a0000000000000000000000000000000000000000000000000000000008152600401612b5090614813565b60405180910390fd5b6000612b6483611729565b90508073ffffffffffffffffffffffffffffffffffffffff168473ffffffffffffffffffffffffffffffffffffffff161480612bd357508373ffffffffffffffffffffffffffffffffffffffff16612bbb84610d4b565b73ffffffffffffffffffffffffffffffffffffffff16145b80612be45750612be3818561263e565b5b91505092915050565b8273ffffffffffffffffffffffffffffffffffffffff16612c0d82611729565b73ffffffffffffffffffffffffffffffffffffffff1614612c63576040517f08c379a0000000000000000000000000000000000000000000000000000000008152600401612c5a90614973565b60405180910390fd5b600073ffffffffffffffffffffffffffffffffffffffff168273ffffffffffffffffffffffffffffffffffffffff161415612cd3576040517f08c379a0000000000000000000000000000000000000000000000000000000008152600401612cca906147d3565b60405180910390fd5b612cde838383613232565b612ce9600082612a56565b6001600360008573ffffffffffffffffffffffffffffffffffffffff1673ffffffffffffffffffffffffffffffffffffffff1681526020019081526020016000206000828254612d399190614c92565b925050819055506001600360008473ffffffffffffffffffffffffffffffffffffffff1673ffffffffffffffffffffffffffffffffffffffff1681526020019081526020016000206000828254612d909190614bb1565b92505081905550816002600083815260200190815260200160002060006101000a81548173ffffffffffffffffffffffffffffffffffffffff021916908373ffffffffffffffffffffffffffffffffffffffff160217905550808273ffffffffffffffffffffffffffffffffffffffff168473ffffffffffffffffffffffffffffffffffffffff167fddf252ad1be2c89b69c2b068fc378daa952ba7f163c4a11628f55a4df523b3ef60405160405180910390a4505050565b6000600a60009054906101000a900473ffffffffffffffffffffffffffffffffffffffff16905081600a60006101000a81548173ffffffffffffffffffffffffffffffffffffffff021916908373ffffffffffffffffffffffffffffffffffffffff1602179055508173ffffffffffffffffffffffffffffffffffffffff168173ffffffffffffffffffffffffffffffffffffffff167f8be0079c531659141344cd1fd0a4f28419497f9722a3daafe3b4186f6b6457e060405160405180910390a35050565b612f29828260405180602001604052806000815250613346565b5050565b612f38848484612bed565b612f44848484846133a1565b612f83576040517f08c379a0000000000000000000000000000000000000000000000000000000008152600401612f7a90614753565b60405180910390fd5b50505050565b6060600b8054612f9890614da6565b80601f0160208091040260200160405190810160405280929190818152602001828054612fc490614da6565b80156130115780601f10612fe657610100808354040283529160200191613011565b820191906000526020600020905b815481529060010190602001808311612ff457829003601f168201915b5050505050905090565b60606000821415613063576040518060400160405280600181526020017f300000000000000000000000000000000000000000000000000000000000000081525090506131c3565b600082905060005b6000821461309557808061307e90614e09565b915050600a8261308e9190614c07565b915061306b565b60008167ffffffffffffffff8111156130d7577f4e487b7100000000000000000000000000000000000000000000000000000000600052604160045260246000fd5b6040519080825280601f01601f1916602001820160405280156131095781602001600182028036833780820191505090505b5090505b600085146131bc576001826131229190614c92565b9150600a856131319190614e5c565b603061313d9190614bb1565b60f81b818381518110613179577f4e487b7100000000000000000000000000000000000000000000000000000000600052603260045260246000fd5b60200101907effffffffffffffffffffffffffffffffffffffffffffffffffffffffffffff1916908160001a905350600a856131b59190614c07565b945061310d565b8093505050505b919050565b60007f01ffc9a7000000000000000000000000000000000000000000000000000000007bffffffffffffffffffffffffffffffffffffffffffffffffffffffff1916827bffffffffffffffffffffffffffffffffffffffffffffffffffffffff1916149050919050565b61323d838383613538565b600073ffffffffffffffffffffffffffffffffffffffff168373ffffffffffffffffffffffffffffffffffffffff1614156132805761327b8161353d565b6132bf565b8173ffffffffffffffffffffffffffffffffffffffff168373ffffffffffffffffffffffffffffffffffffffff16146132be576132bd8382613586565b5b5b600073ffffffffffffffffffffffffffffffffffffffff168273ffffffffffffffffffffffffffffffffffffffff161415613302576132fd816136f3565b613341565b8273ffffffffffffffffffffffffffffffffffffffff168273ffffffffffffffffffffffffffffffffffffffff16146133405761333f8282613836565b5b5b505050565b61335083836138b5565b61335d60008484846133a1565b61339c576040517f08c379a000000000000000000000000000000000000000000000000000000000815260040161339390614753565b60405180910390fd5b505050565b60006133c28473ffffffffffffffffffffffffffffffffffffffff16613a83565b1561352b578373ffffffffffffffffffffffffffffffffffffffff1663150b7a026133eb6129e2565b8786866040518563ffffffff1660e01b815260040161340d9493929190614688565b602060405180830381600087803b15801561342757600080fd5b505af192505050801561345857506040513d601f19601f820116820180604052508101906134559190613fbb565b60015b6134db573d8060008114613488576040519150601f19603f3d011682016040523d82523d6000602084013e61348d565b606091505b506000815114156134d3576040517f08c379a00000000000000000000000000000000000000000000000000000000081526004016134ca90614753565b60405180910390fd5b805181602001fd5b63150b7a0260e01b7bffffffffffffffffffffffffffffffffffffffffffffffffffffffff1916817bffffffffffffffffffffffffffffffffffffffffffffffffffffffff191614915050613530565b600190505b949350505050565b505050565b6008805490506009600083815260200190815260200160002081905550600881908060018154018082558091505060019003906000526020600020016000909190919091505550565b6000600161359384611889565b61359d9190614c92565b9050600060076000848152602001908152602001600020549050818114613682576000600660008673ffffffffffffffffffffffffffffffffffffffff1673ffffffffffffffffffffffffffffffffffffffff168152602001908152602001600020600084815260200190815260200160002054905080600660008773ffffffffffffffffffffffffffffffffffffffff1673ffffffffffffffffffffffffffffffffffffffff168152602001908152602001600020600084815260200190815260200160002081905550816007600083815260200190815260200160002081905550505b6007600084815260200190815260200160002060009055600660008573ffffffffffffffffffffffffffffffffffffffff1673ffffffffffffffffffffffffffffffffffffffff16815260200190815260200160002060008381526020019081526020016000206000905550505050565b600060016008805490506137079190614c92565b905060006009600084815260200190815260200160002054905060006008838154811061375d577f4e487b7100000000000000000000000000000000000000000000000000000000600052603260045260246000fd5b9060005260206000200154905080600883815481106137a5577f4e487b7100000000000000000000000000000000000000000000000000000000600052603260045260246000fd5b90600052602060002001819055508160096000838152602001908152602001600020819055506009600085815260200190815260200160002060009055600880548061381a577f4e487b7100000000000000000000000000000000000000000000000000000000600052603160045260246000fd5b6001900381819060005260206000200160009055905550505050565b600061384183611889565b905081600660008573ffffffffffffffffffffffffffffffffffffffff1673ffffffffffffffffffffffffffffffffffffffff168152602001908152602001600020600083815260200190815260200160002081905550806007600084815260200190815260200160002081905550505050565b600073ffffffffffffffffffffffffffffffffffffffff168273ffffffffffffffffffffffffffffffffffffffff161415613925576040517f08c379a000000000000000000000000000000000000000000000000000000000815260040161391c906148f3565b60405180910390fd5b61392e816129ea565b1561396e576040517f08c379a000000000000000000000000000000000000000000000000000000000815260040161396590614793565b60405180910390fd5b61397a60008383613232565b6001600360008473ffffffffffffffffffffffffffffffffffffffff1673ffffffffffffffffffffffffffffffffffffffff16815260200190815260200160002060008282546139ca9190614bb1565b92505081905550816002600083815260200190815260200160002060006101000a81548173ffffffffffffffffffffffffffffffffffffffff021916908373ffffffffffffffffffffffffffffffffffffffff160217905550808273ffffffffffffffffffffffffffffffffffffffff16600073ffffffffffffffffffffffffffffffffffffffff167fddf252ad1be2c89b69c2b068fc378daa952ba7f163c4a11628f55a4df523b3ef60405160405180910390a45050565b600080823b905060008111915050919050565b828054613aa290614da6565b90600052602060002090601f016020900481019282613ac45760008555613b0b565b82601f10613add57805160ff1916838001178555613b0b565b82800160010185558215613b0b579182015b82811115613b0a578251825591602001919060010190613aef565b5b509050613b189190613bdd565b5090565b5080546000825590600052602060002090810190613b3a9190613bdd565b50565b828054828255906000526020600020908101928215613bcc579160200282015b82811115613bcb57823573ffffffffffffffffffffffffffffffffffffffff168260006101000a81548173ffffffffffffffffffffffffffffffffffffffff021916908373ffffffffffffffffffffffffffffffffffffffff16021790555091602001919060010190613b5d565b5b509050613bd99190613bdd565b5090565b5b80821115613bf6576000816000905550600101613bde565b5090565b6000613c0d613c0884614ab3565b614a8e565b905082815260208101848484011115613c2557600080fd5b613c30848285614d3a565b509392505050565b6000613c4b613c4684614ae4565b614a8e565b905082815260208101848484011115613c6357600080fd5b613c6e848285614d3a565b509392505050565b600081359050613c858161560d565b92915050565b60008083601f840112613c9d57600080fd5b8235905067ffffffffffffffff811115613cb657600080fd5b602083019150836020820283011115613cce57600080fd5b9250929050565b600081359050613ce481615624565b92915050565b600081359050613cf98161563b565b92915050565b600081519050613d0e8161563b565b92915050565b600082601f830112613d2557600080fd5b8135613d35848260208601613bfa565b91505092915050565b600082601f830112613d4f57600080fd5b8135613d5f848260208601613c38565b91505092915050565b600081359050613d7781615652565b92915050565b600060208284031215613d8f57600080fd5b6000613d9d84828501613c76565b91505092915050565b60008060408385031215613db957600080fd5b6000613dc785828601613c76565b9250506020613dd885828601613c76565b9150509250929050565b600080600060608486031215613df757600080fd5b6000613e0586828701613c76565b9350506020613e1686828701613c76565b9250506040613e2786828701613d68565b9150509250925092565b60008060008060808587031215613e4757600080fd5b6000613e5587828801613c76565b9450506020613e6687828801613c76565b9350506040613e7787828801613d68565b925050606085013567ffffffffffffffff811115613e9457600080fd5b613ea087828801613d14565b91505092959194509250565b60008060408385031215613ebf57600080fd5b6000613ecd85828601613c76565b9250506020613ede85828601613cd5565b9150509250929050565b60008060408385031215613efb57600080fd5b6000613f0985828601613c76565b9250506020613f1a85828601613d68565b9150509250929050565b60008060208385031215613f3757600080fd5b600083013567ffffffffffffffff811115613f5157600080fd5b613f5d85828601613c8b565b92509250509250929050565b600060208284031215613f7b57600080fd5b6000613f8984828501613cd5565b91505092915050565b600060208284031215613fa457600080fd5b6000613fb284828501613cea565b91505092915050565b600060208284031215613fcd57600080fd5b6000613fdb84828501613cff565b91505092915050565b600060208284031215613ff657600080fd5b600082013567ffffffffffffffff81111561401057600080fd5b61401c84828501613d3e565b91505092915050565b60006020828403121561403757600080fd5b600061404584828501613d68565b91505092915050565b600061405a83836145b5565b60208301905092915050565b61406f81614cc6565b82525050565b600061408082614b3a565b61408a8185614b68565b935061409583614b15565b8060005b838110156140c65781516140ad888261404e565b97506140b883614b5b565b925050600181019050614099565b5085935050505092915050565b6140dc81614cd8565b82525050565b60006140ed82614b45565b6140f78185614b79565b9350614107818560208601614d49565b61411081614f49565b840191505092915050565b600061412682614b50565b6141308185614b95565b9350614140818560208601614d49565b61414981614f49565b840191505092915050565b600061415f82614b50565b6141698185614ba6565b9350614179818560208601614d49565b80840191505092915050565b6000815461419281614da6565b61419c8186614ba6565b945060018216600081146141b757600181146141c8576141fb565b60ff198316865281860193506141fb565b6141d185614b25565b60005b838110156141f3578154818901526001820191506020810190506141d4565b838801955050505b50505092915050565b6000614211602b83614b95565b915061421c82614f5a565b604082019050919050565b6000614234603283614b95565b915061423f82614fa9565b604082019050919050565b6000614257602683614b95565b915061426282614ff8565b604082019050919050565b600061427a601c83614b95565b915061428582615047565b602082019050919050565b600061429d602683614b95565b91506142a882615070565b604082019050919050565b60006142c0602483614b95565b91506142cb826150bf565b604082019050919050565b60006142e3601983614b95565b91506142ee8261510e565b602082019050919050565b6000614306602c83614b95565b915061431182615137565b604082019050919050565b6000614329601783614b95565b915061433482615186565b602082019050919050565b600061434c603883614b95565b9150614357826151af565b604082019050919050565b600061436f602a83614b95565b915061437a826151fe565b604082019050919050565b6000614392602983614b95565b915061439d8261524d565b604082019050919050565b60006143b5601683614b95565b91506143c08261529c565b602082019050919050565b60006143d8602483614b95565b91506143e3826152c5565b604082019050919050565b60006143fb602083614b95565b915061440682615314565b602082019050919050565b600061441e602c83614b95565b91506144298261533d565b604082019050919050565b6000614441602083614b95565b915061444c8261538c565b602082019050919050565b6000614464601683614b95565b915061446f826153b5565b602082019050919050565b6000614487602983614b95565b9150614492826153de565b604082019050919050565b60006144aa602f83614b95565b91506144b58261542d565b604082019050919050565b60006144cd603083614b95565b91506144d88261547c565b604082019050919050565b60006144f0602183614b95565b91506144fb826154cb565b604082019050919050565b6000614513600083614b8a565b915061451e8261551a565b600082019050919050565b6000614536601283614b95565b91506145418261551d565b602082019050919050565b6000614559603183614b95565b915061456482615546565b604082019050919050565b600061457c602c83614b95565b915061458782615595565b604082019050919050565b600061459f601b83614b95565b91506145aa826155e4565b602082019050919050565b6145be81614d30565b82525050565b6145cd81614d30565b82525050565b6145e46145df82614d30565b614e52565b82525050565b60006145f68286614154565b91506146028285614154565b915061460e8284614185565b9150819050949350505050565b600061462682614506565b9150819050919050565b600061463c82866145d3565b60208201915061464c82856145d3565b60208201915061465c82846145d3565b602082019150819050949350505050565b60006020820190506146826000830184614066565b92915050565b600060808201905061469d6000830187614066565b6146aa6020830186614066565b6146b760408301856145c4565b81810360608301526146c981846140e2565b905095945050505050565b600060208201905081810360008301526146ee8184614075565b905092915050565b600060208201905061470b60008301846140d3565b92915050565b6000602082019050818103600083015261472b818461411b565b905092915050565b6000602082019050818103600083015261474c81614204565b9050919050565b6000602082019050818103600083015261476c81614227565b9050919050565b6000602082019050818103600083015261478c8161424a565b9050919050565b600060208201905081810360008301526147ac8161426d565b9050919050565b600060208201905081810360008301526147cc81614290565b9050919050565b600060208201905081810360008301526147ec816142b3565b9050919050565b6000602082019050818103600083015261480c816142d6565b9050919050565b6000602082019050818103600083015261482c816142f9565b9050919050565b6000602082019050818103600083015261484c8161431c565b9050919050565b6000602082019050818103600083015261486c8161433f565b9050919050565b6000602082019050818103600083015261488c81614362565b9050919050565b600060208201905081810360008301526148ac81614385565b9050919050565b600060208201905081810360008301526148cc816143a8565b9050919050565b600060208201905081810360008301526148ec816143cb565b9050919050565b6000602082019050818103600083015261490c816143ee565b9050919050565b6000602082019050818103600083015261492c81614411565b9050919050565b6000602082019050818103600083015261494c81614434565b9050919050565b6000602082019050818103600083015261496c81614457565b9050919050565b6000602082019050818103600083015261498c8161447a565b9050919050565b600060208201905081810360008301526149ac8161449d565b9050919050565b600060208201905081810360008301526149cc816144c0565b9050919050565b600060208201905081810360008301526149ec816144e3565b9050919050565b60006020820190508181036000830152614a0c81614529565b9050919050565b60006020820190508181036000830152614a2c8161454c565b9050919050565b60006020820190508181036000830152614a4c8161456f565b9050919050565b60006020820190508181036000830152614a6c81614592565b9050919050565b6000602082019050614a8860008301846145c4565b92915050565b6000614a98614aa9565b9050614aa48282614dd8565b919050565b6000604051905090565b600067ffffffffffffffff821115614ace57614acd614f1a565b5b614ad782614f49565b9050602081019050919050565b600067ffffffffffffffff821115614aff57614afe614f1a565b5b614b0882614f49565b9050602081019050919050565b6000819050602082019050919050565b60008190508160005260206000209050919050565b600081519050919050565b600081519050919050565b600081519050919050565b6000602082019050919050565b600082825260208201905092915050565b600082825260208201905092915050565b600081905092915050565b600082825260208201905092915050565b600081905092915050565b6000614bbc82614d30565b9150614bc783614d30565b9250827fffffffffffffffffffffffffffffffffffffffffffffffffffffffffffffffff03821115614bfc57614bfb614e8d565b5b828201905092915050565b6000614c1282614d30565b9150614c1d83614d30565b925082614c2d57614c2c614ebc565b5b828204905092915050565b6000614c4382614d30565b9150614c4e83614d30565b9250817fffffffffffffffffffffffffffffffffffffffffffffffffffffffffffffffff0483118215151615614c8757614c86614e8d565b5b828202905092915050565b6000614c9d82614d30565b9150614ca883614d30565b925082821015614cbb57614cba614e8d565b5b828203905092915050565b6000614cd182614d10565b9050919050565b60008115159050919050565b60007fffffffff0000000000000000000000000000000000000000000000000000000082169050919050565b600073ffffffffffffffffffffffffffffffffffffffff82169050919050565b6000819050919050565b82818337600083830152505050565b60005b83811015614d67578082015181840152602081019050614d4c565b83811115614d76576000848401525b50505050565b6000614d8782614d30565b91506000821415614d9b57614d9a614e8d565b5b600182039050919050565b60006002820490506001821680614dbe57607f821691505b60208210811415614dd257614dd1614eeb565b5b50919050565b614de182614f49565b810181811067ffffffffffffffff82111715614e0057614dff614f1a565b5b80604052505050565b6000614e1482614d30565b91507fffffffffffffffffffffffffffffffffffffffffffffffffffffffffffffffff821415614e4757614e46614e8d565b5b600182019050919050565b6000819050919050565b6000614e6782614d30565b9150614e7283614d30565b925082614e8257614e81614ebc565b5b828206905092915050565b7f4e487b7100000000000000000000000000000000000000000000000000000000600052601160045260246000fd5b7f4e487b7100000000000000000000000000000000000000000000000000000000600052601260045260246000fd5b7f4e487b7100000000000000000000000000000000000000000000000000000000600052602260045260246000fd5b7f4e487b7100000000000000000000000000000000000000000000000000000000600052604160045260246000fd5b6000601f19601f8301169050919050565b7f455243373231456e756d657261626c653a206f776e657220696e646578206f7560008201527f74206f6620626f756e6473000000000000000000000000000000000000000000602082015250565b7f4552433732313a207472616e7366657220746f206e6f6e20455243373231526560008201527f63656976657220696d706c656d656e7465720000000000000000000000000000602082015250565b7f4f776e61626c653a206e6577206f776e657220697320746865207a65726f206160008201527f6464726573730000000000000000000000000000000000000000000000000000602082015250565b7f4552433732313a20746f6b656e20616c7265616479206d696e74656400000000600082015250565b7f6d617820746f74616c206d696e7420616d6f756e7420616c6c6f77656420657860008201527f6365656465640000000000000000000000000000000000000000000000000000602082015250565b7f4552433732313a207472616e7366657220746f20746865207a65726f2061646460008201527f7265737300000000000000000000000000000000000000000000000000000000602082015250565b7f4552433732313a20617070726f766520746f2063616c6c657200000000000000600082015250565b7f4552433732313a206f70657261746f7220717565727920666f72206e6f6e657860008201527f697374656e7420746f6b656e0000000000000000000000000000000000000000602082015250565b7f55736572206973206e6f742077686974656c6973746564000000000000000000600082015250565b7f4552433732313a20617070726f76652063616c6c6572206973206e6f74206f7760008201527f6e6572206e6f7220617070726f76656420666f7220616c6c0000000000000000602082015250565b7f4552433732313a2062616c616e636520717565727920666f7220746865207a6560008201527f726f206164647265737300000000000000000000000000000000000000000000602082015250565b7f4552433732313a206f776e657220717565727920666f72206e6f6e657869737460008201527f656e7420746f6b656e0000000000000000000000000000000000000000000000602082015250565b7f6d6178204e4654206c696d697420657863656564656400000000000000000000600082015250565b7f6d6178206d696e7420616d6f756e74207065722073657373696f6e206578636560008201527f6564656400000000000000000000000000000000000000000000000000000000602082015250565b7f4552433732313a206d696e7420746f20746865207a65726f2061646472657373600082015250565b7f4552433732313a20617070726f76656420717565727920666f72206e6f6e657860008201527f697374656e7420746f6b656e0000000000000000000000000000000000000000602082015250565b7f4f776e61626c653a2063616c6c6572206973206e6f7420746865206f776e6572600082015250565b7f74686520636f6e74726163742069732070617573656400000000000000000000600082015250565b7f4552433732313a207472616e73666572206f6620746f6b656e2074686174206960008201527f73206e6f74206f776e0000000000000000000000000000000000000000000000602082015250565b7f4552433732314d657461646174613a2055524920717565727920666f72206e6f60008201527f6e6578697374656e7420746f6b656e0000000000000000000000000000000000602082015250565b7f4d6178204e465420706572206164647265737320696e2077686974656c69737460008201527f20706572696f6420657863656564656400000000000000000000000000000000602082015250565b7f4552433732313a20617070726f76616c20746f2063757272656e74206f776e6560008201527f7200000000000000000000000000000000000000000000000000000000000000602082015250565b50565b7f696e73756666696369656e742066756e64730000000000000000000000000000600082015250565b7f4552433732313a207472616e736665722063616c6c6572206973206e6f74206f60008201527f776e6572206e6f7220617070726f766564000000000000000000000000000000602082015250565b7f455243373231456e756d657261626c653a20676c6f62616c20696e646578206f60008201527f7574206f6620626f756e64730000000000000000000000000000000000000000602082015250565b7f6e65656420746f206d696e74206174206c656173742031204e46540000000000600082015250565b61561681614cc6565b811461562157600080fd5b50565b61562d81614cd8565b811461563857600080fd5b50565b61564481614ce4565b811461564f57600080fd5b50565b61565b81614d30565b811461566657600080fd5b5056fea2646970667358221220d7a158d7aac0d9ffbe0bbf80927ec5e793c2265f04af7f570d1b5f30c63189c064736f6c63430008040033",
  "immutableReferences": {},
  "source": "// SPDX-License-Identifier: MIT\r\n// File: @openzeppelin/contracts/utils/Strings.sol\r\n\r\n\r\n\r\npragma solidity ^0.8.0;\r\n\r\n/**\r\n * @dev String operations.\r\n */\r\nlibrary Strings {\r\n    bytes16 private constant _HEX_SYMBOLS = \"0123456789abcdef\";\r\n\r\n    /**\r\n     * @dev Converts a `uint256` to its ASCII `string` decimal representation.\r\n     */\r\n    function toString(uint256 value) internal pure returns (string memory) {\r\n        // Inspired by OraclizeAPI's implementation - MIT licence\r\n        // https://github.com/oraclize/ethereum-api/blob/b42146b063c7d6ee1358846c198246239e9360e8/oraclizeAPI_0.4.25.sol\r\n\r\n        if (value == 0) {\r\n            return \"0\";\r\n        }\r\n        uint256 temp = value;\r\n        uint256 digits;\r\n        while (temp != 0) {\r\n            digits++;\r\n            temp /= 10;\r\n        }\r\n        bytes memory buffer = new bytes(digits);\r\n        while (value != 0) {\r\n            digits -= 1;\r\n            buffer[digits] = bytes1(uint8(48 + uint256(value % 10)));\r\n            value /= 10;\r\n        }\r\n        return string(buffer);\r\n    }\r\n\r\n    /**\r\n     * @dev Converts a `uint256` to its ASCII `string` hexadecimal representation.\r\n     */\r\n    function toHexString(uint256 value) internal pure returns (string memory) {\r\n        if (value == 0) {\r\n            return \"0x00\";\r\n        }\r\n        uint256 temp = value;\r\n        uint256 length = 0;\r\n        while (temp != 0) {\r\n            length++;\r\n            temp >>= 8;\r\n        }\r\n        return toHexString(value, length);\r\n    }\r\n\r\n    /**\r\n     * @dev Converts a `uint256` to its ASCII `string` hexadecimal representation with fixed length.\r\n     */\r\n    function toHexString(uint256 value, uint256 length) internal pure returns (string memory) {\r\n        bytes memory buffer = new bytes(2 * length + 2);\r\n        buffer[0] = \"0\";\r\n        buffer[1] = \"x\";\r\n        for (uint256 i = 2 * length + 1; i > 1; --i) {\r\n            buffer[i] = _HEX_SYMBOLS[value & 0xf];\r\n            value >>= 4;\r\n        }\r\n        require(value == 0, \"Strings: hex length insufficient\");\r\n        return string(buffer);\r\n    }\r\n}\r\n\r\n// File: @openzeppelin/contracts/utils/Context.sol\r\n\r\n\r\n\r\npragma solidity ^0.8.0;\r\n\r\n/**\r\n * @dev Provides information about the current execution context, including the\r\n * sender of the transaction and its data. While these are generally available\r\n * via msg.sender and msg.data, they should not be accessed in such a direct\r\n * manner, since when dealing with meta-transactions the account sending and\r\n * paying for execution may not be the actual sender (as far as an application\r\n * is concerned).\r\n *\r\n * This contract is only required for intermediate, library-like contracts.\r\n */\r\nabstract contract Context {\r\n    function _msgSender() internal view virtual returns (address) {\r\n        return msg.sender;\r\n    }\r\n\r\n    function _msgData() internal view virtual returns (bytes calldata) {\r\n        return msg.data;\r\n    }\r\n}\r\n\r\n// File: @openzeppelin/contracts/access/Ownable.sol\r\n\r\n\r\n\r\npragma solidity ^0.8.0;\r\n\r\n\r\n/**\r\n * @dev Contract module which provides a basic access control mechanism, where\r\n * there is an account (an owner) that can be granted exclusive access to\r\n * specific functions.\r\n *\r\n * By default, the owner account will be the one that deploys the contract. This\r\n * can later be changed with {transferOwnership}.\r\n *\r\n * This module is used through inheritance. It will make available the modifier\r\n * `onlyOwner`, which can be applied to your functions to restrict their use to\r\n * the owner.\r\n */\r\nabstract contract Ownable is Context {\r\n    address private _owner;\r\n\r\n    event OwnershipTransferred(address indexed previousOwner, address indexed newOwner);\r\n\r\n    /**\r\n     * @dev Initializes the contract setting the deployer as the initial owner.\r\n     */\r\n    constructor() {\r\n        _setOwner(_msgSender());\r\n    }\r\n\r\n    /**\r\n     * @dev Returns the address of the current owner.\r\n     */\r\n    function owner() public view virtual returns (address) {\r\n        return _owner;\r\n    }\r\n\r\n    /**\r\n     * @dev Throws if called by any account other than the owner.\r\n     */\r\n    modifier onlyOwner() {\r\n        require(owner() == _msgSender(), \"Ownable: caller is not the owner\");\r\n        _;\r\n    }\r\n\r\n    /**\r\n     * @dev Leaves the contract without owner. It will not be possible to call\r\n     * `onlyOwner` functions anymore. Can only be called by the current owner.\r\n     *\r\n     * NOTE: Renouncing ownership will leave the contract without an owner,\r\n     * thereby removing any functionality that is only available to the owner.\r\n     */\r\n    function renounceOwnership() public virtual onlyOwner {\r\n        _setOwner(address(0));\r\n    }\r\n\r\n    /**\r\n     * @dev Transfers ownership of the contract to a new account (`newOwner`).\r\n     * Can only be called by the current owner.\r\n     */\r\n    function transferOwnership(address newOwner) public virtual onlyOwner {\r\n        require(newOwner != address(0), \"Ownable: new owner is the zero address\");\r\n        _setOwner(newOwner);\r\n    }\r\n\r\n    function _setOwner(address newOwner) private {\r\n        address oldOwner = _owner;\r\n        _owner = newOwner;\r\n        emit OwnershipTransferred(oldOwner, newOwner);\r\n    }\r\n}\r\n\r\n// File: @openzeppelin/contracts/utils/Address.sol\r\n\r\n\r\n\r\npragma solidity ^0.8.0;\r\n\r\n/**\r\n * @dev Collection of functions related to the address type\r\n */\r\nlibrary Address {\r\n    /**\r\n     * @dev Returns true if `account` is a contract.\r\n     *\r\n     * [IMPORTANT]\r\n     * ====\r\n     * It is unsafe to assume that an address for which this function returns\r\n     * false is an externally-owned account (EOA) and not a contract.\r\n     *\r\n     * Among others, `isContract` will return false for the following\r\n     * types of addresses:\r\n     *\r\n     *  - an externally-owned account\r\n     *  - a contract in construction\r\n     *  - an address where a contract will be created\r\n     *  - an address where a contract lived, but was destroyed\r\n     * ====\r\n     */\r\n    function isContract(address account) internal view returns (bool) {\r\n        // This method relies on extcodesize, which returns 0 for contracts in\r\n        // construction, since the code is only stored at the end of the\r\n        // constructor execution.\r\n\r\n        uint256 size;\r\n        assembly {\r\n            size := extcodesize(account)\r\n        }\r\n        return size > 0;\r\n    }\r\n\r\n    /**\r\n     * @dev Replacement for Solidity's `transfer`: sends `amount` wei to\r\n     * `recipient`, forwarding all available gas and reverting on errors.\r\n     *\r\n     * https://eips.ethereum.org/EIPS/eip-1884[EIP1884] increases the gas cost\r\n     * of certain opcodes, possibly making contracts go over the 2300 gas limit\r\n     * imposed by `transfer`, making them unable to receive funds via\r\n     * `transfer`. {sendValue} removes this limitation.\r\n     *\r\n     * https://diligence.consensys.net/posts/2019/09/stop-using-soliditys-transfer-now/[Learn more].\r\n     *\r\n     * IMPORTANT: because control is transferred to `recipient`, care must be\r\n     * taken to not create reentrancy vulnerabilities. Consider using\r\n     * {ReentrancyGuard} or the\r\n     * https://solidity.readthedocs.io/en/v0.5.11/security-considerations.html#use-the-checks-effects-interactions-pattern[checks-effects-interactions pattern].\r\n     */\r\n    function sendValue(address payable recipient, uint256 amount) internal {\r\n        require(address(this).balance >= amount, \"Address: insufficient balance\");\r\n\r\n        (bool success, ) = recipient.call{value: amount}(\"\");\r\n        require(success, \"Address: unable to send value, recipient may have reverted\");\r\n    }\r\n\r\n    /**\r\n     * @dev Performs a Solidity function call using a low level `call`. A\r\n     * plain `call` is an unsafe replacement for a function call: use this\r\n     * function instead.\r\n     *\r\n     * If `target` reverts with a revert reason, it is bubbled up by this\r\n     * function (like regular Solidity function calls).\r\n     *\r\n     * Returns the raw returned data. To convert to the expected return value,\r\n     * use https://solidity.readthedocs.io/en/latest/units-and-global-variables.html?highlight=abi.decode#abi-encoding-and-decoding-functions[`abi.decode`].\r\n     *\r\n     * Requirements:\r\n     *\r\n     * - `target` must be a contract.\r\n     * - calling `target` with `data` must not revert.\r\n     *\r\n     * _Available since v3.1._\r\n     */\r\n    function functionCall(address target, bytes memory data) internal returns (bytes memory) {\r\n        return functionCall(target, data, \"Address: low-level call failed\");\r\n    }\r\n\r\n    /**\r\n     * @dev Same as {xref-Address-functionCall-address-bytes-}[`functionCall`], but with\r\n     * `errorMessage` as a fallback revert reason when `target` reverts.\r\n     *\r\n     * _Available since v3.1._\r\n     */\r\n    function functionCall(\r\n        address target,\r\n        bytes memory data,\r\n        string memory errorMessage\r\n    ) internal returns (bytes memory) {\r\n        return functionCallWithValue(target, data, 0, errorMessage);\r\n    }\r\n\r\n    /**\r\n     * @dev Same as {xref-Address-functionCall-address-bytes-}[`functionCall`],\r\n     * but also transferring `value` wei to `target`.\r\n     *\r\n     * Requirements:\r\n     *\r\n     * - the calling contract must have an ETH balance of at least `value`.\r\n     * - the called Solidity function must be `payable`.\r\n     *\r\n     * _Available since v3.1._\r\n     */\r\n    function functionCallWithValue(\r\n        address target,\r\n        bytes memory data,\r\n        uint256 value\r\n    ) internal returns (bytes memory) {\r\n        return functionCallWithValue(target, data, value, \"Address: low-level call with value failed\");\r\n    }\r\n\r\n    /**\r\n     * @dev Same as {xref-Address-functionCallWithValue-address-bytes-uint256-}[`functionCallWithValue`], but\r\n     * with `errorMessage` as a fallback revert reason when `target` reverts.\r\n     *\r\n     * _Available since v3.1._\r\n     */\r\n    function functionCallWithValue(\r\n        address target,\r\n        bytes memory data,\r\n        uint256 value,\r\n        string memory errorMessage\r\n    ) internal returns (bytes memory) {\r\n        require(address(this).balance >= value, \"Address: insufficient balance for call\");\r\n        require(isContract(target), \"Address: call to non-contract\");\r\n\r\n        (bool success, bytes memory returndata) = target.call{value: value}(data);\r\n        return verifyCallResult(success, returndata, errorMessage);\r\n    }\r\n\r\n    /**\r\n     * @dev Same as {xref-Address-functionCall-address-bytes-}[`functionCall`],\r\n     * but performing a static call.\r\n     *\r\n     * _Available since v3.3._\r\n     */\r\n    function functionStaticCall(address target, bytes memory data) internal view returns (bytes memory) {\r\n        return functionStaticCall(target, data, \"Address: low-level static call failed\");\r\n    }\r\n\r\n    /**\r\n     * @dev Same as {xref-Address-functionCall-address-bytes-string-}[`functionCall`],\r\n     * but performing a static call.\r\n     *\r\n     * _Available since v3.3._\r\n     */\r\n    function functionStaticCall(\r\n        address target,\r\n        bytes memory data,\r\n        string memory errorMessage\r\n    ) internal view returns (bytes memory) {\r\n        require(isContract(target), \"Address: static call to non-contract\");\r\n\r\n        (bool success, bytes memory returndata) = target.staticcall(data);\r\n        return verifyCallResult(success, returndata, errorMessage);\r\n    }\r\n\r\n    /**\r\n     * @dev Same as {xref-Address-functionCall-address-bytes-}[`functionCall`],\r\n     * but performing a delegate call.\r\n     *\r\n     * _Available since v3.4._\r\n     */\r\n    function functionDelegateCall(address target, bytes memory data) internal returns (bytes memory) {\r\n        return functionDelegateCall(target, data, \"Address: low-level delegate call failed\");\r\n    }\r\n\r\n    /**\r\n     * @dev Same as {xref-Address-functionCall-address-bytes-string-}[`functionCall`],\r\n     * but performing a delegate call.\r\n     *\r\n     * _Available since v3.4._\r\n     */\r\n    function functionDelegateCall(\r\n        address target,\r\n        bytes memory data,\r\n        string memory errorMessage\r\n    ) internal returns (bytes memory) {\r\n        require(isContract(target), \"Address: delegate call to non-contract\");\r\n\r\n        (bool success, bytes memory returndata) = target.delegatecall(data);\r\n        return verifyCallResult(success, returndata, errorMessage);\r\n    }\r\n\r\n    /**\r\n     * @dev Tool to verifies that a low level call was successful, and revert if it wasn't, either by bubbling the\r\n     * revert reason using the provided one.\r\n     *\r\n     * _Available since v4.3._\r\n     */\r\n    function verifyCallResult(\r\n        bool success,\r\n        bytes memory returndata,\r\n        string memory errorMessage\r\n    ) internal pure returns (bytes memory) {\r\n        if (success) {\r\n            return returndata;\r\n        } else {\r\n            // Look for revert reason and bubble it up if present\r\n            if (returndata.length > 0) {\r\n                // The easiest way to bubble the revert reason is using memory via assembly\r\n\r\n                assembly {\r\n                    let returndata_size := mload(returndata)\r\n                    revert(add(32, returndata), returndata_size)\r\n                }\r\n            } else {\r\n                revert(errorMessage);\r\n            }\r\n        }\r\n    }\r\n}\r\n\r\n// File: @openzeppelin/contracts/token/ERC721/IERC721Receiver.sol\r\n\r\n\r\n\r\npragma solidity ^0.8.0;\r\n\r\n/**\r\n * @title ERC721 token receiver interface\r\n * @dev Interface for any contract that wants to support safeTransfers\r\n * from ERC721 asset contracts.\r\n */\r\ninterface IERC721Receiver {\r\n    /**\r\n     * @dev Whenever an {IERC721} `tokenId` token is transferred to this contract via {IERC721-safeTransferFrom}\r\n     * by `operator` from `from`, this function is called.\r\n     *\r\n     * It must return its Solidity selector to confirm the token transfer.\r\n     * If any other value is returned or the interface is not implemented by the recipient, the transfer will be reverted.\r\n     *\r\n     * The selector can be obtained in Solidity with `IERC721.onERC721Received.selector`.\r\n     */\r\n    function onERC721Received(\r\n        address operator,\r\n        address from,\r\n        uint256 tokenId,\r\n        bytes calldata data\r\n    ) external returns (bytes4);\r\n}\r\n\r\n// File: @openzeppelin/contracts/utils/introspection/IERC165.sol\r\n\r\n\r\n\r\npragma solidity ^0.8.0;\r\n\r\n/**\r\n * @dev Interface of the ERC165 standard, as defined in the\r\n * https://eips.ethereum.org/EIPS/eip-165[EIP].\r\n *\r\n * Implementers can declare support of contract interfaces, which can then be\r\n * queried by others ({ERC165Checker}).\r\n *\r\n * For an implementation, see {ERC165}.\r\n */\r\ninterface IERC165 {\r\n    /**\r\n     * @dev Returns true if this contract implements the interface defined by\r\n     * `interfaceId`. See the corresponding\r\n     * https://eips.ethereum.org/EIPS/eip-165#how-interfaces-are-identified[EIP section]\r\n     * to learn more about how these ids are created.\r\n     *\r\n     * This function call must use less than 30 000 gas.\r\n     */\r\n    function supportsInterface(bytes4 interfaceId) external view returns (bool);\r\n}\r\n\r\n// File: @openzeppelin/contracts/utils/introspection/ERC165.sol\r\n\r\n\r\n\r\npragma solidity ^0.8.0;\r\n\r\n\r\n/**\r\n * @dev Implementation of the {IERC165} interface.\r\n *\r\n * Contracts that want to implement ERC165 should inherit from this contract and override {supportsInterface} to check\r\n * for the additional interface id that will be supported. For example:\r\n *\r\n * ```solidity\r\n * function supportsInterface(bytes4 interfaceId) public view virtual override returns (bool) {\r\n *     return interfaceId == type(MyInterface).interfaceId || super.supportsInterface(interfaceId);\r\n * }\r\n * ```\r\n *\r\n * Alternatively, {ERC165Storage} provides an easier to use but more expensive implementation.\r\n */\r\nabstract contract ERC165 is IERC165 {\r\n    /**\r\n     * @dev See {IERC165-supportsInterface}.\r\n     */\r\n    function supportsInterface(bytes4 interfaceId) public view virtual override returns (bool) {\r\n        return interfaceId == type(IERC165).interfaceId;\r\n    }\r\n}\r\n\r\n// File: @openzeppelin/contracts/token/ERC721/IERC721.sol\r\n\r\n\r\n\r\npragma solidity ^0.8.0;\r\n\r\n\r\n/**\r\n * @dev Required interface of an ERC721 compliant contract.\r\n */\r\ninterface IERC721 is IERC165 {\r\n    /**\r\n     * @dev Emitted when `tokenId` token is transferred from `from` to `to`.\r\n     */\r\n    event Transfer(address indexed from, address indexed to, uint256 indexed tokenId);\r\n\r\n    /**\r\n     * @dev Emitted when `owner` enables `approved` to manage the `tokenId` token.\r\n     */\r\n    event Approval(address indexed owner, address indexed approved, uint256 indexed tokenId);\r\n\r\n    /**\r\n     * @dev Emitted when `owner` enables or disables (`approved`) `operator` to manage all of its assets.\r\n     */\r\n    event ApprovalForAll(address indexed owner, address indexed operator, bool approved);\r\n\r\n    /**\r\n     * @dev Returns the number of tokens in ``owner``'s account.\r\n     */\r\n    function balanceOf(address owner) external view returns (uint256 balance);\r\n\r\n    /**\r\n     * @dev Returns the owner of the `tokenId` token.\r\n     *\r\n     * Requirements:\r\n     *\r\n     * - `tokenId` must exist.\r\n     */\r\n    function ownerOf(uint256 tokenId) external view returns (address owner);\r\n\r\n    /**\r\n     * @dev Safely transfers `tokenId` token from `from` to `to`, checking first that contract recipients\r\n     * are aware of the ERC721 protocol to prevent tokens from being forever locked.\r\n     *\r\n     * Requirements:\r\n     *\r\n     * - `from` cannot be the zero address.\r\n     * - `to` cannot be the zero address.\r\n     * - `tokenId` token must exist and be owned by `from`.\r\n     * - If the caller is not `from`, it must be have been allowed to move this token by either {approve} or {setApprovalForAll}.\r\n     * - If `to` refers to a smart contract, it must implement {IERC721Receiver-onERC721Received}, which is called upon a safe transfer.\r\n     *\r\n     * Emits a {Transfer} event.\r\n     */\r\n    function safeTransferFrom(\r\n        address from,\r\n        address to,\r\n        uint256 tokenId\r\n    ) external;\r\n\r\n    /**\r\n     * @dev Transfers `tokenId` token from `from` to `to`.\r\n     *\r\n     * WARNING: Usage of this method is discouraged, use {safeTransferFrom} whenever possible.\r\n     *\r\n     * Requirements:\r\n     *\r\n     * - `from` cannot be the zero address.\r\n     * - `to` cannot be the zero address.\r\n     * - `tokenId` token must be owned by `from`.\r\n     * - If the caller is not `from`, it must be approved to move this token by either {approve} or {setApprovalForAll}.\r\n     *\r\n     * Emits a {Transfer} event.\r\n     */\r\n    function transferFrom(\r\n        address from,\r\n        address to,\r\n        uint256 tokenId\r\n    ) external;\r\n\r\n    /**\r\n     * @dev Gives permission to `to` to transfer `tokenId` token to another account.\r\n     * The approval is cleared when the token is transferred.\r\n     *\r\n     * Only a single account can be approved at a time, so approving the zero address clears previous approvals.\r\n     *\r\n     * Requirements:\r\n     *\r\n     * - The caller must own the token or be an approved operator.\r\n     * - `tokenId` must exist.\r\n     *\r\n     * Emits an {Approval} event.\r\n     */\r\n    function approve(address to, uint256 tokenId) external;\r\n\r\n    /**\r\n     * @dev Returns the account approved for `tokenId` token.\r\n     *\r\n     * Requirements:\r\n     *\r\n     * - `tokenId` must exist.\r\n     */\r\n    function getApproved(uint256 tokenId) external view returns (address operator);\r\n\r\n    /**\r\n     * @dev Approve or remove `operator` as an operator for the caller.\r\n     * Operators can call {transferFrom} or {safeTransferFrom} for any token owned by the caller.\r\n     *\r\n     * Requirements:\r\n     *\r\n     * - The `operator` cannot be the caller.\r\n     *\r\n     * Emits an {ApprovalForAll} event.\r\n     */\r\n    function setApprovalForAll(address operator, bool _approved) external;\r\n\r\n    /**\r\n     * @dev Returns if the `operator` is allowed to manage all of the assets of `owner`.\r\n     *\r\n     * See {setApprovalForAll}\r\n     */\r\n    function isApprovedForAll(address owner, address operator) external view returns (bool);\r\n\r\n    /**\r\n     * @dev Safely transfers `tokenId` token from `from` to `to`.\r\n     *\r\n     * Requirements:\r\n     *\r\n     * - `from` cannot be the zero address.\r\n     * - `to` cannot be the zero address.\r\n     * - `tokenId` token must exist and be owned by `from`.\r\n     * - If the caller is not `from`, it must be approved to move this token by either {approve} or {setApprovalForAll}.\r\n     * - If `to` refers to a smart contract, it must implement {IERC721Receiver-onERC721Received}, which is called upon a safe transfer.\r\n     *\r\n     * Emits a {Transfer} event.\r\n     */\r\n    function safeTransferFrom(\r\n        address from,\r\n        address to,\r\n        uint256 tokenId,\r\n        bytes calldata data\r\n    ) external;\r\n}\r\n\r\n// File: @openzeppelin/contracts/token/ERC721/extensions/IERC721Enumerable.sol\r\n\r\n\r\n\r\npragma solidity ^0.8.0;\r\n\r\n\r\n/**\r\n * @title ERC-721 Non-Fungible Token Standard, optional enumeration extension\r\n * @dev See https://eips.ethereum.org/EIPS/eip-721\r\n */\r\ninterface IERC721Enumerable is IERC721 {\r\n    /**\r\n     * @dev Returns the total amount of tokens stored by the contract.\r\n     */\r\n    function totalSupply() external view returns (uint256);\r\n\r\n    /**\r\n     * @dev Returns a token ID owned by `owner` at a given `index` of its token list.\r\n     * Use along with {balanceOf} to enumerate all of ``owner``'s tokens.\r\n     */\r\n    function tokenOfOwnerByIndex(address owner, uint256 index) external view returns (uint256 tokenId);\r\n\r\n    /**\r\n     * @dev Returns a token ID at a given `index` of all the tokens stored by the contract.\r\n     * Use along with {totalSupply} to enumerate all tokens.\r\n     */\r\n    function tokenByIndex(uint256 index) external view returns (uint256);\r\n}\r\n\r\n// File: @openzeppelin/contracts/token/ERC721/extensions/IERC721Metadata.sol\r\n\r\n\r\n\r\npragma solidity ^0.8.0;\r\n\r\n\r\n/**\r\n * @title ERC-721 Non-Fungible Token Standard, optional metadata extension\r\n * @dev See https://eips.ethereum.org/EIPS/eip-721\r\n */\r\ninterface IERC721Metadata is IERC721 {\r\n    /**\r\n     * @dev Returns the token collection name.\r\n     */\r\n    function name() external view returns (string memory);\r\n\r\n    /**\r\n     * @dev Returns the token collection symbol.\r\n     */\r\n    function symbol() external view returns (string memory);\r\n\r\n    /**\r\n     * @dev Returns the Uniform Resource Identifier (URI) for `tokenId` token.\r\n     */\r\n    function tokenURI(uint256 tokenId) external view returns (string memory);\r\n}\r\n\r\n// File: @openzeppelin/contracts/token/ERC721/ERC721.sol\r\n\r\n\r\n\r\npragma solidity ^0.8.0;\r\n\r\n\r\n\r\n\r\n\r\n\r\n\r\n\r\n/**\r\n * @dev Implementation of https://eips.ethereum.org/EIPS/eip-721[ERC721] Non-Fungible Token Standard, including\r\n * the Metadata extension, but not including the Enumerable extension, which is available separately as\r\n * {ERC721Enumerable}.\r\n */\r\ncontract ERC721 is Context, ERC165, IERC721, IERC721Metadata {\r\n    using Address for address;\r\n    using Strings for uint256;\r\n\r\n    // Token name\r\n    string private _name;\r\n\r\n    // Token symbol\r\n    string private _symbol;\r\n\r\n    // Mapping from token ID to owner address\r\n    mapping(uint256 => address) private _owners;\r\n\r\n    // Mapping owner address to token count\r\n    mapping(address => uint256) private _balances;\r\n\r\n    // Mapping from token ID to approved address\r\n    mapping(uint256 => address) private _tokenApprovals;\r\n\r\n    // Mapping from owner to operator approvals\r\n    mapping(address => mapping(address => bool)) private _operatorApprovals;\r\n\r\n    /**\r\n     * @dev Initializes the contract by setting a `name` and a `symbol` to the token collection.\r\n     */\r\n    constructor(string memory name_, string memory symbol_) {\r\n        _name = name_;\r\n        _symbol = symbol_;\r\n    }\r\n\r\n    /**\r\n     * @dev See {IERC165-supportsInterface}.\r\n     */\r\n    function supportsInterface(bytes4 interfaceId) public view virtual override(ERC165, IERC165) returns (bool) {\r\n        return\r\n            interfaceId == type(IERC721).interfaceId ||\r\n            interfaceId == type(IERC721Metadata).interfaceId ||\r\n            super.supportsInterface(interfaceId);\r\n    }\r\n\r\n    /**\r\n     * @dev See {IERC721-balanceOf}.\r\n     */\r\n    function balanceOf(address owner) public view virtual override returns (uint256) {\r\n        require(owner != address(0), \"ERC721: balance query for the zero address\");\r\n        return _balances[owner];\r\n    }\r\n\r\n    /**\r\n     * @dev See {IERC721-ownerOf}.\r\n     */\r\n    function ownerOf(uint256 tokenId) public view virtual override returns (address) {\r\n        address owner = _owners[tokenId];\r\n        require(owner != address(0), \"ERC721: owner query for nonexistent token\");\r\n        return owner;\r\n    }\r\n\r\n    /**\r\n     * @dev See {IERC721Metadata-name}.\r\n     */\r\n    function name() public view virtual override returns (string memory) {\r\n        return _name;\r\n    }\r\n\r\n    /**\r\n     * @dev See {IERC721Metadata-symbol}.\r\n     */\r\n    function symbol() public view virtual override returns (string memory) {\r\n        return _symbol;\r\n    }\r\n\r\n    /**\r\n     * @dev See {IERC721Metadata-tokenURI}.\r\n     */\r\n    function tokenURI(uint256 tokenId) public view virtual override returns (string memory) {\r\n        require(_exists(tokenId), \"ERC721Metadata: URI query for nonexistent token\");\r\n\r\n        string memory baseURI = _baseURI();\r\n        return bytes(baseURI).length > 0 ? string(abi.encodePacked(baseURI, tokenId.toString())) : \"\";\r\n    }\r\n\r\n    /**\r\n     * @dev Base URI for computing {tokenURI}. If set, the resulting URI for each\r\n     * token will be the concatenation of the `baseURI` and the `tokenId`. Empty\r\n     * by default, can be overriden in child contracts.\r\n     */\r\n    function _baseURI() internal view virtual returns (string memory) {\r\n        return \"\";\r\n    }\r\n\r\n    /**\r\n     * @dev See {IERC721-approve}.\r\n     */\r\n    function approve(address to, uint256 tokenId) public virtual override {\r\n        address owner = ERC721.ownerOf(tokenId);\r\n        require(to != owner, \"ERC721: approval to current owner\");\r\n\r\n        require(\r\n            _msgSender() == owner || isApprovedForAll(owner, _msgSender()),\r\n            \"ERC721: approve caller is not owner nor approved for all\"\r\n        );\r\n\r\n        _approve(to, tokenId);\r\n    }\r\n\r\n    /**\r\n     * @dev See {IERC721-getApproved}.\r\n     */\r\n    function getApproved(uint256 tokenId) public view virtual override returns (address) {\r\n        require(_exists(tokenId), \"ERC721: approved query for nonexistent token\");\r\n\r\n        return _tokenApprovals[tokenId];\r\n    }\r\n\r\n    /**\r\n     * @dev See {IERC721-setApprovalForAll}.\r\n     */\r\n    function setApprovalForAll(address operator, bool approved) public virtual override {\r\n        require(operator != _msgSender(), \"ERC721: approve to caller\");\r\n\r\n        _operatorApprovals[_msgSender()][operator] = approved;\r\n        emit ApprovalForAll(_msgSender(), operator, approved);\r\n    }\r\n\r\n    /**\r\n     * @dev See {IERC721-isApprovedForAll}.\r\n     */\r\n    function isApprovedForAll(address owner, address operator) public view virtual override returns (bool) {\r\n        return _operatorApprovals[owner][operator];\r\n    }\r\n\r\n    /**\r\n     * @dev See {IERC721-transferFrom}.\r\n     */\r\n    function transferFrom(\r\n        address from,\r\n        address to,\r\n        uint256 tokenId\r\n    ) public virtual override {\r\n        //solhint-disable-next-line max-line-length\r\n        require(_isApprovedOrOwner(_msgSender(), tokenId), \"ERC721: transfer caller is not owner nor approved\");\r\n\r\n        _transfer(from, to, tokenId);\r\n    }\r\n\r\n    /**\r\n     * @dev See {IERC721-safeTransferFrom}.\r\n     */\r\n    function safeTransferFrom(\r\n        address from,\r\n        address to,\r\n        uint256 tokenId\r\n    ) public virtual override {\r\n        safeTransferFrom(from, to, tokenId, \"\");\r\n    }\r\n\r\n    /**\r\n     * @dev See {IERC721-safeTransferFrom}.\r\n     */\r\n    function safeTransferFrom(\r\n        address from,\r\n        address to,\r\n        uint256 tokenId,\r\n        bytes memory _data\r\n    ) public virtual override {\r\n        require(_isApprovedOrOwner(_msgSender(), tokenId), \"ERC721: transfer caller is not owner nor approved\");\r\n        _safeTransfer(from, to, tokenId, _data);\r\n    }\r\n\r\n    /**\r\n     * @dev Safely transfers `tokenId` token from `from` to `to`, checking first that contract recipients\r\n     * are aware of the ERC721 protocol to prevent tokens from being forever locked.\r\n     *\r\n     * `_data` is additional data, it has no specified format and it is sent in call to `to`.\r\n     *\r\n     * This internal function is equivalent to {safeTransferFrom}, and can be used to e.g.\r\n     * implement alternative mechanisms to perform token transfer, such as signature-based.\r\n     *\r\n     * Requirements:\r\n     *\r\n     * - `from` cannot be the zero address.\r\n     * - `to` cannot be the zero address.\r\n     * - `tokenId` token must exist and be owned by `from`.\r\n     * - If `to` refers to a smart contract, it must implement {IERC721Receiver-onERC721Received}, which is called upon a safe transfer.\r\n     *\r\n     * Emits a {Transfer} event.\r\n     */\r\n    function _safeTransfer(\r\n        address from,\r\n        address to,\r\n        uint256 tokenId,\r\n        bytes memory _data\r\n    ) internal virtual {\r\n        _transfer(from, to, tokenId);\r\n        require(_checkOnERC721Received(from, to, tokenId, _data), \"ERC721: transfer to non ERC721Receiver implementer\");\r\n    }\r\n\r\n    /**\r\n     * @dev Returns whether `tokenId` exists.\r\n     *\r\n     * Tokens can be managed by their owner or approved accounts via {approve} or {setApprovalForAll}.\r\n     *\r\n     * Tokens start existing when they are minted (`_mint`),\r\n     * and stop existing when they are burned (`_burn`).\r\n     */\r\n    function _exists(uint256 tokenId) internal view virtual returns (bool) {\r\n        return _owners[tokenId] != address(0);\r\n    }\r\n\r\n    /**\r\n     * @dev Returns whether `spender` is allowed to manage `tokenId`.\r\n     *\r\n     * Requirements:\r\n     *\r\n     * - `tokenId` must exist.\r\n     */\r\n    function _isApprovedOrOwner(address spender, uint256 tokenId) internal view virtual returns (bool) {\r\n        require(_exists(tokenId), \"ERC721: operator query for nonexistent token\");\r\n        address owner = ERC721.ownerOf(tokenId);\r\n        return (spender == owner || getApproved(tokenId) == spender || isApprovedForAll(owner, spender));\r\n    }\r\n\r\n    /**\r\n     * @dev Safely mints `tokenId` and transfers it to `to`.\r\n     *\r\n     * Requirements:\r\n     *\r\n     * - `tokenId` must not exist.\r\n     * - If `to` refers to a smart contract, it must implement {IERC721Receiver-onERC721Received}, which is called upon a safe transfer.\r\n     *\r\n     * Emits a {Transfer} event.\r\n     */\r\n    function _safeMint(address to, uint256 tokenId) internal virtual {\r\n        _safeMint(to, tokenId, \"\");\r\n    }\r\n\r\n    /**\r\n     * @dev Same as {xref-ERC721-_safeMint-address-uint256-}[`_safeMint`], with an additional `data` parameter which is\r\n     * forwarded in {IERC721Receiver-onERC721Received} to contract recipients.\r\n     */\r\n    function _safeMint(\r\n        address to,\r\n        uint256 tokenId,\r\n        bytes memory _data\r\n    ) internal virtual {\r\n        _mint(to, tokenId);\r\n        require(\r\n            _checkOnERC721Received(address(0), to, tokenId, _data),\r\n            \"ERC721: transfer to non ERC721Receiver implementer\"\r\n        );\r\n    }\r\n\r\n    /**\r\n     * @dev Mints `tokenId` and transfers it to `to`.\r\n     *\r\n     * WARNING: Usage of this method is discouraged, use {_safeMint} whenever possible\r\n     *\r\n     * Requirements:\r\n     *\r\n     * - `tokenId` must not exist.\r\n     * - `to` cannot be the zero address.\r\n     *\r\n     * Emits a {Transfer} event.\r\n     */\r\n    function _mint(address to, uint256 tokenId) internal virtual {\r\n        require(to != address(0), \"ERC721: mint to the zero address\");\r\n        require(!_exists(tokenId), \"ERC721: token already minted\");\r\n\r\n        _beforeTokenTransfer(address(0), to, tokenId);\r\n\r\n        _balances[to] += 1;\r\n        _owners[tokenId] = to;\r\n\r\n        emit Transfer(address(0), to, tokenId);\r\n    }\r\n\r\n    /**\r\n     * @dev Destroys `tokenId`.\r\n     * The approval is cleared when the token is burned.\r\n     *\r\n     * Requirements:\r\n     *\r\n     * - `tokenId` must exist.\r\n     *\r\n     * Emits a {Transfer} event.\r\n     */\r\n    function _burn(uint256 tokenId) internal virtual {\r\n        address owner = ERC721.ownerOf(tokenId);\r\n\r\n        _beforeTokenTransfer(owner, address(0), tokenId);\r\n\r\n        // Clear approvals\r\n        _approve(address(0), tokenId);\r\n\r\n        _balances[owner] -= 1;\r\n        delete _owners[tokenId];\r\n\r\n        emit Transfer(owner, address(0), tokenId);\r\n    }\r\n\r\n    /**\r\n     * @dev Transfers `tokenId` from `from` to `to`.\r\n     *  As opposed to {transferFrom}, this imposes no restrictions on msg.sender.\r\n     *\r\n     * Requirements:\r\n     *\r\n     * - `to` cannot be the zero address.\r\n     * - `tokenId` token must be owned by `from`.\r\n     *\r\n     * Emits a {Transfer} event.\r\n     */\r\n    function _transfer(\r\n        address from,\r\n        address to,\r\n        uint256 tokenId\r\n    ) internal virtual {\r\n        require(ERC721.ownerOf(tokenId) == from, \"ERC721: transfer of token that is not own\");\r\n        require(to != address(0), \"ERC721: transfer to the zero address\");\r\n\r\n        _beforeTokenTransfer(from, to, tokenId);\r\n\r\n        // Clear approvals from the previous owner\r\n        _approve(address(0), tokenId);\r\n\r\n        _balances[from] -= 1;\r\n        _balances[to] += 1;\r\n        _owners[tokenId] = to;\r\n\r\n        emit Transfer(from, to, tokenId);\r\n    }\r\n\r\n    /**\r\n     * @dev Approve `to` to operate on `tokenId`\r\n     *\r\n     * Emits a {Approval} event.\r\n     */\r\n    function _approve(address to, uint256 tokenId) internal virtual {\r\n        _tokenApprovals[tokenId] = to;\r\n        emit Approval(ERC721.ownerOf(tokenId), to, tokenId);\r\n    }\r\n\r\n    /**\r\n     * @dev Internal function to invoke {IERC721Receiver-onERC721Received} on a target address.\r\n     * The call is not executed if the target address is not a contract.\r\n     *\r\n     * @param from address representing the previous owner of the given token ID\r\n     * @param to target address that will receive the tokens\r\n     * @param tokenId uint256 ID of the token to be transferred\r\n     * @param _data bytes optional data to send along with the call\r\n     * @return bool whether the call correctly returned the expected magic value\r\n     */\r\n    function _checkOnERC721Received(\r\n        address from,\r\n        address to,\r\n        uint256 tokenId,\r\n        bytes memory _data\r\n    ) private returns (bool) {\r\n        if (to.isContract()) {\r\n            try IERC721Receiver(to).onERC721Received(_msgSender(), from, tokenId, _data) returns (bytes4 retval) {\r\n                return retval == IERC721Receiver.onERC721Received.selector;\r\n            } catch (bytes memory reason) {\r\n                if (reason.length == 0) {\r\n                    revert(\"ERC721: transfer to non ERC721Receiver implementer\");\r\n                } else {\r\n                    assembly {\r\n                        revert(add(32, reason), mload(reason))\r\n                    }\r\n                }\r\n            }\r\n        } else {\r\n            return true;\r\n        }\r\n    }\r\n\r\n    /**\r\n     * @dev Hook that is called before any token transfer. This includes minting\r\n     * and burning.\r\n     *\r\n     * Calling conditions:\r\n     *\r\n     * - When `from` and `to` are both non-zero, ``from``'s `tokenId` will be\r\n     * transferred to `to`.\r\n     * - When `from` is zero, `tokenId` will be minted for `to`.\r\n     * - When `to` is zero, ``from``'s `tokenId` will be burned.\r\n     * - `from` and `to` are never both zero.\r\n     *\r\n     * To learn more about hooks, head to xref:ROOT:extending-contracts.adoc#using-hooks[Using Hooks].\r\n     */\r\n    function _beforeTokenTransfer(\r\n        address from,\r\n        address to,\r\n        uint256 tokenId\r\n    ) internal virtual {}\r\n}\r\n\r\n// File: @openzeppelin/contracts/token/ERC721/extensions/ERC721Enumerable.sol\r\n\r\n\r\n\r\npragma solidity ^0.8.0;\r\n\r\n\r\n\r\n/**\r\n * @dev This implements an optional extension of {ERC721} defined in the EIP that adds\r\n * enumerability of all the token ids in the contract as well as all token ids owned by each\r\n * account.\r\n */\r\nabstract contract ERC721Enumerable is ERC721, IERC721Enumerable {\r\n    // Mapping from owner to list of owned token IDs\r\n    mapping(address => mapping(uint256 => uint256)) private _ownedTokens;\r\n\r\n    // Mapping from token ID to index of the owner tokens list\r\n    mapping(uint256 => uint256) private _ownedTokensIndex;\r\n\r\n    // Array with all token ids, used for enumeration\r\n    uint256[] private _allTokens;\r\n\r\n    // Mapping from token id to position in the allTokens array\r\n    mapping(uint256 => uint256) private _allTokensIndex;\r\n\r\n    /**\r\n     * @dev See {IERC165-supportsInterface}.\r\n     */\r\n    function supportsInterface(bytes4 interfaceId) public view virtual override(IERC165, ERC721) returns (bool) {\r\n        return interfaceId == type(IERC721Enumerable).interfaceId || super.supportsInterface(interfaceId);\r\n    }\r\n\r\n    /**\r\n     * @dev See {IERC721Enumerable-tokenOfOwnerByIndex}.\r\n     */\r\n    function tokenOfOwnerByIndex(address owner, uint256 index) public view virtual override returns (uint256) {\r\n        require(index < ERC721.balanceOf(owner), \"ERC721Enumerable: owner index out of bounds\");\r\n        return _ownedTokens[owner][index];\r\n    }\r\n\r\n    /**\r\n     * @dev See {IERC721Enumerable-totalSupply}.\r\n     */\r\n    function totalSupply() public view virtual override returns (uint256) {\r\n        return _allTokens.length;\r\n    }\r\n\r\n    /**\r\n     * @dev See {IERC721Enumerable-tokenByIndex}.\r\n     */\r\n    function tokenByIndex(uint256 index) public view virtual override returns (uint256) {\r\n        require(index < ERC721Enumerable.totalSupply(), \"ERC721Enumerable: global index out of bounds\");\r\n        return _allTokens[index];\r\n    }\r\n\r\n    /**\r\n     * @dev Hook that is called before any token transfer. This includes minting\r\n     * and burning.\r\n     *\r\n     * Calling conditions:\r\n     *\r\n     * - When `from` and `to` are both non-zero, ``from``'s `tokenId` will be\r\n     * transferred to `to`.\r\n     * - When `from` is zero, `tokenId` will be minted for `to`.\r\n     * - When `to` is zero, ``from``'s `tokenId` will be burned.\r\n     * - `from` cannot be the zero address.\r\n     * - `to` cannot be the zero address.\r\n     *\r\n     * To learn more about hooks, head to xref:ROOT:extending-contracts.adoc#using-hooks[Using Hooks].\r\n     */\r\n    function _beforeTokenTransfer(\r\n        address from,\r\n        address to,\r\n        uint256 tokenId\r\n    ) internal virtual override {\r\n        super._beforeTokenTransfer(from, to, tokenId);\r\n\r\n        if (from == address(0)) {\r\n            _addTokenToAllTokensEnumeration(tokenId);\r\n        } else if (from != to) {\r\n            _removeTokenFromOwnerEnumeration(from, tokenId);\r\n        }\r\n        if (to == address(0)) {\r\n            _removeTokenFromAllTokensEnumeration(tokenId);\r\n        } else if (to != from) {\r\n            _addTokenToOwnerEnumeration(to, tokenId);\r\n        }\r\n    }\r\n\r\n    /**\r\n     * @dev Private function to add a token to this extension's ownership-tracking data structures.\r\n     * @param to address representing the new owner of the given token ID\r\n     * @param tokenId uint256 ID of the token to be added to the tokens list of the given address\r\n     */\r\n    function _addTokenToOwnerEnumeration(address to, uint256 tokenId) private {\r\n        uint256 length = ERC721.balanceOf(to);\r\n        _ownedTokens[to][length] = tokenId;\r\n        _ownedTokensIndex[tokenId] = length;\r\n    }\r\n\r\n    /**\r\n     * @dev Private function to add a token to this extension's token tracking data structures.\r\n     * @param tokenId uint256 ID of the token to be added to the tokens list\r\n     */\r\n    function _addTokenToAllTokensEnumeration(uint256 tokenId) private {\r\n        _allTokensIndex[tokenId] = _allTokens.length;\r\n        _allTokens.push(tokenId);\r\n    }\r\n\r\n    /**\r\n     * @dev Private function to remove a token from this extension's ownership-tracking data structures. Note that\r\n     * while the token is not assigned a new owner, the `_ownedTokensIndex` mapping is _not_ updated: this allows for\r\n     * gas optimizations e.g. when performing a transfer operation (avoiding double writes).\r\n     * This has O(1) time complexity, but alters the order of the _ownedTokens array.\r\n     * @param from address representing the previous owner of the given token ID\r\n     * @param tokenId uint256 ID of the token to be removed from the tokens list of the given address\r\n     */\r\n    function _removeTokenFromOwnerEnumeration(address from, uint256 tokenId) private {\r\n        // To prevent a gap in from's tokens array, we store the last token in the index of the token to delete, and\r\n        // then delete the last slot (swap and pop).\r\n\r\n        uint256 lastTokenIndex = ERC721.balanceOf(from) - 1;\r\n        uint256 tokenIndex = _ownedTokensIndex[tokenId];\r\n\r\n        // When the token to delete is the last token, the swap operation is unnecessary\r\n        if (tokenIndex != lastTokenIndex) {\r\n            uint256 lastTokenId = _ownedTokens[from][lastTokenIndex];\r\n\r\n            _ownedTokens[from][tokenIndex] = lastTokenId; // Move the last token to the slot of the to-delete token\r\n            _ownedTokensIndex[lastTokenId] = tokenIndex; // Update the moved token's index\r\n        }\r\n\r\n        // This also deletes the contents at the last position of the array\r\n        delete _ownedTokensIndex[tokenId];\r\n        delete _ownedTokens[from][lastTokenIndex];\r\n    }\r\n\r\n    /**\r\n     * @dev Private function to remove a token from this extension's token tracking data structures.\r\n     * This has O(1) time complexity, but alters the order of the _allTokens array.\r\n     * @param tokenId uint256 ID of the token to be removed from the tokens list\r\n     */\r\n    function _removeTokenFromAllTokensEnumeration(uint256 tokenId) private {\r\n        // To prevent a gap in the tokens array, we store the last token in the index of the token to delete, and\r\n        // then delete the last slot (swap and pop).\r\n\r\n        uint256 lastTokenIndex = _allTokens.length - 1;\r\n        uint256 tokenIndex = _allTokensIndex[tokenId];\r\n\r\n        // When the token to delete is the last token, the swap operation is unnecessary. However, since this occurs so\r\n        // rarely (when the last minted token is burnt) that we still do the swap here to avoid the gas cost of adding\r\n        // an 'if' statement (like in _removeTokenFromOwnerEnumeration)\r\n        uint256 lastTokenId = _allTokens[lastTokenIndex];\r\n\r\n        _allTokens[tokenIndex] = lastTokenId; // Move the last token to the slot of the to-delete token\r\n        _allTokensIndex[lastTokenId] = tokenIndex; // Update the moved token's index\r\n\r\n        // This also deletes the contents at the last position of the array\r\n        delete _allTokensIndex[tokenId];\r\n        _allTokens.pop();\r\n    }\r\n}\r\n\r\n// File: contracts/ProjectDraco.sol\r\n\r\n\r\n\r\npragma solidity >=0.7.0 <0.9.0;\r\n\r\n\r\n\r\ncontract ProjectDraca is ERC721Enumerable, Ownable {\r\n  using Strings for uint256;\r\n\r\n  string public baseURI;\r\n  string public baseExtension = \".json\";\r\n  string public notRevealedUri;\r\n  uint256 public cost = 0;\r\n  uint256 public maxSupply = 996;\r\n  uint256 public maxMintAmount = 1000;\r\n  uint256 public nftPerAddressLimit = 1000;\r\n  bool public paused = false;\r\n  bool public revealed = false;\r\n  bool public onlyWhitelisted = false;\r\n  address public feeCollector;\r\n  address[] public whitelistedAddresses;\r\n  mapping(address => uint256) public addressMintedBalance;\r\n  mapping(uint256 => uint256) public idToValue;\r\n  mapping(uint256 => bool) public usedValues;\r\n\r\n\r\n  constructor(\r\n    string memory _name,\r\n    string memory _symbol,\r\n    string memory _initNotRevealedUri,\r\n    address _feeCollector\r\n  ) ERC721(_name, _symbol) {\r\n    setNotRevealedURI(_initNotRevealedUri);\r\n    feeCollector = _feeCollector;  \r\n  }\r\n\r\n  // internal\r\n  function _baseURI() internal view virtual override returns (string memory) {\r\n    return baseURI;\r\n  }\r\n  \r\n  // This returns a psudo random number, used in conjunction with the not revealed URI\r\n  // it prevents all leaks and gaming of the system\r\n  function random() public returns (uint256 _pRandom) {\r\n    uint256 pRandom = (uint256(keccak256(abi.encodePacked(block.difficulty, block.timestamp, totalSupply()))) % 100) + 1;\r\n    for(uint256 i = 0; i <= 101; i++){\r\n        if(!usedValues[pRandom]){\r\n            usedValues[pRandom] = true;\r\n            return pRandom;\r\n        } else {\r\n            pRandom--;\r\n            if(pRandom == 0) {\r\n                pRandom = 100;\r\n            }\r\n        }\r\n    }\r\n  }\r\n\r\n  // public\r\n  function mint(uint256 _mintAmount) public payable {\r\n    require(!paused, \"the contract is paused\");\r\n    uint256 supply = totalSupply();\r\n    require(_mintAmount > 0, \"need to mint at least 1 NFT\");\r\n    require(_mintAmount <= maxMintAmount, \"max mint amount per session exceeded\");\r\n    require(addressMintedBalance[msg.sender] + _mintAmount <= nftPerAddressLimit, \"max total mint amount allowed exceeded\");\r\n    require(supply + _mintAmount <= maxSupply, \"max NFT limit exceeded\");\r\n\r\n    if (msg.sender != owner()) {\r\n        if(onlyWhitelisted == true) {\r\n            require(isWhitelisted(msg.sender), \"User is not whitelisted\");\r\n            require(addressMintedBalance[msg.sender] < 1, \"Max NFT per address in whitelist period exceeded\");\r\n        }\r\n        require(msg.value >= cost * _mintAmount, \"insufficient funds\");\r\n    }\r\n\r\n    for (uint256 i = 1; i <= _mintAmount; i++) {\r\n      addressMintedBalance[msg.sender]++;\r\n      idToValue[supply + i] = random();\r\n      _safeMint(msg.sender, supply + i);\r\n    }\r\n  }\r\n  \r\n  function isWhitelisted(address _user) public view returns (bool) {\r\n    for (uint i = 0; i < whitelistedAddresses.length; i++) {\r\n      if (whitelistedAddresses[i] == _user) {\r\n          return true;\r\n      }\r\n    }\r\n    return false;\r\n  }\r\n\r\n  function walletOfOwner(address _owner)\r\n    public\r\n    view\r\n    returns (uint256[] memory)\r\n  {\r\n    uint256 ownerTokenCount = balanceOf(_owner);\r\n    uint256[] memory tokenIds = new uint256[](ownerTokenCount);\r\n    for (uint256 i; i < ownerTokenCount; i++) {\r\n      tokenIds[i] = tokenOfOwnerByIndex(_owner, i);\r\n    }\r\n    return tokenIds;\r\n  }\r\n\r\n  function tokenURI(uint256 tokenId)\r\n    public\r\n    view\r\n    virtual\r\n    override\r\n    returns (string memory)\r\n  {\r\n    require(\r\n      _exists(tokenId),\r\n      \"ERC721Metadata: URI query for nonexistent token\"\r\n    );\r\n    \r\n    if(revealed == false) {\r\n        return notRevealedUri;\r\n    }\r\n\r\n    string memory currentBaseURI = _baseURI();\r\n    return bytes(currentBaseURI).length > 0\r\n        ? string(abi.encodePacked(currentBaseURI, idToValue[tokenId].toString(), baseExtension))\r\n        : \"\";\r\n  }\r\n\r\n  //only owner\r\n  function reveal() public onlyOwner {\r\n      revealed = true;\r\n  }\r\n  \r\n  function setNftPerAddressLimit(uint256 _limit) public onlyOwner {\r\n    nftPerAddressLimit = _limit;\r\n  }\r\n  \r\n  function setCost(uint256 _newCost) public onlyOwner {\r\n    cost = _newCost;\r\n  }\r\n\r\n  function setmaxMintAmount(uint256 _newmaxMintAmount) public onlyOwner {\r\n    maxMintAmount = _newmaxMintAmount;\r\n  }\r\n\r\n  function setBaseURI(string memory _newBaseURI) public onlyOwner {\r\n    baseURI = _newBaseURI;\r\n  }\r\n\r\n  function setBaseExtension(string memory _newBaseExtension) public onlyOwner {\r\n    baseExtension = _newBaseExtension;\r\n  }\r\n  \r\n  function setNotRevealedURI(string memory _notRevealedURI) public onlyOwner {\r\n    notRevealedUri = _notRevealedURI;\r\n  }\r\n\r\n  function pause(bool _state) public onlyOwner {\r\n    paused = _state;\r\n  }\r\n  \r\n  function mintLegends() public onlyOwner {\r\n    uint256 supply = totalSupply();\r\n\r\n    for (uint256 i = 0; i <= 3; i++) {\r\n      addressMintedBalance[msg.sender]++;\r\n      _safeMint(msg.sender, supply + i);\r\n      maxSupply += 1;\r\n    }\r\n  }\r\n  \r\n  function setOnlyWhitelisted(bool _state) public onlyOwner {\r\n    onlyWhitelisted = _state;\r\n  }\r\n  \r\n  function whitelistUsers(address[] calldata _users) public onlyOwner {\r\n    delete whitelistedAddresses;\r\n    whitelistedAddresses = _users;\r\n  }\r\n\r\n  function withdraw() public payable onlyOwner {\r\n\r\n    (bool os, ) = payable(feeCollector).call{value: address(this).balance}(\"\");\r\n    require(os);\r\n  }\r\n}",
  "sourcePath": "E:/Deep Working/BLAQ/GGWTNFT/src/contracts/Draca.sol",
  "compiler": {
    "name": "solc",
    "version": "0.8.4+commit.c7e474f2.Emscripten.clang"
  },
  "schemaVersion": "3.4.1",
  "updatedAt": "2021-12-11T03:49:10.147Z",
  "devdoc": {
    "kind": "dev",
    "methods": {
      "approve(address,uint256)": {
        "details": "See {IERC721-approve}."
      },
      "balanceOf(address)": {
        "details": "See {IERC721-balanceOf}."
      },
      "getApproved(uint256)": {
        "details": "See {IERC721-getApproved}."
      },
      "isApprovedForAll(address,address)": {
        "details": "See {IERC721-isApprovedForAll}."
      },
      "name()": {
        "details": "See {IERC721Metadata-name}."
      },
      "owner()": {
        "details": "Returns the address of the current owner."
      },
      "ownerOf(uint256)": {
        "details": "See {IERC721-ownerOf}."
      },
      "renounceOwnership()": {
        "details": "Leaves the contract without owner. It will not be possible to call `onlyOwner` functions anymore. Can only be called by the current owner. NOTE: Renouncing ownership will leave the contract without an owner, thereby removing any functionality that is only available to the owner."
      },
      "safeTransferFrom(address,address,uint256)": {
        "details": "See {IERC721-safeTransferFrom}."
      },
      "safeTransferFrom(address,address,uint256,bytes)": {
        "details": "See {IERC721-safeTransferFrom}."
      },
      "setApprovalForAll(address,bool)": {
        "details": "See {IERC721-setApprovalForAll}."
      },
      "supportsInterface(bytes4)": {
        "details": "See {IERC165-supportsInterface}."
      },
      "symbol()": {
        "details": "See {IERC721Metadata-symbol}."
      },
      "tokenByIndex(uint256)": {
        "details": "See {IERC721Enumerable-tokenByIndex}."
      },
      "tokenOfOwnerByIndex(address,uint256)": {
        "details": "See {IERC721Enumerable-tokenOfOwnerByIndex}."
      },
      "tokenURI(uint256)": {
        "details": "See {IERC721Metadata-tokenURI}."
      },
      "totalSupply()": {
        "details": "See {IERC721Enumerable-totalSupply}."
      },
      "transferFrom(address,address,uint256)": {
        "details": "See {IERC721-transferFrom}."
      },
      "transferOwnership(address)": {
        "details": "Transfers ownership of the contract to a new account (`newOwner`). Can only be called by the current owner."
      }
    },
    "version": 1
  },
  "userdoc": {
    "kind": "user",
    "methods": {},
    "version": 1
  }
}